S0120000626C655F73656E736F722E73726563E6
S11300000C94CF000C94EC000C94EC000C94EC00D9
S11300100C94EC000C94EC000C94EC000C94EC00AC
S11300200C94EC000C94EC000C94EC000C94EC009C
S11300300C94EC000C94EC000C94EC000C94E80B85
S11300400C94EC000C94230D0C944C0D0C94EC00CB
S11300500C94EC000C94EC000C94EC000C94EC006C
S11300600C94EC000C94EC000C94EC000C94EC005C
S11300700C94EC000C94EC000C94EC000C94BF0D6C
S11300800C94E80D0C94EC000C94EC000C94EC0033
S11300906E616E00696E660000407A10F35A00A02B
S11300A0724E18090010A5D4E80000E8764817003D
S11300B000E40B54020000CA9A3B000000E1F5057D
S11300C0000080969800000040420F000000A086C7
S11300D001000000102700000000E80300000000F9
S11300E06400000000000A0000000000010000009D
S11300F000002C76D888DC674F0823DFC1DFAE59B7
S1130100E1B1B796E5E3E453C63AE651997696E849
S1130110E6C28426EB898C9B62ED407C6FFCEFBCCD
S11301209C9F40F2BAA56FA5F490055A2AF75C93F8
S11301306B6CF9676DC11BFCE0E40D47FEF520E62E
S1130140B500D0ED902E0300943577050080841E11
S1130150080000204E0A000000C80C333333330F6C
S1130160986E12831141EF8D2114893BE65516CF09
S1130170FEE6DB18D1844B381BF77C1D901DA4BB15
S1130180E424203284725E228100C9F124ECA1E5CA
S11301903D276364696E6F70737578585B00112432
S11301A01FBECFEFCDBFDFE3DEBF10E3A0E0B0E3BF
S11301B0E3E3F7E302C005900D92AE38B107D9F737
S11301C028E3AEE8B0E301C01D92AD39B207E1F710
S11301D00E94DE070C949B1A0C9400000E943A09BA
S11301E008958DB1877F8DB981E0089510921E33F3
S11301F010921F3380E091E0E0E2F3E3DF019C0121
S11302001D9221503040E1F7089564E475E780E2DF
S113021093E30E941B16892B11F080E0089581E07E
S113022008950E94F6008DB1877F8DB98DE890E224
S11302300197F1F700008DB188608DB99FE32DE03F
S113024083E0915020408040E1F700C0000068E462
S113025075E780E293E30E941B16892B11F081E07D
S1130260089580E00895CF93DF9380919C3290911C
S11302709D328E379105E8F4C0919C32D0919D3225
S11302800E94520EC256DD4C8883E0919C32F0915C
S11302909D32E256FD4C808190E00E948716809149
S11302A09C3290919D32019680939C3290939D3222
S11302B002C00E94520EDF91CF910895CF93DF9335
S11302C0C0911E33D0911F330E94AD0DC05EDC4C33
S11302D0888380911E3390911F33019699278093D0
S11302E01E3390931F33DF91CF910895FF920F93A4
S11302F01F93CF93DF938C010E94F60084E20E9447
S1130300790D84E20E94790D84E20E94790D2AE637
S113031084E091E0215080409040E1F700C0F12C4E
S113032008C00E94750D882321F088810E94790DF0
S1130330F394E801CF0DD11D88818111F2CF2FE311
S11303408DE093E0215080409040E1F700C0000030
S11303508DE20E94790D8DE20E94790D8DE20E945A
S1130360790D8DE00E94790D8AE00E94790D2AE6CC
S113037084E091E0215080409040E1F700C01F9359
S11303800F93C1E5D5E7DF93CF930E94711680E206
S113039093E39F938F93DF93CF930E9471168DB74E
S11303A09EB708968DBF9EBFDF91CF911F910F918D
S11303B0FF90089584E595E70E9476010E94050167
S11303C008958BE595E70E94760108958FE595E7FA
S11303D00E947601089583E695E70E9476010895C8
S11303E089E695E70E9476010895FC0121812F9307
S11303F080818F938FE695E79F938F938CE991E3A8
S11304009F938F930E94BE168CE991E30E9476011C
S11304100E9405010F900F900F900F900F900F9076
S11304200895FC01958184811F929F931F928F935D
S113043081818F9380818F9387E795E79F938F9333
S11304408CE991E39F938F930E94BE168CE991E30C
S11304500E9476010E9405012DB73EB7265F3F4FEB
S11304602DBF3EBF08952F923F924F925F926F929D
S11304707F928F929F92AF92BF92CF92DF92EF9230
S1130480FF920F931F93CF93DF93CDB7DEB7E2971D
S1130490CDBFDEBF2C01DC01ED91FC9122883388B5
S11304A0612C712C6AC0F301EE0FFF1FE20DF31DE6
S11304B0C080D180C6010E94F501F6018680978034
S11304C080E090E04DC0880F991FF401E80FF91FF8
S11304D000811181C8010E941102882309F465C0BA
S11304E0D60111968C9111978F938C918F9389E8F3
S11304F095E79F938F93FE0131967F01FF93EF93CE
S11305000E94BE16C7010E947601D801ED90FC90AE
S1130510B70180E293E30E941B16F70101900020CB
S1130520E9F73197EE19FF09319640E150E060E0B8
S113053070E08E0F9F1F0E94FF13F8016283738384
S11305407F936F9381818F9380818F9381E995E766
S11305509F938F930E947116C5010196CDBFDEBF94
S1130560D60114962D913C9115975C01821793073F
S113057008F4A9CFBFEF6B1A7B0AD201ED91FC916D
S11305801197818990E0681679060CF48CCF129645
S1130590ED91FC9113970280F381E02DC20109953E
S11305A082EC95E70E94760181E0E296CDBFDEBF42
S11305B0DF91CF911F910F91FF90EF90DF90CF903B
S11305C0BF90AF909F908F907F906F905F904F906F
S11305D03F902F900895EF92FF920F931F93CF9324
S11305E0DF937B01C0E0D0E00CE910E317C0F70112
S11305F0EC0FFD1F80811F928F9387EC95E79F93EB
S11306008F931F930F930E94BE16080F191F2196F4
S11306100F900F900F900F900F900F90C630D10550
S113062034F38CE990E39F938F938CEC95E79F933D
S11306308F938CE991E39F938F930E94BE168CE96C
S113064091E30E9476010F900F900F900F900F90FE
S11306500F90DF91CF911F910F91FF90EF9008952C
S11306607F936F9383ED95E79F938F938CE991E349
S11306709F938F930E94BE168CE991E30E947601AA
S11306800F900F900F900F900F900F9008957F93FD
S11306906F938BED95E79F938F938CE991E39F93F1
S11306A08F930E94BE168CE991E30E9476010F900D
S11306B00F900F900F900F900F9008950F931F932A
S11306C01F930F933F932F935F934F937F936F9356
S11306D086EE95E79F938F938CE991E39F938F9395
S11306E00E94BE168CE991E30E9476018DB79EB7F5
S11306F00C968DBF9EBF1F910F9108950F931F936A
S1130700CF93DF93142F052F1F926F938FEF95E7ED
S11307109F938F93CCE9D1E3DF93CF930E94BE16CE
S1130720CE010E9476010F931F9387E096E79F9373
S11307308F93DF93CF930E94BE16CE010E94760161
S11307408DB79EB70C968DBF9EBFDF91CF911F9141
S11307500F9108950F931F93CF93DF93EC01E881DA
S1130760F981608171816115710511F00E94EB02BC
S1130770E881F981628173816115710519F0CE01F7
S11307800E943003E881F981458156816481CE015C
S11307900E947E03E881F98167817085CE010E9401
S11307A04703E881F98107851089258536854385C6
S11307B0548561857285CE010E945E03EA81FB81C6
S11307C00280F381E02DCE010995DF91CF911F9135
S11307D00F910895CF93DF93EC018FE096E70E9489
S11307E08E1661E08EE591E00E94140D61E083E3D2
S11307F091E00E94B00DEA81FB810280F381E02D3B
S1130800CE010995EA81FB810480F581E02DCE01BA
S11308100995CE010E94AA03CE010E9433020E94D0
S1130820F6002AE684E091E0215080409040E1F710
S113083000C0DF91CF910895CF92DF92EF92FF92A3
S11308400F931F93CF93DF93E62E6A011F928F932A
S113085086E296E79F938F938CE991E39F938F931E
S11308600E94BE168CE991E30E9476010E94050164
S11308700F900F900F900F900F900F90882349F1D5
S1130880F12CA701440F551F65E273E38CE991E352
S11308900E940116C0E0D0E00CE911E316C0C601C5
S11308A08C0F9D1F9F938F9381E396E79F938F9364
S11308B01F930F930E94E0160E5F1F4F21960F9017
S11308C00F900F900F900F900F90CE15DF053CF313
S11308D002C080E000C0DF91CF911F910F91FF9083
S11308E0EF90DF90CF900895AB01FC016581828188
S11308F00E941C040895FC01AB01828165818F5F15
S11309000E941C040895CF92DF92EF92FF920F93FE
S11309101F93CF93DF93C82ED62E7A01C0E0D0E088
S11309200CE910E317C0F701EC0FFD1F80811F9243
S11309308F9387EC95E79F938F931F930F930E9458
S1130940BE16080F191F21960F900F900F900F904D
S11309500F900F908D2D90E0C817D90724F38CE9E0
S113096090E39F938F931F92CF9287E396E79F9391
S11309708F938CE991E39F938F930E94BE168CE929
S113098091E30E9476018DB79EB708968DBF9EBFF6
S1130990DF91CF911F910F91FF90EF90DF90CF9057
S11309A00895AB01FC01658182810E94830408954E
S11309B0FC01AB01828165818F5F0E9483040895ED
S11309C080E293E30895EF92FF920F931F93CF93E6
S11309D0DF93EC0108851985F801E080F180E114CA
S11309E0F10459F00E94E00465E476E70E941B16C6
S11309F0892B19F0F701099554C0F801E480F580BA
S1130A00E114F10459F00E94E0046FE476E70E94D7
S1130A101B16892B19F0F701099543C0F801E280F0
S1130A20F380E114F10459F00E94E00469E576E7EB
S1130A300E941B16892B19F0F701099532C0F801A1
S1130A40E284F384E114F10459F00E94E00466E6C0
S1130A5076E70E941B16892B19F0F701099521C02E
S1130A60F801E484F584E114F10459F00E94E004EF
S1130A706BE676E70E941B16892B19F0F70109959E
S1130A8010C0F801068117810115110551F00E946B
S1130A90E00460E776E70E941B16892B11F0F80149
S1130AA00995E885F9850084F185E02D309739F0C2
S1130AB080911E3390911F33892B09F009950E9470
S1130AC0F600DF91CF911F910F91FF90EF90089561
S1130AD0CF93DF93EC0180919C3290919D32892BCE
S1130AE039F1E0919C32F0919D32E356FD4C8081C6
S1130AF08D30F1F4E0919C32F0919D32E256FD4C40
S1130B008AE08083E0919C32F0919D32E156FD4C65
S1130B1010828EE992E30E94760180E8EEE9F2E326
S1130B20DF011D928A95E9F710929C3210929D3252
S1130B30BFE32DE083E0B15020408040E1F700C0E6
S1130B4000000E94E0049F938F9381E595E79F93B3
S1130B508F930E947116CE010E94E3040F900F90B0
S1130B600F900F90DF91CF91089560E38FE50E947D
S1130B70680C90E0809352389093533861E38FE58A
S1130B800E94680C90E0809350389093513862E34F
S1130B908FE50E94680C90E080935F3890936038F2
S1130BA065E38FE50E94680C837090E0982F882796
S1130BB020915F3830916038822B932B80935F387B
S1130BC09093603863E38FE50E94680C90E0809313
S1130BD056389093573865E38FE50E94680C8C7003
S1130BE020E4829FC0011124209156383091573857
S1130BF0822B932B809356389093573866E38FE576
S1130C000E94680C90E08093593890935A3867E3B7
S1130C108FE50E94680C90E0982F8827209159381E
S1130C2030915A38822B932B8093593890935A38A9
S1130C306AE38FE50E94680C90E08093613890939A
S1130C4062386BE38FE50E94680C90E0982F882748
S1130C502091613830916238822B932B80936138D4
S1130C60909362386CE38FE50E94680C90E0809367
S1130C705438909355386DE38FE50E94680C90E0EA
S1130C80982F88272091543830915538822B932BF4
S1130C9080935438909355386EE38FE50E94680C26
S1130CA090E080935B3890935C386FE38FE50E940B
S1130CB0680C90E0982F882720915B3830915C383D
S1130CC0822B932B80935B3890935C3808952FE3A9
S1130CD08DE093E0215080409040E1F700C0000097
S1130CE04BE160E18FE50E94240C8093583847EE75
S1130CF060E28FE50E94240C8093583840E061E262
S1130D008FE50E94240C8093583840E062E28FE51E
S1130D100E94240C809358380E94B50508958F9240
S1130D209F92AF92BF92CF92DF92EF92FF920F9376
S1130D301F93CF93DF9367E28FE50E94680C81FFD6
S1130D4072C068E28FE50E94680CC82ED12CE12C99
S1130D50F12C69E28FE50E94680C90E0A0E0B0E01D
S1130D60BA2FA92F982F8827C82AD92AEA2AFB2A1A
S1130D7081E0C81680E8D806E104F1041CF081E0A3
S1130D80E81AF1080091523810915338B801012E35
S1130D90000C880B990B0E94360F20E030E040E0F5
S1130DA05FE30E94C20F4B015C01C0915938D0919E
S1130DB05A38CE010D2E000CAA0BBB0BA7019601CD
S1130DC0281B390B4A0B5B0BA0915038B09151385A
S1130DD0A01BB10B0E94AC130E94360F20E030E040
S1130DE040E05FE30E94C20F6B017C0160916138B7
S1130DF0709162386C1B7D0B072E000C880B990BCD
S1130E000E94360F9B01AC01C701B6010E94C20EBD
S1130E109B01AC01C501B4010E94560E562F472F09
S1130E20382F292F04C050E040E030E020E0652F47
S1130E30742F832F922FDF91CF911F910F91FF90E9
S1130E40EF90DF90CF90BF90AF909F908F900895D8
S1130E508F929F92AF92BF92CF92DF92EF92FF92C6
S1130E600F931F93CF93DF9367E28FE50E94680C83
S1130E7080FF72C06AE28FE50E94680CC82ED12CF4
S1130E80E12CF12C6BE28FE50E94680C90E0A0E06D
S1130E90B0E0BA2FA92F982F8827C82AD92AEA2A7E
S1130EA0FB2A81E0C81680E8D806E104F1041CF0AE
S1130EB081E0E81AF10800915F3810916038B801B8
S1130EC0012E000C880B990B0E94360F20E030E0B5
S1130ED040E05EE30E94C20F4B015C01C0915438B4
S1130EE0D0915538CE010D2E000CAA0BBB0BA701D7
S1130EF09601281B390B4A0B5B0BA0915638B09115
S1130F005738A01BB10B0E94AC130E94360F20E08F
S1130F1030E040E05EE30E94C20F6B017C0160910F
S1130F205B3870915C386C1B7D0B072E000C880BB2
S1130F30990B0E94360F9B01AC01C701B6010E94B8
S1130F40C20E9B01AC01C501B4010E94560E562F7E
S1130F50472F382F292F04C050E040E030E020E034
S1130F60652F742F832F922FDF91CF911F910F91B3
S1130F70FF90EF90DF90CF90BF90AF909F908F90B5
S1130F8008950895089508950895CF93DF93CAEEC0
S1130F90D6E7DF93CF930E947116DF93CF930E941D
S1130FA07116DF93CF930E9471160F900F900F90DC
S1130FB00F900F900F90DF91CF910895CF93DF930F
S1130FC0CDB7DEB72A97CDBFDEBF78940E94EE007E
S1130FD00E94670600E310E3D8011896ED91FC9196
S1130FE0199785EC97E0808391831896ED91FC9195
S1130FF0199782EC97E0848395831896ED91FC9180
S1131000199781EC97E0828393831896ED91FC9174
S1131010199784EC97E0808791871896ED91FC915D
S1131020199783EC97E0828793871A96ED91FC9148
S11310301B97C80109958AE0EAE3F5E7DE011196FA
S113104001900D928A95E1F7D8011496ED91FC91E7
S113105015970680F781E02DBE016F5F7F4F8AE20E
S113106090E30995D8011496ED91FC9115970680AB
S1131070F781E02DBE016F5F7F4F8AE290E309950F
S1131080D8011496ED91FC9115970480F581E02D1B
S1131090BE016F5F7F4F8AE290E309950F2EF0E364
S11310A0EF2EF0E3FF2EF02DD7011E96ED91FC916B
S11310B01F97C70109950E94280703E618E30F2E1E
S11310C0F2E3DF2EF02DF8012D2D11922A95E9F788
S11310D09F938F937F936F9384E297E79F938F936C
S11310E01F930F930E94BE16D7011496ED91FC91A5
S11310F015970680F781E02DB8018AE290E30995FF
S11311000E948F06F8011192DA94E9F79F938F9366
S11311107F936F938BE297E79F938F931F930F9324
S11311200E94BE16D7011496ED91FC911597068086
S1131130F781E02DB80184E290E30995CDBFDEBFCD
S1131140ADCF80E0089580E0089580E0089580E0C8
S113115008C0E82FF0E0E05FFB4F90819860908337
S11311608F5F8830B0F380E008C0E82FF0E0E05DE6
S1131170FB4F9081986090838F5F8830B0F380E05C
S113118008C0E82FF0E0E05BFB4F9081986090830B
S11311908F5F8830B0F380E008C0E82FF0E0E059BA
S11311A0FB4F9081986090838F5F8830B0F380E02C
S11311B008C0E82FF0E0E057FB4F908198609083DF
S11311C08F5F8830B0F380E008C0E82FF0E0E0558E
S11311D0FB4F9081986090838F5F8830B0F30895BF
S11311E080B18D7F80B9E1E1F4E08081877F8083E5
S11311F081B18E7F81B980B1816080B90E94950DE3
S1131200089584B38D7F84BBE1EBF4E08081877F14
S1131210808385B38E7F85BB84B3816084BB0E9449
S1131220320E08950E94AC0C089581B1877F81B974
S113123080B1886080B9E3E1F4E08081877F8083B6
S113124080818F7780838081887F808381B18B7F49
S113125081B980B1846080B9E2E1F4E08081877F64
S1131260808380818F7780838081887F80830E94C0
S1131270520B08950E94A7088DB188608DB98CB176
S113128088608CB985B38F7E85BB84B3806184BB51
S1131290E4EBF4E08081877F808380818F77808393
S11312A08081887F80830E94A3080E94F0080E94A6
S11312B001090E9412090E94A5080E94AA0C0E941A
S11312C015090E94A1080895E0EAF8E08481886085
S11312D08483858181608583E0E2F4E380818E7F6D
S11312E0808313868EE00895E0E2F4E380818E7FAC
S11312F08083138680E00895E0EAF8E084818360C7
S113130084830E9474090895E0E2F4E38081886094
S11313108083818190E0880F991F81608093A70862
S113132084E008950E94840908950E948409089520
S1131330E0E2F4E38081886080838181880F809378
S1131340A70883E008950E9498090895A0E2B4E3F1
S11313508C91877F8C9382E01B968C931B9750967D
S1131360ED91FC9151975C968D919C915D970995B7
S1131370823019F0833021F006C00E949509089547
S11313800E94A30908950E947C090895E0EAF8E008
S113139084818B7F848384E00895E0EAF8E084818B
S11313A08B7F848383E00895E0EAF8E0848184609D
S11313B084838481836084830E9474090895E0EAAD
S11313C0F8E084818460848388E008958091A5088E
S11313D084FF19C0A0E2B4E35296ED91FC915397B7
S11313E05E968D919C915F970995823019F08330B8
S11313F021F006C00E94950908950E94A30908954A
S11314000E947C090895E0E2F4E38081877F808371
S1131410A281B381CD010196828393838C918093C1
S1131420A80884819581019784839583892B11F081
S113143083E0089585E00895CF93DF93E0E2F4E339
S11314408081877F808384819581019731F4E0EAEC
S1131450F8E084818460848305C0E0EAF8E0848154
S11314608B7F8483E0E2F4E3848195810197848314
S11314709583892BA9F0DF01C281D381E0EAF8E0EA
S11314808085888312968D919C911397019612966C
S11314908D939C93139784818260848384E026C017
S11314A0A0E2B4E31296ED91FC9113978091A80801
S11314B0808312968D919C911397019612968D9329
S11314C09C9313978C9184608C931C96ED91FC9162
S11314D01D9758968D919C91599709958250823009
S11314E018F40E94DF0902C00E94D409DF91CF9151
S11314F008958091A50884FF19C0A0E2B4E3529630
S1131500ED91FC9153975E968D919C915F9709950F
S1131510823019F0833021F006C00E9495090895A5
S11315200E94A30908950E947C090895A0E2B4E3EF
S11315308C9184608C931C96ED91FC911D97589628
S11315408D919C9159970995833039F0843041F0FD
S1131550823049F40E94950908950E94A3090895D0
S11315600E94E60908950E947C090895E0EAF8E0E3
S1131570858188608583A0E2B4E382E01B968C9326
S11315801B971E96ED91FC911F975A968D919C91F5
S11315905B970995823019F0833021F006C00E94D0
S11315A0950908950E94A30908950E946409089565
S11315B0E0EAF8E0848188608483858181608583A2
S11315C0E0E2F4E380818E7F808382E083878EE093
S11315D00895CF93DF93E0EAF8E08581806C8583FA
S11315E08091203483FF07C08091A50884FF03C045
S11315F08FE080932A348091A50883FF03C080E1A3
S113160080932A348091A50882FF03C081E18093EE
S11316102A34C0E2D4E3EA85F0E0EE0FFF1FEC5A6F
S1131620FF4C0190F081E02D09958A87DF91CF91DD
S1131630089581E0089585E008956115710591F09C
S113164090E0FC013696EE0FFF1FE05EFB4C6083DA
S11316507183FC013C96EE0FFF1FE05EFB4C408360
S11316605183089590E0FC013696EE0FFF1FE05E73
S1131670FB4C29E13BE020833183FC013C96EE0FD7
S1131680FF1FE05EFB4C108211820895AB01BC0188
S113169080E00E941D0B0895AB01BC0182E00E9412
S11316A01D0B0895E0EAF8E08BE0868381EC8383E8
S11316B008959091203491FD37C0E0E2F4E38183F2
S11316C0892F8E7F82609EE0928724EF31E020870D
S11316D03187877F8460808389E19BE08487958755
S11316E0108E118E86879787128E138E808B918B26
S11316F0148E158E828B938B168E178E8BE19BE046
S1131700848B958B10A211A2E0EAF8E084818860B2
S113171084838581816085838581806C85838381D1
S1131720806C838380E0089581E008958091A5080A
S113173082FF07C0E0E2F4E380818E7F808382E051
S113174083878091203480FD17C0E0E2F4E38D7F2D
S113175080838FEF8183A0EAB8E015968C9115976A
S1131760806C15968C93159713968C9113978F73A1
S113177013968C938385089581E008959C0190913C
S1131780203492FF09C0E0E2F4E3228333836483CC
S11317907583892F8B7F808308959091203490FDE9
S11317A011C0E0E2F4E391609083882321F081E0AA
S11317B080932A3403C082E080932A340E94E90A89
S11317C080E0089581E0089580E00E94CD0B0895A3
S11317D01F920F920FB60F9211242F933F934F93A2
S11317E05F936F937F938F939F93AF93BF93EF9385
S11317F0FF930E94E90AFF91EF91BF91AF919F91EE
S11318008F917F916F915F914F913F912F910F90A5
S11318100FBE0F901F90189561E070E00E94BE0B00
S113182060E070E080E090E00E94460B84E0089560
S113183061E070E00E94BE0B60E070E080E090E048
S11318400E94460B82E00895FF920F931F93CF935B
S1131850DF9300D0CDB7DEB7F82E69834A8300E169
S113186017E28F2D0E94590B813019F40150110990
S1131870C1F7012B11F1BE016E5F7F4F8CE09CE03C
S11318800E94460B61E070E0CE0101960E94BE0BFF
S113189060E070E088EA9CE00E944C0B0E94E40B3C
S11318A000E117E20E94960B813019F401501109EE
S11318B0C9F7012B21F482E003C081E001C080E07C
S11318C00F900F90DF91CF911F910F91FF9008958A
S11318D0EF92FF921F93CF93DF9300D0CDB7DEB783
S11318E0182F6A838AE289836894EE24E1F8F12C44
S11318F023C0812F0E94590B8823D9F3BE016F5F47
S11319007F4F88E19CE00E94460B61E070E0CE01CD
S113191002960E94BE0B60E070E088EA9CE00E94A0
S11319204C0B0E94E40B0E94960B8130E1F3882358
S113193031F081E0E81AF108E114F104D1F689816B
S11319400F900F90DF91CF911F91FF90EF9008952A
S113195083E0089580E0089580E008959091000860
S1131960E0914F37EF5F80914E37E81759F0E093DD
S11319704F37F0E0E05BF84C908380914D378F5FF8
S113198080934D37089580914A36882381F0E09101
S11319904B36EF5FE0934B36F0E0E35BF94C80812C
S11319A08093020880914A36815080934A36809110
S11319B04A36811105C0E0E0F8E085818F7D85839A
S11319C0089590914008E0914935EF5F8091483542
S11319D0E81759F0E0934935F0E0E65BFA4C908360
S11319E0809147358F5F80934735089580914434C3
S11319F0882381F0E0914534EF5FE0934534F0E0D3
S1131A00E95BFB4C8081809342088091443481508F
S1131A108093443480914434811105C0E0E4F8E0BB
S1131A2085818F7D85830895613019F0623031F0AE
S1131A30089580938C3090938D30089580938A30EC
S1131A4090938B3008951F920F920FB60F9211242A
S1131A502F933F934F935F936F937F938F939F93B2
S1131A60AF93BF93EF93FF93E0918C30F0918D305F
S1131A70309709F00995FF91EF91BF91AF919F9134
S1131A808F917F916F915F914F913F912F910F9023
S1131A900FBE0F901F9018951F920F920FB60F92C2
S1131AA011242F933F934F935F936F937F938F935F
S1131AB09F93AF93BF93EF93FF93E0918A30F0919C
S1131AC08B30309709F00995FF91EF91BF91AF9159
S1131AD09F918F917F916F915F914F913F912F9142
S1131AE00F900FBE0F901F90189580914A3681E099
S1131AF0089590914C369F5F20914A36E92FF0E08B
S1131B00E35BF94C808390934C360FB6F8940F92B4
S1131B1080914A368F5F80934A360F900FBEE0E083
S1131B20F8E08581806285830895E0E0F8E084E749
S1131B3090E08087918780E8858380EC868310928B
S1131B404E3710924F3710924D3710924B361092F9
S1131B504C3610924A3680E008958091000808952A
S1131B60613019F0623031F0089580937A309093A7
S1131B707B300895809378309093793008951F9244
S1131B800F920FB60F9211242F933F934F935F93AD
S1131B906F937F938F939F93AF93BF93EF93FF9331
S1131BA0E0917A30F0917B30309709F00995FF91FC
S1131BB0EF91BF91AF919F918F917F916F915F91C1
S1131BC04F913F912F910F900FBE0F901F9018953A
S1131BD01F920F920FB60F9211242F933F934F939E
S1131BE05F936F937F938F939F93AF93BF93EF9381
S1131BF0FF93E0917830F0917930309709F00995AE
S1131C00FF91EF91BF91AF919F918F917F916F91D0
S1131C105F914F913F912F910F900FBE0F901F90A6
S1131C201895909146349F5F20914434E92FF0E059
S1131C30E95BFB4C8083909346340FB6F8940F9283
S1131C40809144348F5F809344340F900FBEE0E45E
S1131C50F8E085818062858308950E94110E80E0FA
S1131C6090E00895E0E4F8E084E790E080879187CD
S1131C7080E8858380EC868381E0838710924835F1
S1131C8010924935109247351092453410924634DB
S1131C90109244348CE790E380939738909398386B
S1131CA080E008958091400808955058BB27AA27E2
S1131CB00E946D0E0C94880F0E947A0F38F00E94D7
S1131CC0810F20F039F49F3F19F426F40C94770F18
S1131CD00EF4E095E7FB0C94710FE92F0E94990F25
S1131CE058F3BA17620773078407950720F079F44D
S1131CF0A6F50C94BB0F0EF4E0950B2EBA2FA02D75
S1131D000B01B90190010C01CA01A0011124FF27A4
S1131D10591B99F0593F50F4503E68F11A16F0409F
S1131D20A22F232F342F4427585FF3CF469537959E
S1131D302795A795F0405395C9F77EF41F16BA0B63
S1131D40620B730B840BBAF09150A1F0FF0FBB1F11
S1131D50661F771F881FC2F70EC0BA0F621F731F5A
S1131D60841F48F4879577956795B795F7959E3FB7
S1131D7008F0B0CF9395880F08F09927EE0F979548
S1131D80879508950E94D60E0C94880F0E94810FA7
S1131D9058F00E947A0F40F029F45F3F29F00C9428
S1131DA0710F51110C94BC0F0C94770F0E94990F72
S1131DB068F39923B1F3552391F3951B550BBB2776
S1131DC0AA2762177307840738F09F5F5F4F220FBB
S1131DD0331F441FAA1FA9F335D00E2E3AF0E0E8B2
S1131DE032D091505040E695001CCAF72BD0FE2FFC
S1131DF029D0660F771F881FBB1F26173707480790
S1131E00AB07B0E809F0BB0B802DBF01FF27935847
S1131E105F4F3AF09E3F510578F00C94710F0C948B
S1131E20BC0F5F3FE4F3983ED4F3869577956795AE
S1131E30B795F7959F5FC9F7880F911D969587957C
S1131E4097F90895E1E0660F771F881FBB1F62179B
S1131E5073078407BA0720F0621B730B840BBA0B59
S1131E60EE1F88F7E0950895E89409C097FB3EF4C7
S1131E7090958095709561957F4F8F4F9F4F9923D3
S1131E80A9F0F92F96E9BB279395F6958795779551
S1131E906795B795F111F8CFFAF4BB0F11F460FF11
S1131EA01BC06F5F7F4F8F4F9F4F16C0882311F069
S1131EB096E911C0772321F09EE8872F762F05C07D
S1131EC0662371F096E8862F70E060E02AF09A9518
S1131ED0660F771F881FDAF7880F9695879597F90D
S1131EE0089597F99F6780E870E060E008959FEF98
S1131EF080EC089500240A9416161706180609069D
S1131F00089500240A94121613061406050608956B
S1131F10092E0394000C11F4882352F0BB0F40F4F3
S1131F20BF2B11F460FF04C06F5F7F4F8F4F9F4F33
S1131F30089557FD9058440F551F59F05F3F71F0B5
S1131F404795880F97FB991F61F09F3F79F087951C
S1131F500895121613061406551FF2CF4695F1DFA5
S1131F6008C0161617061806991FF1CF8695710535
S1131F70610508940895E894BB2766277727CB0169
S1131F8097F908950E94D50F0C94880F0E947A0F38
S1131F9038F00E94810F20F0952311F00C94710FFA
S1131FA00C94770F11240C94BC0F0E94990F70F3BA
S1131FB0959FC1F3950F50E0551F629FF001729FEA
S1131FC0BB27F00DB11D639FAA27F00DB11DAA1FF9
S1131FD0649F6627B00DA11D661F829F2227B00D46
S1131FE0A11D621F739FB00DA11D621F839FA00DD1
S1131FF0611D221F749F3327A00D611D231F849F21
S1132000600D211D822F762F6A2F11249F57504077
S11320109AF0F1F088234AF0EE0FFF1FBB1F661FF2
S1132020771F881F91505040A9F79E3F510580F0BB
S11320300C94710F0C94BC0F5F3FE4F3983ED4F3FF
S1132040869577956795B795F795E7959F5FC1F75F
S1132050FE2B880F911D9695879597F90895A0E119
S1132060B0E0E5E3F0E10C94B4137C011B016A01D8
S1132070FC0116821782838181FF44C39E012F5F76
S11320803F4F3901F7019381F10193FD859193FF4E
S113209081911F01882309F431C3853239F493FDFA
S11320A0859193FF81911F01853239F4B70190E046
S11320B00E94351656016501E5CF10E0512C912C94
S11320C0FFE1F915D8F08B3279F038F4803279F0E9
S11320D08332A1F4F92DF0612EC08D3261F080338A
S11320E069F4292D21602DC0392D3260932E892D5C
S11320F08460982E2AC0E92DE86015C097FC2DC095
S113210020ED280F2A3088F496FE06C03AE0139F8B
S1132110200D1124122F19C08AE0589E200D11247D
S1132120522EE92DE0629E2E10C08E3231F496FCC0
S1132130E5C2F92DF0649F2E08C08C3621F4292DB8
S11321402068922E02C0883641F4F10193FD8591F6
S113215093FF81911F018111B3CF9BEB980F9330B3
S113216020F4992D9061805E07C09BE9980F93300D
S113217008F066C1992D9F7E96FF16E09F73992EF5
S1132180853619F49064992E08C0863621F4392FC7
S11321903068932E02C01111115097FE07C01C33F2
S11321A050F444244394410E27E00BC0183038F017
S11321B027E017E005C027E09CE3492E02C0212F49
S11321C0412C560184E0A80EB11CF6016081718196
S11321D082819381042DA3010E9415156C01F9815C
S11321E0FC87F0FF02C0F3FF06C091FC06C092FE1C
S11321F006C000E205C00DE203C00BE201C000E02E
S11322008C858C7019F001115AC29BC297FE10C0C4
S11322104C0CFC85F4FF04C08A81813309F44A9490
S1132220141474F528E0241578F588E0482E2CC0A1
S113223096FC2AC0812F90E08C159D059CF03CEF04
S1132240C3163FEFD30674F0892D8068982E0AC018
S1132250E2E0F0E0EC0FFD1FE10FF11D808180331F
S113226019F411501111F4CF97FE0EC04424439475
S1132270410E812F90E0C816D9062CF41C1904C015
S11322804424439401C010E097FE06C01C141D04AE
S113229034F4C601019605C085E090E002C081E0F7
S11322A090E001110196112331F0212F30E02F5FCE
S11322B03F4F820F931F252D30E08217930714F4AC
S11322C0581A01C0512C892D897049F4552039F0D0
S11322D0B70180E290E00E9435165A94F7CF0023AC
S11322E029F0B701802F90E00E94351693FC09C0B5
S11322F0552039F0B70180E390E00E9435165A94D6
S1132300F7CF97FE4CC04601D7FE02C0812C912C1A
S1132310C60188199909F301E80FF91FED87FE87B3
S11323209601241931092F87388B012F10E011955C
S1132330019511093FEF8316930629F4B7018EE244
S113234090E00E943516C814D9044CF08F85988902
S11323508815990524F4ED85FE85818101C080E30B
S1132360F1E08F1A91082D853E852F5F3F4F2D8711
S11323703E87801691062CF0B70190E00E94351636
S1132380D9CFC814D90441F49A81963320F49533F3
S113239019F43C8534FF81E3B70190E04EC08A8193
S11323A0813319F09C859F7E9C87B70190E00E9441
S11323B03516111105C094FC18C085E690E017C0CD
S11323C0B7018EE290E00E9435161E5F82E001E0C4
S11323D0080FF301E80FF11D8081B70190E00E941E
S11323E03516802F0113F3CFE6CF85E490E0B701D3
S11323F00E943516D7FC06C0C114D10441F4EC8503
S1132400E4FF05C0D194C194D1088DE201C08BE2F0
S1132410B70190E00E94351680E32AE0C216D10489
S11324202CF08F5FFAE0CF1AD108F7CFB70190E014
S11324300E943516B701C601C0960E94351654C1D4
S1132440833631F0833779F0833509F056C020C0E4
S1132450560132E0A30EB11CF6018081898301E0AC
S113246010E0630112C05601F2E0AF0EB11CF60198
S1132470C080D18096FE03C0612F70E002C06FEF70
S11324807FEFC6010E9410168C01F92DFF7714C04E
S1132490560122E0A20EB11CF601C080D18096FE46
S11324A003C0612F70E002C06FEF7FEFC6010E948E
S11324B0F6158C01F92DF0689F2EF3FD1AC0852DB9
S11324C090E008171907A8F4B70180E290E00E9491
S11324D035165A94F4CFF60197FC859197FE8191B5
S11324E06F01B70190E00E94351651105A940150C3
S11324F011090115110579F7F7C0843611F08936F1
S113250061F5560197FE09C024E0A20EB11CF60144
S113251060817181828193810AC0F2E0AF0EB11CA7
S1132520F60160817181072E000C880B990BF92D3F
S1132530FF769F2E97FF09C09095809570956195C1
S11325407F4F8F4F9F4FF0689F2E2AE030E0A3010A
S11325500E94F916C82EC6183FC0092D853721F4EC
S11325600F7E2AE030E01DC0097F8F3691F018F409
S1132570883559F0C3C0803719F0883711F0BEC0D0
S1132580006104FF09C0046007C094FE08C006602F
S113259006C028E030E005C020E130E002C020E1C0
S11325A032E0560107FF09C084E0A80EB11CF60111
S11325B0608171818281938108C0F2E0AF0EB11C09
S11325C0F6016081718180E090E0A3010E94F91618
S11325D0C82EC6180F77902E96FE0BC0092D0E7FBD
S11325E0C11650F494FE0AC092FC08C0092D0E7E58
S11325F005C0DC2C092D03C0DC2C01C0D12E04FF46
S11326000DC0FE01EC0DF11D8081803311F4097EB3
S113261009C002FF06C0D394D39404C0802F8678E7
S113262009F0D39403FD11C000FF06C01C2DD5147E
S113263080F4150D1D190DC0D51458F4B70180E2AE
S113264090E00E943516D394F7CFD51410F45D189A
S113265001C0512C04FF10C0B70180E390E00E9438
S1132660351602FF17C001FD03C088E790E002C0E1
S113267088E590E0B7010CC0802F867859F001FFFF
S113268002C08BE201C080E207FD8DE2B70190E059
S11326900E943516C11638F4B70180E390E00E9419
S11326A035161150F7CFCA94F301EC0DF11D80815A
S11326B0B70190E00E943516C110F5CF15C0F4E0C3
S11326C0F51560F584E0581A93FE1FC0011127C068
S11326D02C8523FF2AC000E910E0392D3071932E98
S11326E0F8018491811124C0552009F4E4CCB70188
S11326F080E290E00E9435165A94F6CFF701868165
S1132700978126C08FEF9FEF23C0B70180E290E04E
S11327100E9435165A945110F8CFD8CF512CB701D6
S1132720802F90E00E943516D3CF04E910E0D5CF76
S113273091108052B70190E00E9435160F5F1F4F31
S1132740CFCF23E0251510F483E0BDCF512CC0CFAB
S11327506096E2E10C94CD13B7FF0C94E5130E944C
S1132760E513821B930B08952F923F924F925F9231
S11327706F927F928F929F92AF92BF92CF92DF928D
S1132780EF92FF920F931F93CF93DF93CDB7DEB7F2
S1132790CA1BDB0BCDBFDEBF09942A883988488861
S11327A05F846E847D848C849B84AA84B984C88469
S11327B0DF80EE80FD800C811B81AA81B981CE0F60
S11327C0D11DCDBFDEBFED0108950E94F013A59F7A
S11327D0900DB49F900DA49F800D911D1124089518
S11327E0A29FB001B39FC001A39F700D811D11244E
S11327F0911DB29F700D811D1124911D0895A0E0BB
S1132800B0E0E5E0F4E10C94B5135C016B017A01EE
S11328106115710519F0FB0180839183E114F104C2
S113282029F0C7010297839708F0E5C0E5012196D6
S1132830F5011081812F90E00E94ED15892B11F094
S11328405E01F4CF1D3229F42196F501118101E0D6
S113285007C01B3221F4E5012296F501118100E045
S1132860E114F10409F1F0E1EF16F10429F43FC099
S113287010E3E114F10421F128E0E216F10401F17E
S113288054F4E2E0EE16F10421F5812C912CA12CF4
S1132890B0E4BB2E3EC0FAE0EF16F10439F020E1BB
S11328A0E216F104B1F430C0103319F1FAE0EF2E5E
S11328B0F12CACEC8A2E982CA82CACE0BA2E29C0B2
S11328C078E0E72EF12C812C912CA12CE0E1BE2E96
S11328D020C060E070E080E090E897010F2C000CCD
S11328E0440B550B0E94791A49015A0112C0103346
S11328F059F488818F7D883509F0BACF19812296E1
S1132900026080E1E82EF12C812C912CA12C68E04E
S1132910B62E40E060E070E0CB0127010F2C000CE4
S113292066087708FE0150ED352E310E29E0231597
S113293070F42FEB210F2A3118F439EC332E06C032
S11329402FE9210F2A3118F529EA322E310E232DD1
S113295030E02E153F05DCF447FD16C086169706B9
S1132960A806B90670F0A30192010E94691A630DCA
S1132970711D811D911D61307105810520E892074B
S113298010F04FEF01C041E021961081CBCF202FF2
S11329902170C114D10471F0442329F02197F60168
S11329A0C083D18307C001FF19C02297F601C083F9
S11329B0D18314C047FF12C0222329F060E070E0E5
S11329C080E090E804C06FEF7FEF8FEF9FE722E293
S11329D030E020939B3830939C3809C0222381F047
S11329E090958095709561957F4F8F4F9F4F462F9F
S11329F0372F282F12C040E030E020E090E00DC0D7
S1132A0097FFF5CF82E290E080939B3890939C38B7
S1132A106FEF7FEF8FEF9FE7EACF642F732F822F43
S1132A20CDB7DEB7E1E10C94CE13283008F027E0EF
S1132A303327DA01990F311D87FD916000966105F6
S1132A40710539F432602E5F3D9330E32A95E1F746
S1132A5008959F3F30F080387105610509F03C5FAF
S1132A603C5F3D93913008F08068911DDF93CF93D4
S1132A701F930F93FF92EF92192F987F9695E92F4A
S1132A8096959695E90FFF27EE50FF4F9927332728
S1132A90EE24FF24A701E70105900894079428F485
S1132AA0360FE71EF81E491F511D660F771F881F3A
S1132AB0991F0694A1F70590079428F4E70EF81ED1
S1132AC0491F561FC11D770F881F991F661F069443
S1132AD0A1F70590079428F4F80E491F561FC71F45
S1132AE0D11D880F991F661F771F0694A1F70590C3
S1132AF0079420F4490F561FC71FD81F990F661F4C
S1132B00771F881F0694A9F784911095177041F0D8
S1132B10D695C79557954795F794E7941A95C1F7B5
S1132B20E8E9F0E0689415901591359165919591D7
S1132B3005907FE27395E118F10A430B560BC90B1C
S1132B40D009C0F7E10CF11E431F561FC91FD01D49
S1132B507EF4703311F48A95E6CFE894015030F096
S1132B60080F0AF40027021708F4202F2395022FD8
S1132B707A3328F079E37D932A95E9F710C07D93A1
S1132B802A9589F60694979567953795179517941E
S1132B90E118F10A430B560BC90BD00998F02395A1
S1132BA07E9173957A3308F070E37C932013B8F721
S1132BB07E9170617D9330F0839571E37D9370E332
S1132BC02A95E1F71124EF90FF900F911F91CF9177
S1132BD0DF91992787FD9095089591110C94041A1B
S1132BE0803219F089508550C8F70895FC0105908A
S1132BF0615070400110D8F7809590958E0F9F1FFB
S1132C000895FB01DC014150504048F001900D92C1
S1132C100020C9F701C01D9241505040E0F70895CB
S1132C20FC016150704001900110D8F78095909597
S1132C308E0F9F1F0895FB0151915523A9F0BF01E9
S1132C40DC014D9145174111E1F759F4CD01019093
S1132C50002049F04D9140154111C9F3FB01411188
S1132C60EFCF81E090E0019708950F931F93CF93E6
S1132C70DF93FB01238121FD03C08FEF9FEF2CC065
S1132C8022FF16C04681578124813581421753079C
S1132C9044F4A081B1819D012F5F3F4F2083318394
S1132CA08C93268137812F5F3F4F2683378314C04F
S1132CB08B01EC01FB010084F185E02D0995892B42
S1132CC0E1F6D80116968D919C9117970196169668
S1132CD08D939C931797CE01DF91CF911F910F9104
S1132CE00895A0E0B0E0E7E7F6E10C94C413AE0168
S1132CF04B5F5F4FFA0161917191AF0180919738F9
S1132D00909198380E942F10E2E00C94DD136091AA
S1132D109738709198380E94351608950F931F9331
S1132D20CF93DF93E0919738F0919838238121FF76
S1132D301BC08C01D0E0C0E0F80181918F0160914B
S1132D40973870919838DB011896ED91FC9119979A
S1132D50882331F00995892B79F3DFEFCFEFECCF9E
S1132D608AE00995892B19F08FEF9FEF02C08D2F10
S1132D709C2FDF91CF911F910F910895AEE0B0E0A9
S1132D80E4ECF6E10C94C2130D891E8986E08C8371
S1132D9009831A838FEF9FE78D839E83AE01475E7D
S1132DA05F4F6F89788DCE0101960E942F10EF81BD
S1132DB0F885E00FF11F10822E96E4E00C94DB13EB
S1132DC0AEE0B0E0E6EEF6E10C94C41385E08C834B
S1132DD08B899C8989839A83AE01495E5F4F6D8993
S1132DE07E89CE0101960E94F3182E96E2E00C949F
S1132DF0DD13FA01AA27283051F1203181F1E8943A
S1132E006F936E7F6E5F7F4F8F4F9F4FAF4FB1E0D9
S1132E103ED0B4E03CD0670F781F891F9A1FA11DD4
S1132E20680F791F8A1F911DA11D6A0F711D811DD5
S1132E30911DA11D20D009F468943F912AE0269F9A
S1132E4011243019305D3193DEF6CF010895462FF9
S1132E504770405D4193B3E00FD0C9F7F6CF462FDA
S1132E604F70405D4A3318F0495D31FD4052419343
S1132E7002D0A9F7EACFB4E0A69597958795779500
S1132E806795BA95C9F700976105710508959B0187
S1132E90AC010A2E06945795479537952795BA9510
S1132EA0C9F7620F731F841F951FA01D089520FD8D
S1132EB009C0FC0123FD05C022FF02C073836283A5
S1132EC051834083089544FD17C046FD17C0AB01EC
S1132ED0BC01DA01FB01AA0FBB1FEE1FFF1F1094F8
S1132EE0D1F74A0F5B1F6E1F7F1FCB01BA01660F1C
S1132EF0771F881F991F09C033E001C034E0660FB3
S1132F00771F881F991F3150D1F7620F711D811DE2
S1132F10911D08950F931F93CF93DF938C01C801E4
S1132F200E94121AEC0197FD08C00E94ED15892B2E
S1132F30B1F7B801CE010E94501ACE01DF91CF91B2
S1132F401F910F9108958F929F92AF92BF92EF922B
S1132F50FF920F931F93CF93DF938C01D62F7A01A7
S1132F60B22E0E94121A9C0133272B32310531F004
S1132F702D32310561F48B2D8068B82ED15011F4B7
S1132F8080E068C0C8010E94121A97FDF9CFCB2DCA
S1132F90CD7F2B2D207309F58033F9F4AA24AA944C
S1132FA0AD0E09F443C0C8010E94121A97FD3EC039
S1132FB09C012F7D33272835310549F4C264D25052
S1132FC0A9F1C8010E94121A97FF07C02FC0B6FECC
S1132FD002C0C26001C0C261DA2D812C912C54015F
S1132FE020ED280F283080F0C4FF04C0B8010E94EF
S1132FF0501A19C02A3040F0C6FFF8CF2F7D3FEE9B
S1133000320F363098F727504C2FC501B4010E9477
S113301063174B015C01C260D15059F0C8010E9492
S1133020121A97FFDDCFC1FD04C0AACF812C912CC9
S11330305401C7FF08C0B094A09490948094811C5C
S1133040911CA11CB11C2C2FB501A401C7010E9425
S1133050571781E0DF91CF911F910F91FF90EF906F
S1133060BF90AF909F908F900895A0E2B0E0EBE303
S1133070F8E10C94B7135C01962E7A01F9018E01E4
S11330800F5F1F4F680180E2D8011D928A95E9F70E
S1133090D50113968C9080E090E0612C712C30E087
S11330A061E070E083FC259183FE21918F01522E13
S11330B0211103C080E090E092C02E3511F40097F6
S11330C051F1432F50E0481759073CF42D3559F17D
S11330D02D3219F4772009F103C0772009F46AC06E
S11330E0452D469546954695D601A40FB11D452D0F
S11330F047708B0102C0000F111F4A95E2F7A80127
S11331005C91452B4C93651459F0561410F4539468
S1133110E7CF5A94E5CF31E004C07724739401C01B
S1133120712C0196BFCF772019F08E8180628E8337
S1133130311103C08824839417C0F6019E012F5DCA
S11331403F4F8081809581932E173F07D1F7F2CFAF
S1133150E114F10429F0D7018C93F70131967F0132
S11331609A94812C9920F9F0C5010E94121A97FDB6
S113317018C0FC01FF2723E0F595E7952A95E1F7B0
S1133180EC0DFD1D208130E0AC014770552702C0D5
S1133190359527954A95E2F720FDDACFB5010E94CF
S11331A0501A811087CFE114F10411F0D7011C9259
S11331B0C80115C0422F469546954695D601A40FE1
S11331C0B11D422F47708B0102C0000F111F4A9599
S11331D0E2F7A8015C91452B4C93622EA2CFA096F6
S11331E0EFE00C94D013A0E0B0E0E9EFF8E10C9428
S11331F0B7136C01EB015A01FC0116821782512CA2
S1133200F601E380FE01E3FC8591E3FE8191182F32
S1133210EF01882309F4EEC090E00E94ED15892B9C
S113322021F0C6010E948A17EBCF153241F4FE014A
S1133230E3FC1591E3FE1191EF01153281F4C6010F
S11332400E94121A97FDD4C0412F50E09C013327ED
S113325024173507A9F2B6010E94501ACBC01A32BE
S113326039F4E3FC1591E3FE1191EF0101E001C093
S113327000E0F12C20ED210F2A3080F402606F2D44
S113328070E080E090E040E20E946317F62EFE01B9
S1133290E3FC1591E3FE1191EF01ECCF01FF03C0B4
S11332A0F11003C0A7C0FF24FA94183619F01C3695
S11332B051F010C0FE01E3FC1591E3FE1191EF0102
S11332C0183641F408600460FE01E3FC1591E3FE46
S11332D01191EF01112309F48DC0612F70E082E98F
S11332E091E00E94071A892B09F484C000FD07C0ED
S11332F0F50180809180C50102965C0102C0812C99
S1133300912C1E3651F4F6014681578160E070E03D
S1133310202FC4010E94571773CF1336A9F401FD5F
S113332002C0FF24F394C6010E94121A97FD60C0E4
S11333308114910429F0F4018083C40101964C01A5
S1133340FA94F110F0CF50C01B3559F49E01A4013A
S11333506F2DC6010E943518EC01892B09F044C079
S11333603EC0C6010E948A1797FD42C01F3661F114
S113337028F4143639F1193651F128C0133771F095
S1133380153701F123C08114910429F0F4016082FE
S1133390C40101964C01FA94FF2071F0C6010E9409
S11333A0121A3C0197FD08C00E94ED15892B59F3B0
S11333B0B601C3010E94501A81149104A9F0F401CA
S11333C0108212C0006203C0006101C00064202F9B
S11333D0A4016F2DC6010E94A317811105C0F60137
S11333E08381807329F406C000FD0ACF539408CF6B
S11333F0552019F0852D90E002C08FEF9FEFCDB7D7
S1133400DEB7EFE00C94D013992788270895FC01C8
S11334100590061621F00020D9F7C00108953197D0
S1133420CF010895CF93DF93EC012B8120FF33C0AC
S113343026FF0AC02F7B2B838E819F8101968E836A
S11334409F838A8190E029C022FF0FC0E881F9811F
S11334508081082E000C990B009719F420622B83AD
S11334601AC03196E883F9830EC0EA85FB85099575
S113347097FF09C02B81019611F080E201C080E121
S1133480822B8B8308C02E813F812F5F3F4F2E8379
S11334903F83992702C08FEF9FEFDF91CF9108956B
S11334A0FB01238120FF12C026FD10C08F3F3FEF98
S11334B0930761F082832F7D2064238326813781E3
S11334C02150310926833783992708958FEF9FEF81
S11334D00895DB018F939F930E94E513BF91AF91F1
S11334E0A29F800D911DA39F900DB29F900D11245A
S11334F00895A1E21A2EAA1BBB1BFD010DC0AA1F31
S1133500BB1FEE1FFF1FA217B307E407F50720F048
S1133510A21BB30BE40BF50B661F771F881F991FC3
S11335201A9469F760957095809590959B01AC010C
S10D3530BD01CF010895F894FFCF08
S113353A23334455AAFFDDAA33AA457272002552E1
S113354A45424F4F54250025730053462C320D0A29
S113355A00410D0A00590D0A004B2C310D0A005581
S113356A2C5A0D0A0050532C25730D0A0050432C73
S113357A25732C253032582C253032580D0A004C2C
S113358A532C25730D0A0052656769737465726555
S113359A64206368617261637465726973746963D0
S11335AA2025732C20776974682068616E646C65C1
S11335BA20253034580D0A004C530D0A00253032A8
S11335CA5800262C25730D0A00532D2C25730D0A39
S11335DA005344412C253034580D0A0053542C25E9
S11335EA3034582C253034582C253034582C253076
S11335FA34580D0A0053412C25640D0A0053502CEB
S113360A25730D0A000D0A496E697469616C697A39
S113361A696E6720726E343837780D005348522C1D
S113362A253034580D0A0025326868580053485723
S113363A2C253034582C25730D0A0025434F4E4E41
S113364A4543542C002553454355524544250025EA
S113365A444953434F4E4E45435425002557432C62
S113366A002557562C0025424F4E44454425003226
S113367A41393831463443373434383431463838AA
S113368A33453838424639374645343633383100BB
S113369A443041353132443630443831343543329A
S11336AA4245444436323145463143424245464214
S11336BA00373336353742443832443034344333AE
S11336CA3141333145353444453144414236364635
S11336DA4600726E343837300031323334353600AE
S11336EA2D2D2D2D2D2D2D2D2D2D2D2D2D2D2D2DFC
S11336FA2D2D2D2D2D4F6E20436F6E6E6563742D07
S113370A2D2D2D2D2D2D2D2D2D2D2D2D2D2D2D2DDB
S113371A2D2D2D2D2D2D2D0A0D00252E32662043FB
S10C372A00252E326620724800CD
S11337332A3024301C30E101E601EB01F001D80406
S11337437B047404D104F1001101DA0179760000D9
S1133753020000309A760000120ABB760000120AB7
S1133763403016300E3006308E30EA030000680510
S11337730000DC7604E3760000060000000002008B
S113378300010430740984099809E6091C0A790ABA
S11337939509A30992097C09C609CD09D409DF094E
S11337A36409A609B60AD80AF60CE10C0000000263
S11137B3000000002D0E00000000C30CAE0C40
S9030000FC
