:100000000C9448000C9465000C9465000C946500F9
:100010000C9465000C9465000C9465000C946500CC
:100020000C9465000C9465000C9465000C946500BC
:100030000C9465000C9465000C9465000C942E06DD
:100040000C9465000C94CB060C94F4060C9465009B
:100050000C9465000C9465000C9465000C9465008C
:100060000C9465000C9465000C9465000C9465007C
:100070000C9465000C9465000C9465000C94580772
:100080000C9481070C9465000C9465000C94650039
:1000900011241FBECFEFCDBFDFE3DEBF10E3A0E032
:1000A000B0E3E5EDFCE102C005900D92A039B10787
:1000B000D9F725E3A0E9B0E301C01D92A43EB20741
:1000C000E1F70E9454030C94CD0D0C9400000E94A3
:1000D000480408958DB1877F8DB981E00895CF934D
:1000E000DF93EC0188EA9BE50E94840A61E083E9E2
:1000F00090E00E94BC06EC89FD890280F381E02D2E
:10010000CE010995EC89FD890480F581E02DCE01B1
:100110000995EE89FF890190F081E02DCE010995C6
:10012000DF91CF910895CF93DF93C091A630D09106
:10013000A7300E945507C855DF4C88838091A630B0
:100140009091A730019699278093A6309093A7307D
:10015000DF91CF9108956FEB7BE588EA90E30E94F1
:10016000540A892B11F080E0089581E008951092DF
:10017000A6301092A73080E091E0E8EAF0E3DF01DA
:100180009C011D9221503040E1F708950E94B70074
:100190008DB1877F8DB98DE890E20197F1F700006E
:1001A0008DB188608DB99FE32DE083E091502040B0
:1001B0008040E1F700C000000E94AB000895FF926C
:1001C0000F931F93CF93DF938C010E94B70084E2BB
:1001D0000E94210784E20E94210784E20E942107F5
:1001E0002AE684E091E0215080409040E1F700C091
:1001F000F12C08C00E941D07882321F088810E94ED
:100200002107F394E801CF0DD11D88818111F2CF30
:100210002FE38DE093E0215080409040E1F700C053
:1002200000008DE20E9421078DE20E9421078DE2ED
:100230000E9421078DE00E9421078AE00E94210789
:100240002AE684E091E0215080409040E1F700C030
:100250001F930F93C3ECDBE5DF93CF930E946E0AED
:1002600088EA90E39F938F93DF93CF930E946E0A67
:100270008DB79EB708968DBF9EBFDF91CF911F911E
:100280000F91FF9008954F925F926F927F928F929D
:100290009F92AF92BF92CF92DF92EF92FF920F9315
:1002A0001F93CF93DF93CDB7DEB76C015B016DB6C3
:1002B0007EB6FC01878190E09C01220F331F2F5FE7
:1002C0003F4F4DB75EB7421B530B4DBF5EBFEDB7FF
:1002D000FEB731962F010596880F991F2DB73EB7AF
:1002E000281B390B2DBF3EBF4DB75EB74F5F5F4F29
:1002F0004A010E2F152DE12CF12C19C0F501EE0D40
:10030000FF1D80811F928F9386EC9BE59F938F93B7
:100310001F930F930E94B40A080F191F5FEFE51A8D
:10032000F50A0F900F900F900F900F900F90F6011D
:10033000878190E0E816F9060CF35F924F92838173
:100340008F9382818F938BEC9BE59F938F939F92EA
:100350008F920E94B40A882D992D0E94DF002DB73C
:100360003EB7285F3F4F2DBF3EBF6DBE7EBEDF91C3
:10037000CF911F910F91FF90EF90DF90CF90BF90A2
:10038000AF909F908F907F906F905F904F90089567
:10039000CF92DF92EF92FF920F931F93CF93DF9351
:1003A000CDB7DEB78C01EDB6FEB6FC01878190E0DB
:1003B000880F991F01962DB73EB7281B390B2DBF0B
:1003C0003EBF8DB79EB701966C0183818F9382816A
:1003D0008F9389ED9BE59F938F93DF92CF920E943D
:1003E000B40A8C2D9D2D0E94DF000E94AB000F905F
:1003F0000F900F900F900F900F908823B9F0F80195
:10040000478150E0440F551F6DEA70E38581968166
:100410000E94450AF801258136818781E82FF0E0A6
:10042000EE0FFF1FE20FF31F108201C080E0EDBE50
:10043000FEBEDF91CF911F910F91FF90EF90DF9063
:10044000CF9008950F931F93CF93DF93CDB7DEB76F
:10045000E297CDBFDEBFFC01978184811F929F93FD
:100460001F928F9381818F9380818F9386EE9BE57E
:100470009F938F938E010F5F1F4F1F930F930E94C7
:10048000B40AC8010E94DF000E94AB00CDBFDEBFEE
:10049000E296CDBFDEBFDF91CF911F910F910895FE
:1004A0000F931F93CF93DF93CDB7DEB7E297CDBF06
:1004B000DEBFFC0121812F9380818F9388EF9BE524
:1004C0009F938F938E010F5F1F4F1F930F930E9477
:1004D000B40AC8010E94DF000E94AB000F900F9089
:1004E0000F900F900F900F90E296CDBFDEBFDF917F
:1004F000CF911F910F9108952F923F924F925F924B
:100500006F927F928F929F92AF92BF92CF92DF9223
:10051000EF92FF920F931F93CF93DF93CDB7DEB788
:10052000E297CDBFDEBF3C01DC0150962D903C90A0
:100530005197412C512C87C0F201EE0FFF1FE20DA5
:10054000F31DC080D180D3015696ED91FC91579751
:100550000280F381E02DC6010995F601868097801F
:1005600080E090E063C0880F991FF401E80FF91F45
:1005700000811181D3015696ED91FC91579704802B
:10058000F581E02DC8010995882309F470C0F601B2
:1005900081818F9380818F9380E09CE59F938F93DF
:1005A0009E012F5F3F4F79013F932F930E94B40A22
:1005B000C7010E94DF00D801ED90FC90B70188EAE6
:1005C00090E30E94540AF70101900020E9F7319767
:1005D000EE19FF09319640E150E060E070E08E0FC7
:1005E0009F1F0E942609F62EE72EF801628373836F
:1005F000878190E0880F991F01960E940508D80115
:1006000015968D939C931697EF92FF9211968C916D
:1006100011978F938C918F9388E09CE59F938F9394
:100620000E946E0AC5010196CDBFDEBFD6011496A9
:100630002D913C9115975C018217930708F493CF95
:10064000BFEF4B1A5B0AF301878590E04816590605
:100650000CF472CF0488F589E02D0280F381E02D3F
:10066000C301099589E39CE50E94DF0081E0E296E1
:10067000CDBFDEBFDF91CF911F910F91FF90EF9023
:10068000DF90CF90BF90AF909F908F907F906F90B2
:100690005F904F903F902F9008958EE39CE50E94CD
:1006A000DF000E94AB000895CF93DF93CDB7DEB794
:1006B0002A97CDBFDEBF78940E94670086EB9CE549
:1006C0000E94840A8AE08093333004E310E3D80167
:1006D0005C96ED91FC915D97C80109958AE0EEE981
:1006E000FBE5DE01119601900D928A95E1F7BAE2E1
:1006F0002CE28AE0B15020408040E1F70000D801B0
:100700005696ED91FC9157970084F185E02DBE013E
:100710006F5F7F4F8CE290E30995BAE22CE28AE0AA
:10072000B15020408040E1F70000D8015696ED918D
:10073000FC9157970084F185E02DBE016F5F7F4FDC
:100740008CE290E30995D8015696ED91FC9157976C
:100750000680F781E02D8CE290E30995FFCF80E0E1
:10076000089580E0089580E0089580E008C0E82FB3
:10077000F0E0E05FFB4F9081986090838F5F88305E
:10078000B0F380E008C0E82FF0E0E05DFB4F90811F
:10079000986090838F5F8830B0F380E008C0E82FC6
:1007A000F0E0E05BFB4F9081986090838F5F883032
:1007B000B0F380E008C0E82FF0E0E059FB4F9081F3
:1007C000986090838F5F8830B0F380E008C0E82F96
:1007D000F0E0E057FB4F9081986090838F5F883006
:1007E000B0F380E008C0E82FF0E0E055FB4F9081C7
:1007F000986090838F5F8830B0F3089580B18D7FCB
:1008000080B9E1E1F4E08081877F808381B18E7FD0
:1008100081B980B1816080B90E943D07089584B399
:100820008D7F84BBE1EBF4E08081877F808385B39B
:100830008E7F85BB84B3816084BB0E94CB07089503
:100840000E945406089581B1877F81B980B1886084
:1008500080B9E3E1F4E08081877F808380818F77B6
:1008600080838081887F808381B18B7F81B980B1D3
:10087000846080B9E2E1F4E08081877F80838081B9
:100880008F7780838081887F80830E9427060895E8
:100890000E94B5038DB188608DB98CB188608CB928
:1008A00085B38F7E85BB84B3806184BBE4EBF4E0C9
:1008B0008081877F808380818F7780838081887F1C
:1008C00080830E94B1030E94FE030E940F040E94D5
:1008D00020040E94B3030E9452060E9423040E9437
:1008E000AF030895E0EAF8E084818860848385811D
:1008F00081608583E8EAF1E380818E7F80831386BF
:100900008EE00895E8EAF1E380818E7F808313868C
:1009100080E00895E0EAF8E08481836084830E94A7
:1009200082040895E8EAF1E3808188608083818110
:1009300090E0880F991F81608093A70884E0089554
:100940000E94920408950E9492040895E8EAF1E357
:100950008081886080838181880F8093A70883E0ED
:1009600008950E94A6040895A8EAB1E38C91877FB8
:100970008C9382E01B968C931B975096ED91FC9183
:1009800051975C968D919C915D970995823019F0F5
:10099000833021F006C00E94A30408950E94B10490
:1009A00008950E948A040895E0EAF8E084818B7F2C
:1009B000848384E00895E0EAF8E084818B7F848377
:1009C00083E00895E0EAF8E0848184608483848190
:1009D000836084830E9482040895E0EAF8E08481C1
:1009E0008460848388E008958091A50884FF19C0FD
:1009F000A8EAB1E35296ED91FC9153975E968D91E2
:100A00009C915F970995823019F0833021F006C0E0
:100A10000E94A30408950E94B10408950E948A04CC
:100A20000895E8EAF1E38081877F8083A281B38122
:100A3000CD010196828393838C918093A808848151
:100A40009581019784839583892B11F083E0089524
:100A500085E00895CF93DF93E8EAF1E38081877F13
:100A6000808384819581019731F4E0EAF8E0848104
:100A70008460848305C0E0EAF8E084818B7F84830E
:100A8000E8EAF1E384819581019784839583892B3A
:100A9000A9F0DF01C281D381E0EAF8E08085888394
:100AA00012968D919C911397019612968D939C931B
:100AB000139784818260848384E026C0A8EAB1E32E
:100AC0001296ED91FC9113978091A808808312965D
:100AD0008D919C911397019612968D939C931397E9
:100AE0008C9184608C931C96ED91FC911D97589687
:100AF0008D919C91599709958250823018F40E94EB
:100B0000ED0402C00E94E204DF91CF91089580912C
:100B1000A50884FF19C0A8EAB1E35296ED91FC91B3
:100B200053975E968D919C915F970995823019F04D
:100B3000833021F006C00E94A30408950E94B104EE
:100B400008950E948A040895A8EAB1E38C91846014
:100B50008C931C96ED91FC911D9758968D919C91CC
:100B600059970995833039F0843041F0823049F447
:100B70000E94A30408950E94B10408950E94F40401
:100B800008950E948A040895E0EAF8E0858188606B
:100B90008583A8EAB1E382E01B968C931B971E968F
:100BA000ED91FC911F975A968D919C915B970995B9
:100BB000823019F0833021F006C00E94A30408950A
:100BC0000E94B10408950E9472040895E0EAF8E0DA
:100BD000848188608483858181608583E8EAF1E38C
:100BE00080818E7F808382E083878EE00895CF931B
:100BF000DF93E0EAF8E08581806C85838091A831FD
:100C000083FF07C08091A50884FF03C08FE0809315
:100C1000B2318091A50883FF03C080E18093B23197
:100C20008091A50882FF03C081E18093B231C8EAB8
:100C3000D1E3EA85F0E0EE0FFF1FEA5AFF4C019086
:100C4000F081E02D09958A87DF91CF910895E0EA40
:100C5000F8E08BE0868381EC838308951F920F92E6
:100C60000FB60F9211242F933F934F935F936F937F
:100C70007F938F939F93AF93BF93EF93FF930E94C4
:100C8000F705FF91EF91BF91AF919F918F917F9168
:100C90006F915F914F913F912F910F900FBE0F90E9
:100CA0001F90189580E0089580E0089590910008C5
:100CB000E091D734EF5F8091D634E81759F0E09394
:100CC000D734F0E0E852FB4C90838091D5348F5FAD
:100CD0008093D53408958091D233882381F0E091B8
:100CE000D333EF5FE093D333F0E0EB52FC4C8081E1
:100CF000809302088091D23381508093D2338091C7
:100D0000D233811105C0E0E0F8E085818F7D8583D5
:100D1000089590914008E091D132EF5F8091D032F8
:100D2000E81759F0E093D132F0E0EE52FD4C908399
:100D30008091CF328F5F8093CF3208958091CC31F4
:100D4000882381F0E091CD31EF5FE093CD31F0E089
:100D5000E153FE4C8081809342088091CC318150D8
:100D60008093CC318091CC31811105C0E0E4F8E072
:100D700085818F7D85830895613019F0623031F06F
:100D8000089580938E3090938F30089580938C30A7
:100D900090938D3008951F920F920FB60F921124E9
:100DA0002F933F934F935F936F937F938F939F9373
:100DB000AF93BF93EF93FF93E0918E30F0918F301C
:100DC000309709F00995FF91EF91BF91AF919F91F5
:100DD0008F917F916F915F914F913F912F910F90E4
:100DE0000FBE0F901F9018951F920F920FB60F9283
:100DF00011242F933F934F935F936F937F938F9320
:100E00009F93AF93BF93EF93FF93E0918C30F0915A
:100E10008D30309709F00995FF91EF91BF91AF9117
:100E20009F918F917F916F915F914F913F912F9102
:100E30000F900FBE0F901F9018958091D23381E0D4
:100E400008959091D4339F5F2091D233E92FF0E041
:100E5000EB52FC4C80839093D4330FB6F8940F92EE
:100E60008091D2338F5F8093D2330F900FBEE0E03A
:100E7000F8E08581806285830895E0E0F8E084E70A
:100E800090E08087918780E8858380EC868310924C
:100E9000D6341092D7341092D5341092D3331092A6
:100EA000D4331092D23380E00895809100080895E1
:100EB0001F920F920FB60F9211242F933F934F93CF
:100EC0005F936F937F938F939F93AF93BF93EF93B2
:100ED000FF93E0917C30F0917D30309709F00995D7
:100EE000FF91EF91BF91AF919F918F917F916F9102
:100EF0005F914F913F912F910F900FBE0F901F90D8
:100F000018951F920F920FB60F9211242F933F93B3
:100F10004F935F936F937F938F939F93AF93BF9301
:100F2000EF93FF93E0917A30F0917B30309709F0A6
:100F30000995FF91EF91BF91AF919F918F917F9113
:100F40006F915F914F913F912F910F900FBE0F9036
:100F50001F9018959091CE319F5F2091CC31E92F51
:100F6000F0E0E153FE4C80839093CE310FB6F894BD
:100F70000F928091CC318F5F8093CC310F900FBE58
:100F8000E0E4F8E085818062858308950E94AA07E5
:100F900080E090E00895E0E4F8E084E790E0808766
:100FA000918780E8858380EC868381E08387109237
:100FB000D0321092D1321092CF321092CD311092A5
:100FC000CE311092CC318EE790E38093DE35909352
:100FD000DF3580E008950E94F607A59F900DB49F2D
:100FE000900DA49F800D911D11240895A29FB00122
:100FF000B39FC001A39F700D811D1124911DB29F4D
:10100000700D811D1124911D08950F931F93CF938F
:10101000DF938230910510F482E090E0E091DA35C0
:10102000F091DB3520E030E0A0E0B0E0309719F13E
:10103000408151810281138148175907C8F08417F4
:10104000950769F4109731F012960C931297139646
:101050001C9327C00093DA351093DB3522C021158D
:10106000310519F04217530718F49A01BD01EF0139
:10107000DF01F801DBCF21153105F9F0281B390B11
:101080002430310580F48A819B816115710521F03E
:10109000FB018283938304C08093DA359093DB3520
:1010A000FE01329644C0FE01E20FF31F819391933B
:1010B00022503109288339833AC02091D8353091A4
:1010C000D935232B41F42091023030910330209305
:1010D000D8353093D9352091003030910130211529
:1010E000310541F42DB73EB74091043050910530A1
:1010F000241B350BE091D835F091D935E217F30771
:10110000A0F42E1B3F0B2817390778F0AC014E5F77
:101110005F4F2417350748F04E0F5F1F4093D835B7
:101120005093D9358193919302C0E0E0F0E0CF0174
:10113000DF91CF911F910F910895CF93DF93009787
:1011400009F481C0FC01329712821382A091DA3532
:10115000B091DB35109781F420813181820F931F8C
:101160002091D8353091D9352817390751F5E093BA
:10117000D835F093D93567C0ED0120E030E0CE17C7
:10118000DF0740F44A815B819E0141155105F1F072
:10119000EA01F5CFC283D38340815181840F951F2B
:1011A000C817D90759F488819981840F951F029631
:1011B000808391838A819B8182839383211531056A
:1011C00029F4E093DA35F093DB353DC0E901EA8399
:1011D000FB8349915991C40FD51FEC17FD0761F4AA
:1011E00080819181840F951F0296E90188839983FC
:1011F000828193818A839B83E0E0F0E012968D9157
:101200009C911397009719F0FD01DC01F7CF8D91A8
:101210009C9111979D012E5F3F4F820F931F20914C
:10122000D8353091D9352817390769F4309729F422
:101230001092DA351092DB3502C012821382A0932D
:10124000D835B093D935DF91CF910895A0E0B0E0C3
:10125000ECE2F9E00C949D0D5C016B017A016115E3
:10126000710519F0FB0180839183E114F10429F0E9
:10127000C7010297839708F0E5C0E5012196F501C3
:101280001081812F90E00E943C0A892B11F05E01B1
:10129000F4CF1D3229F42196F501118101E007C038
:1012A0001B3221F4E5012296F501118100E0E114E1
:1012B000F10409F1F0E1EF16F10429F43FC010E365
:1012C000E114F10421F128E0E216F10401F154F4F3
:1012D000E2E0EE16F10421F5812C912CA12CB0E472
:1012E000BB2E3EC0FAE0EF16F10439F020E1E21621
:1012F000F104B1F430C0103319F1FAE0EF2EF12C03
:10130000ACEC8A2E982CA82CACE0BA2E29C078E040
:10131000E72EF12C812C912CA12CE0E1BE2E20C0D7
:1013200060E070E080E090E897010F2C000C440B27
:10133000550B0E947A0D49015A0112C0103359F41D
:1013400088818F7D883509F0BACF19812296026095
:1013500080E1E82EF12C812C912CA12C68E0B62E96
:1013600040E060E070E0CB0127010F2C000C660824
:101370007708FE0150ED352E310E29E0231570F46B
:101380002FEB210F2A3118F439EC332E06C02FE948
:10139000210F2A3118F529EA322E310E232D30E0A3
:1013A0002E153F05DCF447FD16C086169706A806E5
:1013B000B90670F0A30192010E946A0D630D711DC0
:1013C000811D911D61307105810520E8920710F0A3
:1013D0004FEF01C041E021961081CBCF202F21702B
:1013E000C114D10471F0442329F02197F601C08380
:1013F000D18307C001FF19C02297F601C083D183B2
:1014000014C047FF12C0222329F060E070E080E0A2
:1014100090E804C06FEF7FEF8FEF9FE722E230E0AC
:101420002093E2353093E33509C0222381F0909573
:101430008095709561957F4F8F4F9F4F462F372F27
:10144000282F12C040E030E020E090E00DC097FF70
:10145000F5CF82E290E08093E2359093E3356FEF31
:101460007FEF8FEF9FE7EACF642F732F822FCDB7E7
:10147000DEB7E1E10C94B60D91110C94B70C8032FB
:1014800019F089508550C8F70895FB01DC014150DF
:10149000504048F001900D920020C9F701C01D9204
:1014A00041505040E0F70895FB0151915523A9F0B8
:1014B000BF01DC014D9145174111E1F759F4CD0110
:1014C0000190002049F04D9140154111C9F3FB01F5
:1014D0004111EFCF81E090E001970895A0E0B0E0E6
:1014E000E4E7FAE00C94AC0DAE014B5F5F4FFA01FC
:1014F00061917191AF018091DE359091DF350E944D
:10150000D60AE2E00C94C50D0F931F93CF93DF939F
:10151000E091DE35F091DF35238121FF1BC08C0186
:10152000D0E0C0E0F80181918F016091DE357091CB
:10153000DF35DB011896ED91FC911997882331F086
:101540000995892B79F3DFEFCFEFECCF8AE009958E
:10155000892B19F08FEF9FEF02C08D2F9C2FDF9109
:10156000CF911F910F910895AEE0B0E0EAEBFAE061
:101570000C94AA0D0D891E8986E08C8309831A8339
:101580008FEF9FE78D839E83AE01475E5F4F6F892C
:10159000788DCE0101960E94D60AEF81F885E00F82
:1015A000F11F10822E96E4E00C94C30DABE0B0E086
:1015B000ECEDFAE00C949C0D6C017B018A01FC01BE
:1015C00016821782838181FFCCC1CE0101963C0136
:1015D000F6019381F70193FD859193FF81917F013E
:1015E000882309F4BAC1853239F493FD859193FFBC
:1015F00081917F01853229F4B60190E00E94D00CE0
:10160000E7CF912C212C312CFFE1F315D8F08B3250
:1016100079F038F4803279F08332A1F4232D2061FF
:101620001DC08D3261F0803369F4232D216016C016
:10163000832D8260382EE32DE4603E2E2AC0F32DE8
:10164000F8601DC037FC2DC020ED280F2A3040F077
:101650008E32B9F436FC81C1232D2064322E19C09C
:1016600036FE06C08AE0989E200D1124922E11C0ED
:10167000EAE02E9E200D1124222EF32DF0623F2E43
:1016800008C08C3621F4832D8068382E02C088363D
:1016900041F4F70193FD859193FF81917F018111C1
:1016A000B3CF982F9F7D9554933028F40C5F1F4F34
:1016B0009FE399830DC0833631F0833771F0833512
:1016C00009F059C021C0F801808189830E5F1F4F46
:1016D00088248394912C530113C02801F2E04F0E0B
:1016E000511CF801A080B18036FE03C0692D70E066
:1016F00002C06FEF7FEFC5010E94C50C4C01820153
:10170000F32DFF773F2E16C0280122E0420E511C18
:10171000F801A080B18036FE03C0692D70E002C0E0
:101720006FEF7FEFC5010E94BA0C4C01F32DF068FA
:101730003F2E820133FC1BC0822D90E08816990653
:10174000B0F4B60180E290E00E94D00C2A94F4CF6D
:10175000F50137FC859137FE81915F01B60190E07C
:101760000E94D00C21102A9421E0821A9108811441
:10177000910471F7E8C0843611F0893641F5F8011B
:1017800037FE07C060817181828193810C5F1F4F9A
:1017900008C060817181072E000C880B990B0E5FC9
:1017A0001F4FF32DFF763F2E97FF09C09095809530
:1017B000709561957F4F8F4F9F4FF0683F2E2AE0C5
:1017C00030E0A3010E940C0D882E861845C0853795
:1017D00031F4232D2F7EB22E2AE030E025C0932D48
:1017E000997FB92E8F36C1F018F4883579F0B5C0DD
:1017F000803719F0883721F0B0C0E92FE061BE2EA4
:10180000B4FE0DC0FB2DF460BF2E09C034FE0AC02B
:10181000292F2660B22E06C028E030E005C020E166
:1018200030E002C020E132E0F801B7FE07C060817D
:101830007181828193810C5F1F4F06C0608171812D
:1018400080E090E00E5F1F4FA3010E940C0D882ED8
:101850008618FB2DFF773F2E36FE0DC0232D2E7FE1
:10186000A22E891458F434FE0BC032FC09C0832D1B
:101870008E7EA82E05C0B82CA32C03C0B82C01C0A6
:10188000B92CA4FE0FC0FE01E80DF11D808180334C
:1018900021F49A2D997EA92E09C0A2FE06C0B39408
:1018A000B39404C08A2D867809F0B394A3FC11C0C8
:1018B000A0FE06C0B21488F4280C922C9B180EC00F
:1018C000B21460F4B60180E290E00E94D00CB394B0
:1018D000F7CFB21418F42B1802C0982C212CA4FEB8
:1018E00010C0B60180E390E00E94D00CA2FE17C0A9
:1018F000A1FC03C088E790E002C088E590E0B60153
:101900000CC08A2D867859F0A1FE02C08BE201C07E
:1019100080E2A7FC8DE2B60190E00E94D00C891411
:1019200038F4B60180E390E00E94D00C9A94F7CF8F
:101930008A94F301E80DF11D8081B60190E00E94C8
:10194000D00C8110F5CF222009F442CEB60180E2FE
:1019500090E00E94D00C2A94F6CFF6018681978100
:1019600002C08FEF9FEF2B96E2E10C94B50D992703
:1019700088270895FC010590615070400110D8F748
:10198000809590958E0F9F1F0895FC0161507040C7
:1019900001900110D8F7809590958E0F9F1F0895A4
:1019A0000F931F93CF93DF93FB01238121FD03C08E
:1019B0008FEF9FEF2CC022FF16C0468157812481F4
:1019C00035814217530744F4A081B1819D012F5FF7
:1019D0003F4F208331838C93268137812F5F3F4F88
:1019E0002683378314C08B01EC01FB010084F18551
:1019F000E02D0995892BE1F6D80116968D919C91E1
:101A00001797019616968D939C931797CE01DF91A9
:101A1000CF911F910F910895FA01AA27283051F113
:101A2000203181F1E8946F936E7F6E5F7F4F8F4F0F
:101A30009F4FAF4FB1E03ED0B4E03CD0670F781F6E
:101A4000891F9A1FA11D680F791F8A1F911DA11D53
:101A50006A0F711D811D911DA11D20D009F468948C
:101A60003F912AE0269F11243019305D3193DEF634
:101A7000CF010895462F4770405D4193B3E00FD0EA
:101A8000C9F7F6CF462F4F70405D4A3318F0495DD5
:101A900031FD4052419302D0A9F7EACFB4E0A695B8
:101AA0009795879577956795BA95C9F700976105DA
:101AB000710508959B01AC010A2E06945795479530
:101AC00037952795BA95C9F7620F731F841F951F25
:101AD000A01D0895DB018F939F930E94EB07BF9198
:101AE000AF91A29F800D911DA39F900DB29F900D6D
:101AF00011240895A1E21A2EAA1BBB1BFD010DC0E3
:101B0000AA1FBB1FEE1FFF1FA217B307E407F507AD
:101B100020F0A21BB30BE40BF50B661F771F881F89
:101B2000991F1A9469F760957095809590959B011F
:101B3000AC01BD01CF0108952F923F924F925F9269
:101B40006F927F928F929F92AF92BF92CF92DF92CD
:101B5000EF92FF920F931F93CF93DF93CDB7DEB732
:101B6000CA1BDB0BCDBFDEBF09942A8839884888A1
:101B70005F846E847D848C849B84AA84B984C884A9
:101B8000DF80EE80FD800C811B81AA81B981CE0FA0
:0E1B9000D11DCDBFDEBFED010895F894FFCF4B
:101B9E0023334455AAFFDDAA33AA0D0A496E697490
:101BAE0069616C697A696E6720726E343837780DA8
:101BBE000045727200257300253032580053485785
:101BCE002C253034582C25730D0A005348323352CD
:101BDE002C253034580D0A0050432C25732C2530FB
:101BEE0032582C253032580D0A0050532C25730DC7
:101BFE000A004C532C25730D0A00526567697374E5
:101C0E00657265642063686172616374657269737D
:101C1E007469632025732C20776974682068616E5F
:101C2E00646C6520253034580D0A004C530D0A00A3
:101C3E0053462C320D0A003241393831463443377F
:101C4E0034343834314638383345383842463937EB
:101C5E00464534363338310044304135313244361E
:101C6E0030443831343543324245444436323145BE
:101C7E0046314342424546420037333635374244B9
:101C8E0038324430343443333141333145353444C2
:101C9E0045314441423636464600726E343837304E
:101CAE0000313233343536002D2D2D2D2D2D2D2D89
:101CBE002D4D41494E2D2D2D2D2D2D2D2D2D2D2DD5
:071CCE002D2D2D2D2D0D0021
:101CD5000000E43520002C3024301C307C025002FA
:101CE5002202C80143016A00C6004D03455C00009D
:101CF50002000630665C000002000001875C0000FF
:101D0500020000010000A85C0004AF5C0000022096
:101D1500000300010A30000016300C30903000003E
:101D25006F000000000082049204A604F4042A0552
:101D35008705A304B104A0048A04D404DB04E204E7
:101D4500ED047204B404C405E6059E068906000088
:101D5500000200000000C607000000006B065606E2
:00000001FF
