S0120000626C655F73656E736F722E73726563E6
S11300000C944E000C946B000C946B000C946B00DD
S11300100C946B000C946B000C946B000C946B00B0
S11300200C946B000C946B000C946B000C946B00A0
S11300300C946B000C946B000C946B000C944F08A4
S11300400C946B000C94EC080C9415090C946B0044
S11300500C946B000C946B000C946B000C946B0070
S11300600C946B000C946B000C946B000C946B0060
S11300700C946B000C946B000C946B000C9488092A
S11300800C94B1090C946B000C946B000C946B00F1
S11300906364696E6F70737578585B0011241FBEBA
S11300A0CFEFCDBFDFE3DEBF10E3A0E0B0E3ECE1D0
S11300B0F6E202C005900D92AE38B107D9F728E3F5
S11300C0AEE8B0E301C01D92A835B207E1F70E9483
S11300D057050C940E120C9400000E9469060895B2
S11300E08DB1877F8DB981E0089510921E331092EF
S11300F01F3380E091E0E0E2F3E3DF019C011D9215
S113010021503040E1F708956AE274E680E293E317
S11301100E94660B892B11F080E0089581E0089518
S11301200E9475008DB1877F8DB98DE890E20197AB
S1130130F1F700008DB188608DB99FE32DE083E075
S1130140915020408040E1F700C000000E948400EC
S11301500895CF93DF9380919C3290919D328E3796
S11301609105E8F4C0919C32D0919D320E941B0A03
S1130170C256DD4C8883E0919C32F0919D32E25668
S1130180FD4C808190E00E94960B80919C3290916E
S11301909D32019680939C3290939D3202C00E94BE
S11301A01B0ADF91CF910895CF93DF93C0911E3343
S11301B0D0911F330E947609C05EDC4C8883809105
S11301C01E3390911F330196992780931E33909389
S11301D01F33DF91CF910895FF920F931F93CF9315
S11301E0DF938C010E94750084E20E94420984E23C
S11301F00E94420984E20E9442092AE684E091E0D6
S1130200215080409040E1F700C0F12C08C00E94CA
S11302103E09882321F088810E944209F394E80171
S1130220CF0DD11D88818111F2CF2FE38DE093E0B2
S1130230215080409040E1F700C000008DE20E9410
S113024042098DE20E9442098DE20E9442098DE03A
S11302500E9442098AE00E9442092AE684E091E071
S1130260215080409040E1F700C01F930F93CEE2ED
S1130270D4E6DF93CF930E94800B80E293E39F93B5
S11302808F93DF93CF930E94800B8DB79EB7089610
S11302908DBF9EBFDF91CF911F910F91FF90089565
S11302A081E394E60E94EC000E948400089588E3B0
S11302B094E60E94EC0008958CE394E60E94EC001E
S11302C0089580E494E60E94EC00089586E494E6A0
S11302D00E94EC000895FC0121812F9380818F936B
S11302E08CE494E69F938F938CE991E39F938F938F
S11302F00E94CD0B8CE991E30E94EC000E948400E3
S11303000F900F900F900F900F900F900895FC0195
S1130310958184811F929F931F928F9381818F93E4
S113032080818F9384E594E69F938F938CE991E386
S11303309F938F930E94CD0B8CE991E30E94EC0074
S11303400E9484002DB73EB7265F3F4F2DBF3EBFAE
S113035008952F923F924F925F926F927F928F9265
S11303609F92AF92BF92CF92DF92EF92FF920F9340
S11303701F93CF93DF93CDB7DEB7E297CDBFDEBF38
S11303802C01DC01ED91FC9122883388612C712CC5
S11303906AC0F301EE0FFF1FE20DF31DC080D18090
S11303A0C6010E946B01F6018680978080E090E090
S11303B04DC0880F991FF401E80FF91F00811181C6
S11303C0C8010E948701882309F465C0D6011196EB
S11303D08C9111978F938C918F9386E694E69F93DB
S11303E08F93FE0131967F01FF93EF930E94CD0B13
S11303F0C7010E94EC00D801ED90FC90B70180E2A7
S113040093E30E94660BF70101900020E9F731970E
S1130410EE19FF09319640E150E060E070E08E0F84
S11304209F1F0E94380AF801628373837F936F933E
S113043081818F9380818F938EE694E69F938F932F
S11304400E94800BC5010196CDBFDEBFD601149674
S11304502D913C9115975C018217930708F4A9CF5D
S1130460BFEF6B1A7B0AD201ED91FC911197818940
S113047090E0681679060CF48CCF1296ED91FC91FD
S113048013970280F381E02DC20109958FE994E668
S11304900E94EC0081E0E296CDBFDEBFDF91CF91F8
S11304A01F910F91FF90EF90DF90CF90BF90AF908E
S11304B09F908F907F906F905F904F903F902F9080
S11304C00895EF92FF920F931F93CF93DF937B01D5
S11304D0C0E0D0E00CE910E317C0F701EC0FFD1FFA
S11304E080811F928F9384EA94E69F938F931F9346
S11304F00F930E94CD0B080F191F21960F900F9098
S11305000F900F900F900F90C630D10534F38CE903
S113051090E39F938F9389EA94E69F938F938CE95A
S113052091E39F938F930E94CD0B8CE991E30E94FA
S1130530EC000F900F900F900F900F900F90DF91A1
S1130540CF911F910F91FF90EF9008957F936F9338
S113055080EB94E69F938F938CE991E39F938F9321
S11305600E94CD0B8CE991E30E94EC000F900F9058
S11305700F900F900F900F9008957F936F9388EBD7
S113058094E69F938F938CE991E39F938F930E94BA
S1130590CD0B8CE991E30E94EC000F900F900F902B
S11305A00F900F900F9008950F931F931F930F9325
S11305B03F932F935F934F937F936F9383EC94E6D2
S11305C09F938F938CE991E39F938F930E94CD0B1C
S11305D08CE991E30E94EC008DB79EB70C968DBF19
S11305E09EBF1F910F9108950F931F93CF93DF9395
S11305F0142F052F1F926F938CED94E69F938F9386
S1130600CCE9D1E3DF93CF930E94CD0BCE010E94BE
S1130610EC000F931F9384EE94E69F938F93DF93E4
S1130620CF930E94CD0BCE010E94EC008DB79EB7F4
S11306300C968DBF9EBFDF91CF911F910F910895AE
S11306400F931F93CF93DF93EC01E881F9816081CD
S113065071816115710511F00E946102E881F981CF
S1130660628173816115710519F0CE010E94A602A1
S1130670E881F981458156816481CE010E94F402AA
S1130680E881F98167817085CE010E94BD02E8810D
S1130690F9810785108925853685438554856185CB
S11306A07285CE010E94D402EA81FB810280F3812B
S11306B0E02DCE010995DF91CF911F910F910895FF
S11306C0CF93DF93EC018CEE94E60E949D0B61E0E6
S11306D084ED90E00E94DD0861E089EA90E00E94E8
S11306E07909EA81FB810280F381E02DCE0109952D
S11306F0EA81FB810480F581E02DCE010995CE01CC
S11307000E942003CE010E94A9010E9475002AE6DE
S113071084E091E0215080409040E1F700C0DF91F7
S1130720CF910895CF92DF92EF92FF920F931F9390
S1130730CF93DF93E62E6A011F928F9383E095E6B1
S11307409F938F938CE991E39F938F930E94CD0B9A
S11307508CE991E30E94EC000E9484000F900F90BA
S11307600F900F900F900F90882349F1F12CA7015F
S1130770440F551F65E273E38CE991E30E94570B24
S1130780C0E0D0E00CE911E316C0C6018C0F9D1F38
S11307909F938F938EE095E69F938F931F930F9370
S11307A00E94EF0B0E5F1F4F21960F900F900F903A
S11307B00F900F900F90CE15DF053CF302C080E040
S11307C000C0DF91CF911F910F91FF90EF90DF90C8
S11307D0CF900895AB01FC01658182810E94920350
S11307E00895FC01AB01828165818F5F0E949203B1
S11307F00895CF92DF92EF92FF920F931F93CF93BE
S1130800DF93C82ED62E7A01C0E0D0E00CE910E3C5
S113081017C0F701EC0FFD1F80811F928F9384EAAC
S113082094E69F938F931F930F930E94CD0B080F11
S1130830191F21960F900F900F900F900F900F900B
S11308408D2D90E0C817D90724F38CE990E39F938A
S11308508F931F92CF9284E195E69F938F938CE9B7
S113086091E39F938F930E94CD0B8CE991E30E94B7
S1130870EC008DB79EB708968DBF9EBFDF91CF91D8
S11308801F910F91FF90EF90DF90CF900895AB01EF
S1130890FC01658182810E94F9030895FC01AB018A
S11308A0828165818F5F0E94F903089580E293E35A
S11308B00895EF92FF920F931F93CF93DF93EC0170
S11308C008851985F801E080F180E114F10459F0FC
S11308D00E94560462E275E60E94660B892B19F0A9
S11308E0F701099554C0F801E480F580E114F1049E
S11308F059F00E9456046CE275E60E94660B892B3F
S113090019F0F701099543C0F801E280F380E1147E
S1130910F10459F00E94560466E375E60E94660BE2
S1130920892B19F0F701099532C0F801E284F384A8
S1130930E114F10459F00E94560463E475E60E9440
S1130940660B892B19F0F701099521C0F801E4849D
S1130950F584E114F10459F00E94560468E475E644
S11309600E94660B892B19F0F701099510C0F80154
S1130970068117810115110551F00E9456046DE49A
S113098075E60E94660B892B11F0F8010995E8853C
S1130990F9850084F185E02D309739F080911E337C
S11309A090911F33892B09F009950E947500DF91FE
S11309B0CF911F910F91FF90EF900895CF93DF9304
S11309C0EC0180919C3290919D32892B39F1E09118
S11309D09C32F0919D32E356FD4C80818D30F1F4D0
S11309E0E0919C32F0919D32E256FD4C8AE0808386
S11309F0E0919C32F0919D32E156FD4C10828EE9DB
S1130A0092E30E94EC0080E8EEE9F2E3DF011D923C
S1130A108A95E9F710929C3210929D32BAE624E04E
S1130A2081E0B15020408040E1F700C00E945604AC
S1130A309F938F938EE294E69F938F930E94800BF3
S1130A40CE010E9459040F900F900F900F90DF91E8
S1130A50CF91089587EC95E69F938F930E94800B26
S1130A600F900F90089584ED95E69F938F930E94C5
S1130A70800B0F900F90089583EE95E69F938F93CC
S1130A800E94800B0F900F90089588EF95E69F9336
S1130A908F930E94800B0F900F9008958EE096E63E
S1130AA09F938F930E94800B0F900F900895CF9384
S1130AB0DF93CDB7DEB72A97CDBFDEBF78940E940F
S1130AC06D0000E310E3D8011896ED91FC9119979D
S1130AD08AE295E0808391831896ED91FC911997B1
S1130AE08CE395E0848395831896ED91FC91199796
S1130AF083E395E0828393831896ED91FC91199793
S1130B008EE495E0808791871896ED91FC91199772
S1130B1085E495E0828793878AE080932F301A9644
S1130B20ED91FC911B97C80109958AE0E0E2F4E697
S1130B30DE01119601900D928A95E1F7D801149681
S1130B40ED91FC9115970680F781E02DBE016F5F52
S1130B507F4F8AE290E30995D8011496ED91FC91B8
S1130B6015970680F781E02DBE016F5F7F4F8AE203
S1130B7090E30995D8011496ED91FC9115970480A2
S1130B80F581E02DBE016F5F7F4F8AE290E3099506
S1130B90E0913E30F0913F3080E390E30995F8CF47
S1130BA080E0089580E0089580E0089580E008C022
S1130BB0E82FF0E0E05FFB4F9081986090838F5FB7
S1130BC08830B0F380E008C0E82FF0E0E05DFB4F30
S1130BD09081986090838F5F8830B0F380E008C084
S1130BE0E82FF0E0E05BFB4F9081986090838F5F8B
S1130BF08830B0F380E008C0E82FF0E0E059FB4F04
S1130C009081986090838F5F8830B0F380E008C053
S1130C10E82FF0E0E057FB4F9081986090838F5F5E
S1130C208830B0F380E008C0E82FF0E0E055FB4FD7
S1130C309081986090838F5F8830B0F3089580B17D
S1130C408D7F80B9E1E1F4E08081877F808381B189
S1130C508E7F81B980B1816080B90E945E09089558
S1130C6084B38D7F84BBE1EBF4E08081877F808354
S1130C7085B38E7F85BB84B3816084BB0E94FB09EE
S1130C8008950E947508089581B1877F81B980B164
S1130C90886080B9E3E1F4E08081877F808380818C
S1130CA08F7780838081887F808381B18B7F81B9B6
S1130CB080B1846080B9E2E1F4E08081877F808341
S1130CC080818F7780838081887F80830E94480819
S1130CD008950E94D6058DB188608DB98CB1886065
S1130CE08CB985B38F7E85BB84B3806184BBE4EB10
S1130CF0F4E08081877F808380818F778083808107
S1130D00887F80830E94D2050E941F060E943006BD
S1130D100E9441060E94D4050E9473080E94440662
S1130D200E94D0050895E0EAF8E084818860848315
S1130D30858181608583E0E2F4E380818E7F808316
S1130D4013868EE00895E0E2F4E380818E7F808351
S1130D50138680E00895E0EAF8E084818360848368
S1130D600E94A3060895E0E2F4E380818860808312
S1130D70818190E0880F991F81608093A70884E0A7
S1130D8008950E94B30608950E94B3060895E0E210
S1130D90F4E38081886080838181880F8093A70831
S1130DA083E008950E94C7060895A0E2B4E38C91FD
S1130DB0877F8C9382E01B968C931B975096ED91C2
S1130DC0FC9151975C968D919C915D970995823029
S1130DD019F0833021F006C00E94C40608950E94D1
S1130DE0D20608950E94AB060895E0EAF8E08481F3
S1130DF08B7F848384E00895E0EAF8E084818B7F2C
S1130E00848383E00895E0EAF8E084818460848345
S1130E108481836084830E94A3060895E0EAF8E055
S1130E2084818460848388E008958091A50884FF88
S1130E3019C0A0E2B4E35296ED91FC9153975E96EB
S1130E408D919C915F970995823019F0833021F040
S1130E5006C00E94C40608950E94D20608950E9406
S1130E60AB060895E0E2F4E38081877F8083A2816A
S1130E70B381CD010196828393838C918093A808DA
S1130E8084819581019784839583892B11F083E074
S1130E90089585E00895CF93DF93E0E2F4E3808141
S1130EA0877F808384819581019731F4E0EAF8E0BB
S1130EB084818460848305C0E0EAF8E084818B7FC8
S1130EC08483E0E2F4E384819581019784839583AC
S1130ED0892BA9F0DF01C281D381E0EAF8E08085A3
S1130EE0888312968D919C911397019612968D93F7
S1130EF09C93139784818260848384E026C0A0E25B
S1130F00B4E31296ED91FC9113978091A808808325
S1130F1012968D919C911397019612968D939C93A2
S1130F2013978C9184608C931C96ED91FC911D9782
S1130F3058968D919C91599709958250823018F456
S1130F400E940E0702C00E940307DF91CF9108950B
S1130F508091A50884FF19C0A0E2B4E35296ED91F4
S1130F60FC9153975E968D919C915F970995823081
S1130F7019F0833021F006C00E94C40608950E942F
S1130F80D20608950E94AB060895A0E2B4E38C91C2
S1130F9084608C931C96ED91FC911D9758968D91CD
S1130FA09C9159970995833039F0843041F082300F
S1130FB049F40E94C40608950E94D20608950E942E
S1130FC0150708950E94AB060895E0EAF8E08581CC
S1130FD088608583A0E2B4E382E01B968C931B9720
S1130FE01E96ED91FC911F975A968D919C915B975B
S1130FF00995823019F0833021F006C00E94C4069E
S113100008950E94D20608950E9493060895E0EA86
S1131010F8E0848188608483858181608583E0E24F
S1131020F4E380818E7F808382E083878EE008955D
S1131030CF93DF93E0EAF8E08581806C858380912B
S1131040203483FF07C08091A50884FF03C08FE08C
S113105080932A348091A50883FF03C080E18093A4
S11310602A348091A50882FF03C081E180932A3449
S1131070C0E2D4E3EA85F0E0EE0FFF1FEC5AFF4C28
S11310800190F081E02D09958A87DF91CF91089531
S1131090E0EAF8E08BE0868381EC838308951F9275
S11310A00F920FB60F9211242F933F934F935F9398
S11310B06F937F938F939F93AF93BF93EF93FF931C
S11310C00E941808FF91EF91BF91AF919F918F916A
S11310D07F916F915F914F913F912F910F900FBE30
S11310E00F901F90189580E0089580E008959091E6
S11310F00008E0914F37EF5F80914E37E81759F0C1
S1131100E0934F37F0E0E05BF84C908380914D37EB
S11311108F5F80934D37089580914A36882381F0FC
S1131120E0914B36EF5FE0934B36F0E0E35BF94C34
S113113080818093020880914A36815080934A3698
S113114080914A36811105C0E0E0F8E085818F7D09
S11311508583089590914008E0914935EF5F80912F
S11311604835E81759F0E0934935F0E0E65BFA4C6E
S11311709083809147358F5F8093473508958091A0
S11311804434882381F0E0914534EF5FE0934534A3
S1131190F0E0E95BFB4C8081809342088091443409
S11311A081508093443480914434811105C0E0E43B
S11311B0F8E085818F7D85830895613019F0623070
S11311C031F0089580938C3090938D3008958093FE
S11311D08A3090938B3008951F920F920FB60F921E
S11311E011242F933F934F935F936F937F938F9328
S11311F09F93AF93BF93EF93FF93E0918C30F09163
S11312008D30309709F00995FF91EF91BF91AF911F
S11312109F918F917F916F915F914F913F912F910A
S11312200F900FBE0F901F9018951F920F920FB63C
S11312300F9211242F933F934F935F936F937F9358
S11312408F939F93AF93BF93EF93FF93E0918A3073
S1131250F0918B30309709F00995FF91EF91BF9190
S1131260AF919F918F917F916F915F914F913F913A
S11312702F910F900FBE0F901F90189580914A36B2
S113128081E0089590914C369F5F20914A36E92F72
S1131290F0E0E35BF94C808390934C360FB6F894FE
S11312A00F9280914A368F5F80934A360F900FBE1B
S11312B0E0E0F8E08581806285830895E0E0F8E06D
S11312C084E790E08087918780E8858380EC86833B
S11312D010924E3710924F3710924D3710924B3672
S11312E010924C3610924A3680E00895809100089E
S11312F00895613019F0623031F0089580937A30A6
S113130090937B300895809378309093793008954A
S11313101F920F920FB60F9211242F933F934F9366
S11313205F936F937F938F939F93AF93BF93EF9349
S1131330FF93E0917A30F0917B30309709F0099572
S1131340FF91EF91BF91AF919F918F917F916F9199
S11313505F914F913F912F910F900FBE0F901F906F
S113136018951F920F920FB60F9211242F933F934B
S11313704F935F936F937F938F939F93AF93BF9399
S1131380EF93FF93E0917830F0917930309709F042
S11313900995FF91EF91BF91AF919F918F917F91AB
S11313A06F915F914F913F912F910F900FBE0F90CE
S11313B01F901895909146349F5F20914434E92FF3
S11313C0F0E0E95BFB4C8083909346340FB6F894CD
S11313D00F92809144348F5F809344340F900FBEFA
S11313E0E0E4F8E085818062858308950E94DA094B
S11313F080E090E00895E0E4F8E084E790E08087FE
S1131400918780E8858380EC868381E083871092CE
S11314104835109249351092473510924534109250
S11314204634109244348CE790E38093523890937E
S1131430533880E008958091400808950E94290A55
S1131440A59F900DB49F900DA49F800D911D112414
S11314500895A29FB001B39FC001A39F700D811D89
S11314601124911DB29F700D811D1124911D0895A9
S1131470A0E0B0E0EEE3FAE00C94DE115C016B0155
S11314807A016115710519F0FB0180839183E114E0
S1131490F10429F0C7010297839708F0E5C0E5013C
S11314A02196F5011081812F90E00E944E0B892B2B
S11314B011F05E01F4CF1D3229F42196F50111815A
S11314C001E007C01B3221F4E5012296F5011181E8
S11314D000E0E114F10409F1F0E1EF16F10429F45C
S11314E03FC010E3E114F10421F128E0E216F10415
S11314F001F154F4E2E0EE16F10421F5812C912C73
S1131500A12CB0E4BB2E3EC0FAE0EF16F10439F092
S113151020E1E216F104B1F430C0103319F1FAE01D
S1131520EF2EF12CACEC8A2E982CA82CACE0BA2E21
S113153029C078E0E72EF12C812C912CA12CE0E13C
S1131540BE2E20C060E070E080E090E897010F2C90
S1131550000C440B550B0E94BB1149015A0112C0E7
S1131560103359F488818F7D883509F0BACF1981F9
S11315702296026080E1E82EF12C812C912CA12C82
S113158068E0B62E40E060E070E0CB0127010F2C4C
S1131590000C66087708FE0150ED352E310E29E067
S11315A0231570F42FEB210F2A3118F439EC332E64
S11315B006C02FE9210F2A3118F529EA322E310EFF
S11315C0232D30E02E153F05DCF447FD16C08616AA
S11315D09706A806B90670F0A30192010E94AB1108
S11315E0630D711D811D911D61307105810520E818
S11315F0920710F04FEF01C041E021961081CBCF4C
S1131600202F2170C114D10471F0442329F02197B3
S1131610F601C083D18307C001FF19C02297F601E8
S1131620C083D18314C047FF12C0222329F060E095
S113163070E080E090E804C06FEF7FEF8FEF9FE7EA
S113164022E230E0209356383093573809C02223E1
S113165081F090958095709561957F4F8F4F9F4F46
S1131660462F372F282F12C040E030E020E090E0D2
S11316700DC097FFF5CF82E290E0809356389093A7
S113168057386FEF7FEF8FEF9FE7EACF642F732F09
S1131690822FCDB7DEB7E1E10C94F71191110C94D0
S11316A09610803219F089508550C8F70895FB01CF
S11316B0DC014150504048F001900D920020C9F7E0
S11316C001C01D9241505040E0F70895FB01519133
S11316D05523A9F0BF01DC014D9145174111E1F7F4
S11316E059F4CD010190002049F04D91401541116C
S11316F0C9F3FB014111EFCF81E090E00197089518
S1131700A0E0B0E0E6E8FBE00C94ED11AE014B5F25
S11317105F4FFA0161917191AF01809152389091BC
S113172053380E94080CE2E00C940612609152387F
S1131730709153380E94F81008950F931F93CF931C
S1131740DF93E0915238F0915338238121FF1BC07D
S11317508C01D0E0C0E0F80181918F016091523892
S113176070915338DB011896ED91FC9119978823F9
S113177031F00995892B79F3DFEFCFEFECCF8AE0D5
S11317800995892B19F08FEF9FEF02C08D2F9C2FA5
S1131790DF91CF911F910F910895AEE0B0E0E3ED9A
S11317A0FBE00C94EB110D891E8986E08C83098380
S11317B01A838FEF9FE78D839E83AE01475E5F4F51
S11317C06F89788DCE0101960E94080CEF81F8850F
S11317D0E00FF11F10822E96E4E00C940412AEE0A8
S11317E0B0E0E5EFFBE00C94ED1185E08C838B8990
S11317F09C8989839A83AE01495E5F4F6D897E8996
S1131800CE0101960E94850F2E96E2E00C940612FA
S1131810ABE0B0E0EEE0FCE00C94DD116C017B0188
S11318208A01FC0116821782838181FFCCC1CE011B
S113183001963C01F6019381F70193FD859193FF95
S113184081917F01882309F4BAC1853239F493FD6B
S1131850859193FF81917F01853229F4B60190E04F
S11318600E94F810E7CF912C212C312CFFE1F315C5
S1131870D8F08B3279F038F4803279F08332A1F4E5
S1131880232D20611DC08D3261F0803369F4232D36
S1131890216016C0832D8260382EE32DE4603E2E35
S11318A02AC0F32DF8601DC037FC2DC020ED280F91
S11318B02A3040F08E32B9F436FC81C1232D2064E5
S11318C0322E19C036FE06C08AE0989E200D1124DF
S11318D0922E11C0EAE02E9E200D1124222EF32D0B
S11318E0F0623F2E08C08C3621F4832D8068382E98
S11318F002C0883641F4F70193FD859193FF8191ED
S11319007F018111B3CF982F9F7D9554933028F494
S11319100C5F1F4F9FE399830DC0833631F08337EB
S113192071F0833509F059C021C0F80180818983A1
S11319300E5F1F4F88248394912C530113C02801F8
S1131940F2E04F0E511CF801A080B18036FE03C0B6
S1131950692D70E002C06FEF7FEFC5010E94AF10E8
S11319604C018201F32DFF773F2E16C0280122E09F
S1131970420E511CF801A080B18036FE03C0692DCF
S113198070E002C06FEF7FEFC5010E94A4104C010C
S1131990F32DF0683F2E820133FC1BC0822D90E0B2
S11319A088169906B0F4B60180E290E00E94F8101F
S11319B02A94F4CFF50137FC859137FE81915F01BC
S11319C0B60190E00E94F81021102A9421E0821AB6
S11319D091088114910471F7E8C0843611F08936B6
S11319E041F5F80137FE07C06081718182819381DE
S11319F00C5F1F4F08C060817181072E000C880B9B
S1131A00990B0E5F1F4FF32DFF763F2E97FF09C0F2
S1131A1090958095709561957F4F8F4F9F4FF0689B
S1131A203F2E2AE030E0A3010E944D11882E861833
S1131A3045C0853731F4232D2F7EB22E2AE030E0C5
S1131A4025C0932D997FB92E8F36C1F018F48835AF
S1131A5079F0B5C0803719F0883721F0B0C0E92F8C
S1131A60E061BE2EB4FE0DC0FB2DF460BF2E09C094
S1131A7034FE0AC0292F2660B22E06C028E030E0CA
S1131A8005C020E130E002C020E132E0F801B7FEF9
S1131A9007C060817181828193810C5F1F4F06C0F2
S1131AA06081718180E090E00E5F1F4FA3010E946E
S1131AB04D11882E8618FB2DFF773F2E36FE0DC064
S1131AC0232D2E7FA22E891458F434FE0BC032FC31
S1131AD009C0832D8E7EA82E05C0B82CA32C03C06C
S1131AE0B82C01C0B92CA4FE0FC0FE01E80DF11DF5
S1131AF08081803321F49A2D997EA92E09C0A2FEFB
S1131B0006C0B394B39404C08A2D867809F0B394C4
S1131B10A3FC11C0A0FE06C0B21488F4280C922CB9
S1131B209B180EC0B21460F4B60180E290E00E94EB
S1131B30F810B394F7CFB21418F42B1802C0982CF1
S1131B40212CA4FE10C0B60180E390E00E94F8109E
S1131B50A2FE17C0A1FC03C088E790E002C088E59C
S1131B6090E0B6010CC08A2D867859F0A1FE02C01F
S1131B708BE201C080E2A7FC8DE2B60190E00E94F6
S1131B80F810891438F4B60180E390E00E94F8104C
S1131B909A94F7CF8A94F301E80DF11D8081B60180
S1131BA090E00E94F8108110F5CF222009F442CE73
S1131BB0B60180E290E00E94F8102A94F6CFF60174
S1131BC08681978102C08FEF9FEF2B96E2E10C9400
S1131BD0F61120FD09C0FC0123FD05C022FF02C04F
S1131BE07383628351834083089544FD17C046FD87
S1131BF017C0AB01BC01DA01FB01AA0FBB1FEE1F2A
S1131C00FF1F1094D1F74A0F5B1F6E1F7F1FCB017C
S1131C10BA01660F771F881F991F09C033E001C0FE
S1131C2034E0660F771F881F991F3150D1F7620F78
S1131C30711D811D911D08950F931F93CF93DF9301
S1131C408C01C8010E94BA10EC0197FD08C00E94E3
S1131C504E0B892BB1F7B801CE010E943411CE018D
S1131C60DF91CF911F910F9108958F929F92AF9220
S1131C70BF92EF92FF920F931F93CF93DF938C0148
S1131C80D62F7A01B22E0E94BA109C0133272B3230
S1131C90310531F02D32310561F48B2D8068B82E79
S1131CA0D15011F480E068C0C8010E94BA1097FDB9
S1131CB0F9CFCB2DCD7F2B2D207309F58033F9F48B
S1131CC0AA24AA94AD0E09F443C0C8010E94BA1014
S1131CD097FD3EC09C012F7D33272835310549F4FB
S1131CE0C264D250A9F1C8010E94BA1097FF07C07C
S1131CF02FC0B6FE02C0C26001C0C261DA2D812CC1
S1131D00912C540120ED280F283080F0C4FF04C02A
S1131D10B8010E94341119C02A3040F0C6FFF8CF30
S1131D202F7D3FEE320F363098F727504C2FC501E8
S1131D30B4010E94F50D4B015C01C260D15059F011
S1131D40C8010E94BA1097FFDDCFC1FD04C0AACF1D
S1131D50812C912C5401C7FF08C0B094A094909496
S1131D608094811C911CA11CB11C2C2FB501A401D1
S1131D70C7010E94E90D81E0DF91CF911F910F917E
S1131D80FF90EF90BF90AF909F908F900895A0E246
S1131D90B0E0EDECFEE00C94E0115C01962E7A01CB
S1131DA0F9018E010F5F1F4F680180E2D8011D9277
S1131DB08A95E9F7D50113968C9080E090E0612C28
S1131DC0712C30E061E070E083FC259183FE219169
S1131DD08F01522E211103C080E090E092C02E3575
S1131DE011F4009751F1432F50E0481759073CF480
S1131DF02D3559F12D3219F4772009F103C07720DC
S1131E0009F46AC0452D469546954695D601A40F1A
S1131E10B11D452D47708B0102C0000F111F4A955B
S1131E20E2F7A8015C91452B4C93651459F05614C4
S1131E3010F45394E7CF5A94E5CF31E004C07724EB
S1131E40739401C0712C0196BFCF772019F08E8155
S1131E5080628E83311103C08824839417C0F601F5
S1131E609E012F5D3F4F8081809581932E173F0700
S1131E70D1F7F2CFE114F10429F0D7018C93F701E3
S1131E8031967F019A94812C9920F9F0C5010E9422
S1131E90BA1097FD18C0FC01FF2723E0F595E795DC
S1131EA02A95E1F7EC0DFD1D208130E0AC0147706F
S1131EB0552702C0359527954A95E2F720FDDACFDC
S1131EC0B5010E943411811087CFE114F10411F09F
S1131ED0D7011C92C80115C0422F469546954695D8
S1131EE0D601A40FB11D422F47708B0102C0000F11
S1131EF0111F4A95E2F7A8015C91452B4C93622E81
S1131F00A2CFA096EFE00C94F911A0E0B0E0EBE8CA
S1131F10FFE00C94E0116C01EB015A01FC01168204
S1131F201782512CF601E380FE01E3FC8591E3FE68
S1131F308191182FEF01882309F4EEC090E00E94EC
S1131F404E0B892B21F0C6010E941C0EEBCF1532DB
S1131F5041F4FE01E3FC1591E3FE1191EF0115320A
S1131F6081F4C6010E94BA1097FDD4C0412F50E0FD
S1131F709C01332724173507A9F2B6010E943411B6
S1131F80CBC01A3239F4E3FC1591E3FE1191EF0151
S1131F9001E001C000E0F12C20ED210F2A3080F493
S1131FA002606F2D70E080E090E040E20E94F50D49
S1131FB0F62EFE01E3FC1591E3FE1191EF01ECCF47
S1131FC001FF03C0F11003C0A7C0FF24FA94183620
S1131FD019F01C3651F010C0FE01E3FC1591E3FE2C
S1131FE01191EF01183641F408600460FE01E3FC2E
S1131FF01591E3FE1191EF01112309F48DC0612FB6
S113200070E080E990E00E949910892B09F484C063
S113201000FD07C0F50180809180C50102965C0136
S113202002C0812C912C1E3651F4F6014681578151
S113203060E070E0202FC4010E94E90D73CF1336D5
S1132040A9F401FD02C0FF24F394C6010E94BA1052
S113205097FD60C08114910429F0F4018083C401C8
S113206001964C01FA94F110F0CF50C01B3559F48D
S11320709E01A4016F2DC6010E94C70EEC01892B9D
S113208009F044C03EC0C6010E941C0E97FD42C028
S11320901F3661F128F4143639F1193651F128C08C
S11320A0133771F0153701F123C08114910429F01D
S11320B0F4016082C40101964C01FA94FF2071F08E
S11320C0C6010E94BA103C0197FD08C00E944E0B45
S11320D0892B59F3B601C3010E9434118114910470
S11320E0A9F0F401108212C0006203C0006101C0B3
S11320F00064202FA4016F2DC6010E94350E8111AA
S113210005C0F6018381807329F406C000FD0ACF5F
S1132110539408CF552019F0852D90E002C08FEF1D
S11321209FEFCDB7DEB7EFE00C94F911992788271C
S11321300895FC010590061621F00020D9F7C0018E
S113214008953197CF010895FC01059061507040C6
S11321500110D8F7809590958E0F9F1F0895FC016C
S11321606150704001900110D8F7809590958E0FC2
S11321709F1F0895CF93DF93EC012B8120FF33C081
S113218026FF0AC02F7B2B838E819F8101968E832D
S11321909F838A8190E029C022FF0FC0E881F981E2
S11321A08081082E000C990B009719F420622B8370
S11321B01AC03196E883F9830EC0EA85FB85099538
S11321C097FF09C02B81019611F080E201C080E1E4
S11321D0822B8B8308C02E813F812F5F3F4F2E833C
S11321E03F83992702C08FEF9FEFDF91CF9108952E
S11321F00F931F93CF93DF93FB01238121FD03C032
S11322008FEF9FEF2CC022FF16C046815781248197
S113221035814217530744F4A081B1819D012F5F9A
S11322203F4F208331838C93268137812F5F3F4F2B
S11322302683378314C08B01EC01FB010084F185F4
S1132240E02D0995892BE1F6D80116968D919C9184
S11322501797019616968D939C931797CE01DF914D
S1132260CF911F910F910895FB01238120FF12C08C
S113227026FD10C08F3F3FEF930761F082832F7DCF
S113228020642383268137812150310926833783B3
S1132290992708958FEF9FEF0895FA01AA27283010
S11322A051F1203181F1E8946F936E7F6E5F7F4F1F
S11322B08F4F9F4FAF4FB1E03ED0B4E03CD0670F9B
S11322C0781F891F9A1FA11D680F791F8A1F911DEE
S11322D0A11D6A0F711D811D911DA11D20D009F43E
S11322E068943F912AE0269F11243019305D319380
S11322F0DEF6CF010895462F4770405D4193B3E069
S11323000FD0C9F7F6CF462F4F70405D4A3318F00F
S1132310495D31FD4052419302D0A9F7EACFB4E0C0
S1132320A6959795879577956795BA95C9F7009778
S11323306105710508959B01AC010A2E0694579519
S1132340479537952795BA95C9F7620F731F841F70
S1132350951FA01D0895DB018F939F930E941E0A71
S1132360BF91AF91A29F800D911DA39F900DB29F2D
S1132370900D11240895A1E21A2EAA1BBB1BFD0186
S11323800DC0AA1FBB1FEE1FFF1FA217B307E40750
S1132390F50720F0A21BB30BE40BF50B661F771FA8
S11323A0881F991F1A9469F7609570958095909588
S11323B09B01AC01BD01CF0108952F923F924F9232
S11323C05F926F927F928F929F92AF92BF92CF92C1
S11323D0DF92EF92FF920F931F93CF93DF93CDB7CA
S11323E0DEB7CA1BDB0BCDBFDEBF09942A88398850
S11323F048885F846E847D848C849B84AA84B98499
S1132400C884DF80EE80FD800C811B81AA81B981A4
S1132410CE0FD11DCDBFDEBFED010895F894FFCFDF
S113242023334455AAFFDDAA33AA457272002573EB
S11324300053462C320D0A00410D0A00590D0A00C2
S11324404B2C310D0A00552C5A0D0A0050532C25E3
S1132450730D0A0050432C25732C253032582C253B
S11324603032580D0A004C532C25730D0A00526566
S1132470676973746572656420636861726163740B
S1132480657269737469632025732C207769746895
S11324902068616E646C6520253034580D0A004C48
S11324A0530D0A002530325800262C25730D0A00DE
S11324B0532D2C25730D0A005344412C25303458D8
S11324C00D0A0053542C253034582C253034582C04
S11324D0253034582C253034580D0A0053412C250E
S11324E0640D0A0053502C25730D0A000D0A496E21
S11324F0697469616C697A696E6720726E34383701
S1132500780D005348522C253034580D0A002532DA
S1132510686858005348572C253034582C25730DBF
S11325200A0025434F4E4E4543542C002553454342
S113253055524544250025444953434F4E4E454387
S11325405425002557432C002557562C0025424F6F
S11325504E444544250032413938314634433734FA
S113256034383431463838334538384246393746BA
S11325704534363338310044304135313244363015
S11325804438313435433242454444363231454689
S113259031434242454642003733363537424438A8
S11325A03244303434433331413331453534444596
S11325B0314441423636464600726E343837300074
S11325C0313233343536004F6E20436F6E6E65639F
S11325D0740A0D004F6E20646973636E6E656374D4
S11325E00A0D00436F6E6E656374696F6E207365C8
S11325F063757265640A0D00726563696576656466
S1132600206E6F74696669636174696F6E007561C9
S10F2610727420726573706F6E73650045
S113261C2A3024301C3057015C01610166014E04E0
S113262CF103EA0347047000900050015665000062
S113263C02000030776500001E01986500001E0141
S113264C403016300E3006308E3060030000DE044D
S113265C0000B96504C0650000060000000002001B
S113266C00010430A306B306C70615074B07A807D9
S113267CC406D206C106AB06F506FC0603070E0714
S113268C9306D506E5070708BF08AA080000000250
S111269C00000000F609000000008C0877081A
S9030000FC
