S0120000626C655F73656E736F722E73726563E6
S11300000C944E000C946B000C946B000C946B00DD
S11300100C946B000C946B000C946B000C946B00B0
S11300200C946B000C946B000C946B000C946B00A0
S11300300C946B000C946B000C946B000C94C7052F
S11300400C946B000C9464060C948D060C946B0059
S11300500C946B000C946B000C946B000C946B0070
S11300600C946B000C946B000C946B000C946B0060
S11300700C946B000C946B000C946B000C94F106C4
S11300800C941A070C946B000C946B000C946B008A
S11300906364696E6F70737578585B0011241FBEBA
S11300A0CFEFCDBFDFE3DEBF10E3A0E0B0E3EAEFC4
S11300B0FFE102C005900D92A638B107D9F727E3F6
S11300C0A6E8B0E301C01D92A63DB207E1F70E9485
S11300D0FE020C946D0F0C9400000E94E10308953D
S11300E08DB1877F8DB981E00895CF93DF93EC01C3
S11300F088EE9EE50E94FC0861E089E990E00E9498
S11301005506EC89FD890280F381E02DCE01099525
S1130110EC89FD890480F581E02DCE010995EE89F5
S1130120FF890190F081E02DCE010995DF91CF91F7
S11301300895CF93DF93C0919C32D0919D320E9459
S1130140EE06C256DD4C888380919C3290919D329C
S11301500196992780939C3290939D32DF91CF91A1
S113016008956FEF7EE58EE992E30E94CC08892B17
S113017011F080E0089581E0089510929C3210926D
S11301809D3280E091E0EEE9F2E3DF019C011D92F3
S113019021503040E1F708950E94BD008DB1877F62
S11301A08DB98DE890E20197F1F700008DB1886078
S11301B08DB99FE32DE083E0915020408040E1F72A
S11301C000C000000E94B1000895FF920F931F9396
S11301D0CF93DF938C010E94BD0084E20E94BA0693
S11301E084E20E94BA0684E20E94BA062AE684E007
S11301F091E0215080409040E1F700C0F12C08C00C
S11302000E94B606882321F088810E94BA06F394DE
S1130210E801CF0DD11D88818111F2CF2FE38DE04C
S113022093E0215080409040E1F700C000008DE24F
S11302300E94BA068DE20E94BA068DE20E94BA06B6
S11302408DE00E94BA068AE00E94BA062AE684E09B
S113025091E0215080409040E1F700C01F930F933C
S1130260C3E0DFE5DF93CF930E94E6088EE992E3D3
S11302709F938F93DF93CF930E94E6088DB79EB729
S113028008968DBF9EBFDF91CF911F910F91FF9074
S11302900895CF92DF92EF92FF920F931F93CF9323
S11302A0DF937C016B01C0E0D0E00CE910E317C0E0
S11302B0F601EC0FFD1F80811F928F9386E09FE56E
S11302C09F938F931F930F930E942C09080F191F5C
S11302D021960F900F900F900F900F900F90F701B1
S11302E0858190E0C817D9071CF38CE990E39F93AC
S11302F08F9383818F9382818F938BE09FE59F936C
S11303008F938CE991E39F938F930E942C098CE93E
S113031091E30E94E5008DB79EB708968DBF9EBFFE
S1130320DF91CF911F910F91FF90EF90DF90CF90CD
S11303300895CF92DF92EF92FF920F931F93CF9382
S1130340DF937C016B01FC0183818F9382818F9306
S113035089E19FE59F938F938CE991E39F938F931A
S11303600E942C098CE991E30E94E5000E94B100EF
S11303700F900F900F900F900F900F90882369F1BA
S1130380F701458150E0440F551F63EA72E38CE99D
S113039091E30E94BD08C0E0D0E00CE911E316C06F
S11303A0C6018C0F9D1F9F938F9384E29FE59F93BB
S11303B08F931F930F930E944E090E5F1F4F219638
S11303C00F900F900F900F900F900F90F701858171
S11303D090E0C817D90724F302C080E000C0DF9181
S11303E0CF911F910F91FF90EF90DF90CF900895E0
S11303F0FC01958184811F929F931F928F93818129
S11304008F9380818F938AE29FE59F938F938CE9EA
S113041091E39F938F930E942C098CE991E30E94AE
S1130420E5000E94B1002DB73EB7265F3F4F2DBFB8
S11304303EBF0895FC0121812F9380818F938CE32B
S11304409FE59F938F938CE991E39F938F930E94F1
S11304502C098CE991E30E94E5000E94B1000F9001
S11304600F900F900F900F900F9008952F923F923E
S11304704F925F926F927F928F929F92AF92BF92B0
S1130480CF92DF92EF92FF920F931F93CF93DF935C
S1130490CDB7DEB7E297CDBFDEBF3C01DC0150969D
S11304A02D903C905197412C512C77C0F201EE0FC6
S11304B0FF1FE20DF31DC080D180D3015696ED914C
S11304C0FC9157970280F381E02DC6010995F6014E
S11304D08680978080E090E053C0880F991FF401D4
S11304E0E80FF91F00811181D3015696ED91FC911B
S11304F057970480F581E02DC8010995882309F4F4
S113050060C0F60181818F9380818F9384E49FE59D
S11305109F938F939E012F5F3F4F79013F932F93BA
S11305200E942C09C7010E94E500D801ED90FC90BF
S1130530B7018EE992E30E94CC08F70101900020F4
S1130540E9F73197EE19FF09319640E150E060E098
S113055070E08E0F9F1F0E949E07F80162837383D1
S11305607F936F9381818F9380818F938CE49FE538
S11305709F938F930E94E608C5010196CDBFDEBF0D
S1130580D60114962D913C9115975C01821793071F
S113059008F4A3CFBFEF4B1A5B0AF301878590E001
S11305A0481659060CF482CF0488F589E02D0280A0
S11305B0F381E02DC30109958DE79FE50E94E500D5
S11305C081E0E296CDBFDEBFDF91CF911F910F9105
S11305D0FF90EF90DF90CF90BF90AF909F908F905F
S11305E07F906F905F904F903F902F90089582E896
S11305F09FE50E94E5000E94B1000895CF93DF9328
S1130600CDB7DEB72A97CDBFDEBF78940E946D00C8
S11306108AE0809329300AE210E3D8015C96ED91D8
S1130620FC915D97C80109958AE0EEEDFEE5DE01D7
S1130630119601900D928A95E1F7D8015696ED91A5
S1130640FC9157970084F185E02DBE016F5F7F4FC9
S113065084E290E30995D8015696ED91FC91579761
S11306600084F185E02DBE016F5F7F4F84E290E34B
S11306700995D8015696ED91FC9157970680F7811C
S1130680E02DBE016F5F7F4F84E290E30995FFCFB9
S113069080E0089580E0089580E0089580E008C037
S11306A0E82FF0E0E05FFB4F9081986090838F5FCC
S11306B08830B0F380E008C0E82FF0E0E05DFB4F45
S11306C09081986090838F5F8830B0F380E008C099
S11306D0E82FF0E0E05BFB4F9081986090838F5FA0
S11306E08830B0F380E008C0E82FF0E0E059FB4F19
S11306F09081986090838F5F8830B0F380E008C069
S1130700E82FF0E0E057FB4F9081986090838F5F73
S11307108830B0F380E008C0E82FF0E0E055FB4FEC
S11307209081986090838F5F8830B0F3089580B192
S11307308D7F80B9E1E1F4E08081877F808381B19E
S11307408E7F81B980B1816080B90E94D6060895F8
S113075084B38D7F84BBE1EBF4E08081877F808369
S113076085B38E7F85BB84B3816084BB0E9464079C
S113077008950E94ED05089581B1877F81B980B104
S1130780886080B9E3E1F4E08081877F80838081A1
S11307908F7780838081887F808381B18B7F81B9CB
S11307A080B1846080B9E2E1F4E08081877F808356
S11307B080818F7780838081887F80830E94C005B9
S11307C008950E944E038DB188608DB98CB1886004
S11307D08CB985B38F7E85BB84B3806184BBE4EB25
S11307E0F4E08081877F808380818F77808380811C
S11307F0887F80830E944A030E9497030E94A80373
S11308000E94B9030E944C030E94EB050E94BC03A2
S11308100E9448030895E0EAF8E0848188608483B4
S1130820858181608583EEE9F3E380818E7F808317
S113083013868EE00895EEE9F3E380818E7F808352
S1130840138680E00895E0EAF8E08481836084837D
S11308500E941B040895EEE9F3E38081886080839D
S1130860818190E0880F991F81608093A70884E0BC
S113087008950E942B0408950E942B040895EEE924
S1130880F3E38081886080838181880F8093A70847
S113089083E008950E943F040895AEE9B3E38C9188
S11308A0877F8C9382E01B968C931B975096ED91D7
S11308B0FC9151975C968D919C915D97099582303E
S11308C019F0833021F006C00E943C0408950E9470
S11308D04A0408950E9423040895E0EAF8E084811C
S11308E08B7F848384E00895E0EAF8E084818B7F41
S11308F0848383E00895E0EAF8E08481846084835B
S11309008481836084830E941B040895E0EAF8E0F4
S113091084818460848388E008958091A50884FF9D
S113092019C0AEE9B3E35296ED91FC9153975E96EC
S11309308D919C915F970995823019F0833021F055
S113094006C00E943C0408950E944A0408950E942F
S113095023040895EEE9F3E38081877F8083A281F5
S1130960B381CD010196828393838C918093A808EF
S113097084819581019784839583892B11F083E089
S1130980089585E00895CF93DF93EEE9F3E3808142
S1130990877F808384819581019731F4E0EAF8E0D0
S11309A084818460848305C0E0EAF8E084818B7FDD
S11309B08483EEE9F3E384819581019784839583AD
S11309C0892BA9F0DF01C281D381E0EAF8E08085B8
S11309D0888312968D919C911397019612968D930C
S11309E09C93139784818260848384E026C0AEE95B
S11309F0B3E31296ED91FC9113978091A80880833C
S1130A0012968D919C911397019612968D939C93B7
S1130A1013978C9184608C931C96ED91FC911D9797
S1130A2058968D919C91599709958250823018F46B
S1130A300E94860402C00E947B04DF91CF91089536
S1130A408091A50884FF19C0AEE9B3E35296ED91F5
S1130A50FC9153975E968D919C915F970995823096
S1130A6019F0833021F006C00E943C0408950E94CE
S1130A704A0408950E9423040895AEE9B3E38C91D7
S1130A8084608C931C96ED91FC911D9758968D91E2
S1130A909C9159970995833039F0843041F0823024
S1130AA049F40E943C0408950E944A0408950E9457
S1130AB08D0408950E9423040895E0EAF8E08581F6
S1130AC088608583AEE9B3E382E01B968C931B9721
S1130AD01E96ED91FC911F975A968D919C915B9770
S1130AE00995823019F0833021F006C00E943C043D
S1130AF008950E944A0408950E940B040895E0EAB0
S1130B00F8E0848188608483858181608583EEE94F
S1130B10F3E380818E7F808382E083878EE0089573
S1130B20CF93DF93E0EAF8E08581806C8583809140
S1130B309E3383FF07C08091A50884FF03C08FE024
S1130B408093A8338091A50883FF03C080E180933C
S1130B50A8338091A50882FF03C081E18093A83364
S1130B60CEE9D3E3EA85F0E0EE0FFF1FE45BFF4C30
S1130B700190F081E02D09958A87DF91CF91089546
S1130B80E0EAF8E08BE0868381EC838308951F928A
S1130B900F920FB60F9211242F933F934F935F93AD
S1130BA06F937F938F939F93AF93BF93EF93FF9331
S1130BB00E949005FF91EF91BF91AF919F918F910A
S1130BC07F916F915F914F913F912F910F900FBE45
S1130BD00F901F90189580E0089580E008959091FB
S1130BE00008E091CD36EF5F8091CC36E81759F0DC
S1130BF0E093CD36F0E0E253F94C90838091CB360C
S1130C008F5F8093CB3608958091C835882381F017
S1130C10E091C935EF5FE093C935F0E0E553FA4C54
S1130C208081809302088091C83581508093C835B3
S1130C308091C835811105C0E0E0F8E085818F7DA1
S1130C408583089590914008E091C734EF5F8091C7
S1130C50C634E81759F0E093C734F0E0E853FB4C8E
S1130C6090838091C5348F5F8093C53408958091BB
S1130C70C233882381F0E091C333EF5FE093C33341
S1130C80F0E0EB53FC4C8081809342088091C233A6
S1130C9081508093C2338091C233811105C0E0E456
S1130CA0F8E085818F7D85830895613019F0623085
S1130CB031F0089580938430909385300895809323
S1130CC082309093833008951F920F920FB60F9243
S1130CD011242F933F934F935F936F937F938F933D
S1130CE09F93AF93BF93EF93FF93E0918430F09180
S1130CF08530309709F00995FF91EF91BF91AF913D
S1130D009F918F917F916F915F914F913F912F911F
S1130D100F900FBE0F901F9018951F920F920FB651
S1130D200F9211242F933F934F935F936F937F936D
S1130D308F939F93AF93BF93EF93FF93E091823090
S1130D40F0918330309709F00995FF91EF91BF91AD
S1130D50AF919F918F917F916F915F914F913F914F
S1130D602F910F900FBE0F901F9018958091C8354A
S1130D7081E008959091CA359F5F2091C835E92F8D
S1130D80F0E0E553FA4C80839093CA350FB6F8949B
S1130D900F928091C8358F5F8093C8350F900FBE36
S1130DA0E0E0F8E08581806285830895E0E0F8E082
S1130DB084E790E08087918780E8858380EC868350
S1130DC01092CC361092CD361092CB361092C93593
S1130DD01092CA351092C83580E0089580910008B9
S1130DE008951F920F920FB60F9211242F933F93E1
S1130DF04F935F936F937F938F939F93AF93BF931F
S1130E00EF93FF93E0917230F0917330309709F0D3
S1130E100995FF91EF91BF91AF919F918F917F9130
S1130E206F915F914F913F912F910F900FBE0F9053
S1130E301F9018951F920F920FB60F9211242F93A3
S1130E403F934F935F936F937F938F939F93AF934E
S1130E50BF93EF93FF93E0917030F091713030972E
S1130E6009F00995FF91EF91BF91AF919F918F91F7
S1130E707F916F915F914F913F912F910F900FBE92
S1130E800F901F9018959091C4339F5F2091C233A7
S1130E90E92FF0E0EB53FC4C80839093C4330FB6FE
S1130EA0F8940F928091C2338F5F8093C2330F9076
S1130EB00FBEE0E4F8E085818062858308950E9496
S1130EC0430780E090E00895E0E4F8E084E790E0F0
S1130ED08087918780E8858380EC868381E083879F
S1130EE01092C6341092C7341092C5341092C33392
S1130EF01092C4331092C23384E790E38093D037C6
S1130F009093D13780E008950E948F07A59F900D9C
S1130F10B49F900DA49F800D911D11240895A29F4C
S1130F20B001B39FC001A39F700D811D1124911DB9
S1130F30B29F700D811D1124911D0895A0E0B0E0B1
S1130F40E4EAF7E00C943D0F5C016B017A01611552
S1130F50710519F0FB0180839183E114F10429F0F8
S1130F60C7010297839708F0E5C0E5012196F501D2
S1130F701081812F90E00E94B408892B11F05E014A
S1130F80F4CF1D3229F42196F501118101E007C047
S1130F901B3221F4E5012296F501118100E0E114F0
S1130FA0F10409F1F0E1EF16F10429F43FC010E374
S1130FB0E114F10421F128E0E216F10401F154F402
S1130FC0E2E0EE16F10421F5812C912CA12CB0E481
S1130FD0BB2E3EC0FAE0EF16F10439F020E1E21630
S1130FE0F104B1F430C0103319F1FAE0EF2EF12C12
S1130FF0ACEC8A2E982CA82CACE0BA2E29C078E050
S1131000E72EF12C812C912CA12CE0E1BE2E20C0E6
S113101060E070E080E090E897010F2C000C440B36
S1131020550B0E941A0F49015A0112C0103359F48A
S113103088818F7D883509F0BACF198122960260A4
S113104080E1E82EF12C812C912CA12C68E0B62EA5
S113105040E060E070E0CB0127010F2C000C660833
S11310607708FE0150ED352E310E29E0231570F47A
S11310702FEB210F2A3118F439EC332E06C02FE957
S1131080210F2A3118F529EA322E310E232D30E0B2
S11310902E153F05DCF447FD16C086169706A806F4
S11310A0B90670F0A30192010E940A0F630D711D2D
S11310B0811D911D61307105810520E8920710F0B2
S11310C04FEF01C041E021961081CBCF202F21703A
S11310D0C114D10471F0442329F02197F601C0838F
S11310E0D18307C001FF19C02297F601C083D183C1
S11310F014C047FF12C0222329F060E070E080E0B2
S113110090E804C06FEF7FEF8FEF9FE722E230E0BB
S11311102093D4373093D53709C0222381F090959A
S11311208095709561957F4F8F4F9F4F462F372F36
S1131130282F12C040E030E020E090E00DC097FF7F
S1131140F5CF82E290E08093D4379093D5376FEF58
S11311507FEF8FEF9FE7EACF642F732F822FCDB7F6
S1131160DEB7E1E10C94560F91110C94F50D803229
S113117019F089508550C8F70895FB01DC014150EE
S1131180504048F001900D920020C9F701C01D9213
S113119041505040E0F70895FB0151915523A9F0C7
S11311A0BF01DC014D9145174111E1F759F4CD011F
S11311B00190002049F04D9140154111C9F3FB0104
S11311C04111EFCF81E090E001970895A0E0B0E0F5
S11311D0ECEEF8E00C944C0FAE014B5F5F4FFA015C
S11311E061917191AF018091D0379091D1370E9474
S11311F06709E2E00C94650F0F931F93CF93DF937D
S1131200E091D037F091D137238121FF1BC08C01AD
S1131210D0E0C0E0F80181918F016091D0377091E6
S1131220D137DB011896ED91FC911997882331F0A1
S11312300995892B79F3DFEFCFEFECCF8AE009959D
S1131240892B19F08FEF9FEF02C08D2F9C2FDF9118
S1131250CF911F910F910895AEE0B0E0E2E3F9E081
S11312600C944A0F0D891E8986E08C8309831A83A6
S11312708FEF9FE78D839E83AE01475E5F4F6F893B
S1131280788DCE0101960E946709EF81F885E00F01
S1131290F11F10822E96E4E00C94630FAEE0B0E0F0
S11312A0E4E5F9E00C944C0F85E08C838B899C89F0
S11312B089839A83AE01495E5F4F6D897E89CE0131
S11312C001960E94E40C2E96E2E00C94650FABE0CC
S11312D0B0E0EDE6F9E00C943C0F6C017B018A016F
S11312E0FC0116821782838181FFCCC1CE01019655
S11312F03C01F6019381F70193FD859193FF819160
S11313007F01882309F4BAC1853239F493FD8591AC
S113131093FF81917F01853229F4B60190E00E9408
S1131320570EE7CF912C212C312CFFE1F315D8F087
S11313308B3279F038F4803279F08332A1F4232DA2
S113134020611DC08D3261F0803369F4232D21604A
S113135016C0832D8260382EE32DE4603E2E2AC011
S1131360F32DF8601DC037FC2DC020ED280F2A3066
S113137040F08E32B9F436FC81C1232D2064322E24
S113138019C036FE06C08AE0989E200D1124922EC4
S113139011C0EAE02E9E200D1124222EF32DF062BE
S11313A03F2E08C08C3621F4832D8068382E02C06D
S11313B0883641F4F70193FD859193FF81917F0174
S11313C08111B3CF982F9F7D9554933028F40C5FEF
S11313D01F4F9FE399830DC0833631F0833771F03B
S11313E0833509F059C021C0F801808189830E5FDB
S11313F01F4F88248394912C530113C02801F2E0D9
S11314004F0E511CF801A080B18036FE03C0692D37
S113141070E002C06FEF7FEFC5010E940E0E4C0119
S11314208201F32DFF773F2E16C0280122E0420EE1
S1131430511CF801A080B18036FE03C0692D70E014
S113144002C06FEF7FEFC5010E94030E4C01F32D24
S1131450F0683F2E820133FC1BC0822D90E0881679
S11314609906B0F4B60180E290E00E94570E2A94E7
S1131470F4CFF50137FC859137FE81915F01B60108
S113148090E00E94570E21102A9421E0821A9108BC
S11314908114910471F7E8C0843611F0893641F55E
S11314A0F80137FE07C060817181828193810C5FEE
S11314B01F4F08C060817181072E000C880B990BA7
S11314C00E5F1F4FF32DFF763F2E97FF09C09095B7
S11314D08095709561957F4F8F4F9F4FF0683F2E99
S11314E02AE030E0A3010E94AC0E882E861845C085
S11314F0853731F4232D2F7EB22E2AE030E025C02B
S1131500932D997FB92E8F36C1F018F4883579F070
S1131510B5C0803719F0883721F0B0C0E92FE061F9
S1131520BE2EB4FE0DC0FB2DF460BF2E09C034FEE8
S11315300AC0292F2660B22E06C028E030E005C07C
S113154020E130E002C020E132E0F801B7FE07C03C
S113155060817181828193810C5F1F4F06C060811D
S1131560718180E090E00E5F1F4FA3010E94AC0EDA
S1131570882E8618FB2DFF773F2E36FE0DC0232DB7
S11315802E7FA22E891458F434FE0BC032FC09C0FD
S1131590832D8E7EA82E05C0B82CA32C03C0B82C96
S11315A001C0B92CA4FE0FC0FE01E80DF11D80811D
S11315B0803321F49A2D997EA92E09C0A2FE06C07B
S11315C0B394B39404C08A2D867809F0B394A3FC31
S11315D011C0A0FE06C0B21488F4280C922C9B18EB
S11315E00EC0B21460F4B60180E290E00E94570E7F
S11315F0B394F7CFB21418F42B1802C0982C212CF2
S1131600A4FE10C0B60180E390E00E94570EA2FE33
S113161017C0A1FC03C088E790E002C088E590E011
S1131620B6010CC08A2D867859F0A1FE02C08BE267
S113163001C080E2A7FC8DE2B60190E00E94570E43
S1131640891438F4B60180E390E00E94570E9A940E
S1131650F7CF8A94F301E80DF11D8081B60190E083
S11316600E94570E8110F5CF222009F442CEB60114
S113167080E290E00E94570E2A94F6CFF60186810C
S1131680978102C08FEF9FEF2B96E2E10C94550FE8
S113169020FD09C0FC0123FD05C022FF02C07383A5
S11316A0628351834083089544FD17C046FD17C0EB
S11316B0AB01BC01DA01FB01AA0FBB1FEE1FFF1F28
S11316C01094D1F74A0F5B1F6E1F7F1FCB01BA0125
S11316D0660F771F881F991F09C033E001C034E0EB
S11316E0660F771F881F991F3150D1F7620F711D44
S11316F0811D911D08950F931F93CF93DF938C0148
S1131700C8010E94190EEC0197FD08C00E94B4089C
S1131710892BB1F7B801CE010E94930ECE01DF915F
S1131720CF911F910F9108958F929F92AF92BF9284
S1131730EF92FF920F931F93CF93DF938C01D62FD9
S11317407A01B22E0E94190E9C0133272B323105E7
S113175031F02D32310561F48B2D8068B82ED150D3
S113176011F480E068C0C8010E94190E97FDF9CFFA
S1131770CB2DCD7F2B2D207309F58033F9F4AA24CA
S1131780AA94AD0E09F443C0C8010E94190E97FD36
S11317903EC09C012F7D33272835310549F4C264AE
S11317A0D250A9F1C8010E94190E97FF07C02FC09B
S11317B0B6FE02C0C26001C0C261DA2D812C912C38
S11317C0540120ED280F283080F0C4FF04C0B80174
S11317D00E94930E19C02A3040F0C6FFF8CF2F7D27
S11317E03FEE320F363098F727504C2FC501B40125
S11317F00E94540B4B015C01C260D15059F0C801E6
S11318000E94190E97FFDDCFC1FD04C0AACF812C21
S1131810912C5401C7FF08C0B094A0949094809474
S1131820811C911CA11CB11C2C2FB501A401C70162
S11318300E94480B81E0DF91CF911F910F91FF909F
S1131840EF90BF90AF909F908F900895A0E2B0E08A
S1131850ECE2FCE00C943F0F5C01962E7A01F90156
S11318608E010F5F1F4F680180E2D8011D928A9597
S1131870E9F7D50113968C9080E090E0612C712CEF
S113188030E061E070E083FC259183FE21918F01BB
S1131890522E211103C080E090E092C02E3511F445
S11318A0009751F1432F50E0481759073CF42D3568
S11318B059F12D3219F4772009F103C0772009F486
S11318C06AC0452D469546954695D601A40FB11D8F
S11318D0452D47708B0102C0000F111F4A95E2F796
S11318E0A8015C91452B4C93651459F0561410F4DF
S11318F05394E7CF5A94E5CF31E004C0772473942E
S113190001C0712C0196BFCF772019F08E818062BF
S11319108E83311103C08824839417C0F6019E017D
S11319202F5D3F4F8081809581932E173F07D1F71C
S1131930F2CFE114F10429F0D7018C93F701319629
S11319407F019A94812C9920F9F0C5010E94190E07
S113195097FD18C0FC01FF2723E0F595E7952A952C
S1131960E1F7EC0DFD1D208130E0AC0147705527F7
S113197002C0359527954A95E2F720FDDACFB501E7
S11319800E94930E811087CFE114F10411F0D70166
S11319901C92C80115C0422F469546954695D6011E
S11319A0A40FB11D422F47708B0102C0000F111FFD
S11319B04A95E2F7A8015C91452B4C93622EA2CF85
S11319C0A096EFE00C94580FA0E0B0E0EAEEFCE043
S11319D00C943F0F6C01EB015A01FC011682178233
S11319E0512CF601E380FE01E3FC8591E3FE819135
S11319F0182FEF01882309F4EEC090E00E94B40888
S1131A00892B21F0C6010E947B0BEBCF153241F4E8
S1131A10FE01E3FC1591E3FE1191EF01153281F40F
S1131A20C6010E94190E97FDD4C0412F50E09C01BD
S1131A30332724173507A9F2B6010E94930ECBC0B1
S1131A401A3239F4E3FC1591E3FE1191EF0101E040
S1131A5001C000E0F12C20ED210F2A3080F4026057
S1131A606F2D70E080E090E040E20E94540BF62E6F
S1131A70FE01E3FC1591E3FE1191EF01ECCF01FFB0
S1131A8003C0F11003C0A7C0FF24FA94183619F05C
S1131A901C3651F010C0FE01E3FC1591E3FE1191D8
S1131AA0EF01183641F408600460FE01E3FC15916F
S1131AB0E3FE1191EF01112309F48DC0612F70E051
S1131AC080E990E00E94F80D892B09F484C000FDA0
S1131AD007C0F50180809180C50102965C0102C0B7
S1131AE0812C912C1E3651F4F6014681578160E019
S1131AF070E0202FC4010E94480B73CF1336A9F461
S1131B0001FD02C0FF24F394C6010E94190E97FD43
S1131B1060C08114910429F0F4018083C40101960A
S1131B204C01FA94F110F0CF50C01B3559F49E01CA
S1131B30A4016F2DC6010E94260CEC01892B09F02B
S1131B4044C03EC0C6010E947B0B97FD42C01F36B5
S1131B5061F128F4143639F1193651F128C01337DC
S1131B6071F0153701F123C08114910429F0F401B7
S1131B706082C40101964C01FA94FF2071F0C60101
S1131B800E94190E3C0197FD08C00E94B408892BDD
S1131B9059F3B601C3010E94930E81149104A9F074
S1131BA0F401108212C0006203C0006101C000642D
S1131BB0202FA4016F2DC6010E94940B811105C032
S1131BC0F6018381807329F406C000FD0ACF539483
S1131BD008CF552019F0852D90E002C08FEF9FEFBC
S1131BE0CDB7DEB7EFE00C94580F992788270895F6
S1131BF0FC010590061621F00020D9F7C0010895D4
S1131C003197CF010895FC01059061507040011097
S1131C10D8F7809590958E0F9F1F0895FC01615011
S1131C20704001900110D8F7809590958E0F9F1FFA
S1131C300895CF93DF93EC012B8120FF33C026FF5F
S1131C400AC02F7B2B838E819F8101968E839F8375
S1131C508A8190E029C022FF0FC0E881F981808148
S1131C60082E000C990B009719F420622B831AC0DC
S1131C703196E883F9830EC0EA85FB85099597FFC1
S1131C8009C02B81019611F080E201C080E1822B12
S1131C908B8308C02E813F812F5F3F4F2E833F836C
S1131CA0992702C08FEF9FEFDF91CF9108950F9393
S1131CB01F93CF93DF93FB01238121FD03C08FEF9B
S1131CC09FEF2CC022FF16C04681578124813581A5
S1131CD04217530744F4A081B1819D012F5F3F4F08
S1131CE0208331838C93268137812F5F3F4F268356
S1131CF0378314C08B01EC01FB010084F185E02DD6
S1131D000995892BE1F6D80116968D919C91179728
S1131D10019616968D939C931797CE01DF91CF91E0
S1131D201F910F910895FB01238120FF12C026FD0E
S1131D3010C08F3F3FEF930761F082832F7D2064B3
S1131D4023832681378121503109268337839927BC
S1131D5008958FEF9FEF0895FA01AA27283051F1D3
S1131D60203181F1E8946F936E7F6E5F7F4F8F4FC8
S1131D709F4FAF4FB1E03ED0B4E03CD0670F781F27
S1131D80891F9A1FA11D680F791F8A1F911DA11D0C
S1131D906A0F711D811D911DA11D20D009F4689445
S1131DA03F912AE0269F11243019305D3193DEF6ED
S1131DB0CF010895462F4770405D4193B3E00FD0A3
S1131DC0C9F7F6CF462F4F70405D4A3318F0495D8E
S1131DD031FD4052419302D0A9F7EACFB4E0A69571
S1131DE09795879577956795BA95C9F70097610593
S1131DF0710508959B01AC010A2E069457954795E9
S1131E0037952795BA95C9F7620F731F841F951FDD
S1131E10A01D0895DB018F939F930E948407BF91B7
S1131E20AF91A29F800D911DA39F900DB29F900D25
S1131E3011240895A1E21A2EAA1BBB1BFD010DC09B
S1131E40AA1FBB1FEE1FFF1FA217B307E407F50766
S1131E5020F0A21BB30BE40BF50B661F771F881F42
S1131E60991F1A9469F760957095809590959B01D8
S1131E70AC01BD01CF0108952F923F924F925F9222
S1131E806F927F928F929F92AF92BF92CF92DF9286
S1131E90EF92FF920F931F93CF93DF93CDB7DEB7EB
S1131EA0CA1BDB0BCDBFDEBF09942A88398848885A
S1131EB05F846E847D848C849B84AA84B984C88462
S1131EC0DF80EE80FD800C811B81AA81B981CE0F59
S1111ED0D11DCDBFDEBFED010895F894FFCF04
S1131EDE23334455AAFFDDAA33AA0D0A496E697449
S1131EEE69616C697A696E6720726E343837780D61
S1131EFE004572720025730025303258005348573E
S1131F0E2C253034582C25730D0A005348522C2599
S1131F1E3034580D0A0025326868580050432C2579
S1131F2E732C253032582C253032580D0A0050535C
S1131F3E2C25730D0A004C532C25730D0A00526583
S1131F4E6769737465726564206368617261637432
S1131F5E657269737469632025732C2077697468BC
S1131F6E2068616E646C6520253034580D0A004C6F
S1131F7E530D0A0053462C320D0A003241393831C2
S1131F8E46344337343438343146383833453838A8
S1131F9E42463937464534363338310044304135BC
S1131FAE3132443630443831343543324245444478
S1131FBE3632314546314342424546420037333686
S1131FCE353742443832443034344333314133317B
S1131FDE4535344445314441423636464600726EE8
S10F1FEE343837300031323334353600DB
S1131FFA24301E30163036021A02F80199014901BA
S113200A7000CC00F702895F000002000030AA5F6A
S113201A00000201CB5F000002010000EC5F000433
S113202AF35F0000022000030001043000001030B6
S113203A0630863000007500000000001B042B04E3
S113204A3F048D04C30420053C044A0439042304D0
S113205A6D0474047B0486040B044D045D057F053A
S113206A3706220600000002000000005F07000095
S109207A00000406EF055E
S9030000FC
