S0120000626C655F73656E736F722E73726563E6
S11300000C944E000C946B000C946B000C946B00DD
S11300100C946B000C946B000C946B000C946B00B0
S11300200C946B000C946B000C946B000C946B00A0
S11300300C946B000C946B000C946B000C943007C4
S11300400C946B000C94CD070C94F6070C946B0085
S11300500C946B000C946B000C946B000C946B0070
S11300600C946B000C946B000C946B000C946B0060
S11300700C946B000C946B000C946B000C9469084A
S11300800C9492080C946B000C946B000C946B0011
S11300906364696E6F70737578585B0011241FBEBA
S11300A0CFEFCDBFDFE3DEBF10E3A0E0B0E3EFE4CA
S11300B0F3E202C005900D92A838B107D9F728E3FE
S11300C0A8E8B0E301C01D92A434B207E1F70E948E
S11300D060040C94EF100C9400000E944A050895EB
S11300E08DB1877F8DB981E0089510920A33109203
S11300F00B3380E091E0ECE0F3E3DF019C011D921F
S113010021503040E1F70895CF93DF9380918832F6
S1130110909189328E379105E8F4C0918832D0915C
S113012089320E94FC08C657DD4C8883E0918832EE
S1130130F0918932E657FD4C808190E00E94770A65
S1130140809188329091893201968093883290937D
S1130150893202C00E94FC08DF91CF910895CF93A9
S1130160DF93C0910A33D0910B330E945708C45FC8
S1130170DC4C888380910A3390910B330196992744
S113018080930A3390930B33DF91CF9108956CEEF3
S113019071E68CE093E30E94470A892B11F080E01A
S11301A0089581E008950E9475008DB1877F8DB90F
S11301B08DE890E20197F1F700008DB188608DB968
S11301C09FE32DE083E0915020408040E1F700C0A0
S11301D000000E94C7000895FF920F931F93CF93CE
S11301E0DF938C010E94750084E20E94230884E25C
S11301F00E94230884E20E9423082AE684E091E016
S1130200215080409040E1F700C0F12C08C00E94CA
S11302101F08882321F088810E942308F394E801B1
S1130220CF0DD11D88818111F2CF2FE38DE093E0B2
S1130230215080409040E1F700C000008DE20E9410
S113024023088DE20E9423088DE20E9423088DE09A
S11302500E9423088AE00E9423082AE684E091E0B1
S1130260215080409040E1F700C01F930F93C0EFEE
S1130270D1E6DF93CF930E94610A8CE093E39F93CE
S11302808F93DF93CF930E94610A8DB79EB7089630
S11302908DBF9EBFDF91CF911F910F91FF90089565
S11302A08091883290918932892B39F1E09188329A
S11302B0F0918932E757FD4C80818D30F1F4E09163
S11302C08832F0918932E657FD4C8AE08083E091D0
S11302D08832F0918932E557FD4C10828AE892E326
S11302E00E94EC00109288321092893280E8EAE889
S11302F0F2E3DF011D928A95E9F7089583EF91E611
S11303000E94EC000E94C7000895CF92DF92EF9202
S1130310FF920F931F93CF93DF937C016B01FC013A
S113032083818F9382818F938AEF91E69F938F933A
S113033088E891E39F938F930E94AE0A88E891E343
S11303400E94EC000E94C7000F900F900F900F9036
S11303500F900F90882369F1F701458150E0440F15
S1130360551F61E173E388E891E30E94380AC0E015
S1130370D0E008E811E316C0C6018C0F9D1F9F93BF
S11303808F9385E092E69F938F931F930F930E9420
S1130390D00A0E5F1F4F21960F900F900F900F9071
S11303A00F900F90F701858190E0C817D90724F3C7
S11303B002C080E000C0DF91CF911F910F91FF90A8
S11303C0EF90DF90CF900895CF92DF92EF92FF925B
S11303D00F931F93CF93DF937C016B01C0E0D0E0B8
S11303E008E810E317C0F601EC0FFD1F80811F928F
S11303F08F938BE092E69F938F931F930F930E94AA
S1130400AE0A080F191F21960F900F900F900F90AE
S11304100F900F90F701858190E0C817D9071CF35E
S113042088E890E39F938F9383818F9382818F9346
S113043080E192E69F938F9388E891E39F938F9353
S11304400E94AE0A88E891E30E94EC008DB79EB743
S113045008968DBF9EBFDF91CF911F910F91FF90A2
S1130460EF90DF90CF9008958EE192E60E94EC0029
S1130470089582E292E60E94EC00089586E292E6F4
S11304800E94EC000895FC0121812F9380818F93B9
S11304908CE292E69F938F9388E891E39F938F93E6
S11304A00E94AE0A88E891E30E94EC000E94C70013
S11304B00F900F900F900F900F900F900895FC01E4
S11304C0958184811F929F931F928F9381818F9333
S11304D080818F9384E392E69F938F9388E891E3DE
S11304E09F938F930E94AE0A88E891E30E94EC00E8
S11304F00E94C7002DB73EB7265F3F4F2DBF3EBFBA
S113050008952F923F924F925F926F927F928F92B3
S11305109F92AF92BF92CF92DF92EF92FF920F938E
S11305201F93CF93DF93CDB7DEB7E297CDBFDEBF86
S11305302C01DC01ED91FC9122883388612C712C13
S11305406AC0F301EE0FFF1FE20DF31DC080D180DE
S1130550C6010E944302F6018680978080E090E005
S11305604DC0880F991FF401E80FF91F0081118114
S1130570C8010E945F02882309F465C0D601119660
S11305808C9111978F938C918F9386E492E69F932D
S11305908F93FE0131967F01FF93EF930E94AE0A81
S11305A0C7010E94EC00D801ED90FC90B7018CE0EB
S11305B093E30E94470AF70101900020E9F731977D
S11305C0EE19FF09319640E150E060E070E08E0FD3
S11305D09F1F0E941909F801628373837F936F93AD
S11305E081818F9380818F938EE492E69F938F9382
S11305F00E94610AC5010196CDBFDEBFD6011496E3
S11306002D913C9115975C018217930708F4A9CFAB
S1130610BFEF6B1A7B0AD201ED91FC91119781898E
S113062090E0681679060CF48CCF1296ED91FC914B
S113063013970280F381E02DC20109958FE792E6BA
S11306400E94EC0081E0E296CDBFDEBFDF91CF9146
S11306501F910F91FF90EF90DF90CF90BF90AF90DC
S11306609F908F907F906F905F904F903F902F90CE
S11306700895EF92FF920F931F93CF93DF937B0123
S1130680C0E0D0E008E810E317C0F701EC0FFD1F4D
S113069080811F928F938BE092E69F938F931F9399
S11306A00F930E94AE0A080F191F21960F900F9006
S11306B00F900F900F900F90C630D10534F388E857
S11306C090E39F938F9384E892E69F938F9388E8B7
S11306D091E39F938F930E94AE0A88E891E30E946E
S11306E0EC000F900F900F900F900F900F90DF91F0
S11306F0CF911F910F91FF90EF9008957F936F9387
S11307008BE892E69F938F9388E891E39F938F936E
S11307100E94AE0A88E891E30E94EC000F900F90CB
S11307200F900F900F900F9008957F936F9383E92C
S113073092E69F938F9388E891E39F938F930E940F
S1130740AE0A88E891E30E94EC000F900F900F909E
S11307500F900F900F9008950F931F931F930F9373
S11307603F932F935F934F937F936F938EE992E61A
S11307709F938F9388E891E39F938F930E94AE0A8F
S113078088E891E30E94EC008DB79EB70C968DBF6C
S11307909EBF1F910F9108950F931F93CF93DF93E3
S11307A0142F052F1F926F9387EB92E69F938F93DD
S11307B0C8E8D1E3DF93CF930E94AE0ACE010E9432
S11307C0EC000F931F938FEB92E69F938F93DF932D
S11307D0CF930E94AE0ACE010E94EC008DB79EB763
S11307E00C968DBF9EBFDF91CF911F910F910895FD
S11307F00F931F93CF93DF93EC01E881F98160811C
S113080071816115710511F00E943903E881F98144
S1130810628173816115710519F0CE010E947E0316
S1130820E881F981458156816481CE010E94CC031F
S1130830E881F98167817085CE010E949503E88182
S1130840F981078510892585368543855485618519
S11308507285CE010E94AC03EA81FB810280F381A0
S1130860E02DCE010995DF91CF911F910F9108954D
S1130870CF93DF93EC0187EC92E60E947E0A61E05D
S11308808FEA90E00E94BE0761E084E890E00E9455
S11308905A08EA81FB810280F381E02DCE0109959B
S11308A0EA81FB810480F581E02DCE010995CE011A
S11308B00E94F803CE010E948102DF91CF91089536
S11308C0CF93DF93CDB7DEB72A97CDBFDEBF789441
S11308D00E946D008AE0809329300AE210E3D80177
S11308E01A96ED91FC911B97C80109958AE0E2EEF6
S11308F0F1E6DE01119601900D928A95E1F7D80197
S11309001496ED91FC9115970280F381E02DBE01C0
S11309106F5F7F4F84E290E30995D8011496ED91BF
S1130920FC9115970280F381E02DBE016F5F7F4F2C
S113093084E290E30995D8011496ED91FC91159702
S11309400190F081E02DBE016F5F7F4F84E290E360
S11309500995E0913830F09139308AE290E30995B5
S1130960F8CF80E0089580E0089580E0089580E065
S113097008C0E82FF0E0E05FFB4F9081986090831F
S11309808F5F8830B0F380E008C0E82FF0E0E05DCE
S1130990FB4F9081986090838F5F8830B0F380E044
S11309A008C0E82FF0E0E05BFB4F908198609083F3
S11309B08F5F8830B0F380E008C0E82FF0E0E059A2
S11309C0FB4F9081986090838F5F8830B0F380E014
S11309D008C0E82FF0E0E057FB4F908198609083C7
S11309E08F5F8830B0F380E008C0E82FF0E0E05576
S11309F0FB4F9081986090838F5F8830B0F30895A7
S1130A0080B18D7F80B9E1E1F4E08081877F8083CC
S1130A1081B18E7F81B980B1816080B90E943F0825
S1130A20089584B38D7F84BBE1EBF4E08081877FFC
S1130A30808385B38E7F85BB84B3816084BB0E9431
S1130A40DC0808950E945607089581B1877F81B913
S1130A5080B1886080B9E3E1F4E08081877F80839E
S1130A6080818F7780838081887F808381B18B7F31
S1130A7081B980B1846080B9E2E1F4E08081877F4C
S1130A80808380818F7780838081887F80830E94A8
S1130A90290708950E94B7048DB188608DB98CB17F
S1130AA088608CB985B38F7E85BB84B3806184BB39
S1130AB0E4EBF4E08081877F808380818F7780837B
S1130AC08081887F80830E94B3040E9400050E9475
S1130AD011050E9422050E94B5040E9454070E9439
S1130AE025050E94B1040895E0EAF8E08481886055
S1130AF08483858181608583ECE0F4E380818E7F4B
S1130B00808313868EE00895ECE0F4E380818E7F89
S1130B108083138680E00895E0EAF8E084818360AE
S1130B2084830E9484050895ECE0F4E38081886066
S1130B308083818190E0880F991F81608093A7084A
S1130B4084E008950E94940508950E9494050895F0
S1130B50ECE0F4E38081886080838181880F809356
S1130B60A70883E008950E94A8050895ACE0B4E3C3
S1130B708C91877F8C9382E01B968C931B97509665
S1130B80ED91FC9151975C968D919C915D9709959F
S1130B90823019F0833021F006C00E94A505089523
S1130BA00E94B30508950E948C050895E0EAF8E0D8
S1130BB084818B7F848384E00895E0EAF8E0848173
S1130BC08B7F848383E00895E0EAF8E08481846085
S1130BD084838481836084830E9484050895E0EA89
S1130BE0F8E084818460848388E008958091A50876
S1130BF084FF19C0ACE0B4E35296ED91FC91539795
S1130C005E968D919C915F970995823019F083309F
S1130C1021F006C00E94A50508950E94B305089519
S1130C200E948C050895ECE0F4E38081877F808343
S1130C30A281B381CD010196828393838C918093A9
S1130C40A80884819581019784839583892B11F069
S1130C5083E0089585E00895CF93DF93ECE0F4E317
S1130C608081877F808384819581019731F4E0EAD4
S1130C70F8E084818460848305C0E0EAF8E084813C
S1130C808B7F8483ECE0F4E38481958101978483F2
S1130C909583892BA9F0DF01C281D381E0EAF8E0D2
S1130CA08085888312968D919C9113970196129654
S1130CB08D939C93139784818260848384E026C0FF
S1130CC0ACE0B4E31296ED91FC9113978091A808DF
S1130CD0808312968D919C911397019612968D9311
S1130CE09C9313978C9184608C931C96ED91FC914A
S1130CF01D9758968D919C915997099582508230F1
S1130D0018F40E94EF0502C00E94E405DF91CF9120
S1130D1008958091A50884FF19C0ACE0B4E352960D
S1130D20ED91FC9153975E968D919C915F970995F7
S1130D30823019F0833021F006C00E94A505089581
S1130D400E94B30508950E948C050895ACE0B4E3B5
S1130D508C9184608C931C96ED91FC911D97589610
S1130D608D919C9159970995833039F0843041F0E5
S1130D70823049F40E94A50508950E94B3050895A0
S1130D800E94F60508950E948C050895E0EAF8E0B3
S1130D90858188608583ACE0B4E382E01B968C9304
S1130DA01B971E96ED91FC911F975A968D919C91DD
S1130DB05B970995823019F0833021F006C00E94B8
S1130DC0A50508950E94B30508950E947405089529
S1130DD0E0EAF8E08481886084838581816085838A
S1130DE0ECE0F4E380818E7F808382E083878EE071
S1130DF00895CF93DF93E0EAF8E08581806C8583E2
S1130E0080910C3483FF07C08091A50884FF03C040
S1130E108FE0809316348091A50883FF03C080E19E
S1130E20809316348091A50882FF03C081E18093EA
S1130E301634CCE0D4E3EA85F0E0EE0FFF1FE25B6A
S1130E40FF4C0190F081E02D09958A87DF91CF91C5
S1130E500895E0EAF8E08BE0868381EC83830895CB
S1130E601F920F920FB60F9211242F933F934F931B
S1130E705F936F937F938F939F93AF93BF93EF93FE
S1130E80FF930E94F906FF91EF91BF91AF919F915B
S1130E908F917F916F915F914F913F912F910F901F
S1130EA00FBE0F901F90189580E0089580E008957C
S1130EB090910008E0913B37EF5F80913A37E81753
S1130EC059F0E0933B37F0E0E45CF84C9083809178
S1130ED039378F5F80933937089580913636882368
S1130EE081F0E0913736EF5FE0933736F0E0E75C6E
S1130EF0F94C80818093020880913636815080932A
S1130F00363680913636811105C0E0E0F8E08581FF
S1130F108F7D8583089590914008E0913535EF5F8A
S1130F2080913435E81759F0E0933535F0E0EA5C08
S1130F30FA4C9083809133358F5F809333350895D5
S1130F4080913034882381F0E0913134EF5FE09375
S1130F503134F0E0ED5CFB4C808180934208809159
S1130F60303481508093303480913034811105C005
S1130F70E0E4F8E085818F7D85830895613019F080
S1130F80623031F0089580938630909387300895CD
S1130F90809384309093853008951F920F920FB6FA
S1130FA00F9211242F933F934F935F936F937F93EB
S1130FB08F939F93AF93BF93EF93FF93E09186300A
S1130FC0F0918730309709F00995FF91EF91BF9127
S1130FD0AF919F918F917F916F915F914F913F91CD
S1130FE02F910F900FBE0F901F9018951F920F9284
S1130FF00FB60F9211242F933F934F935F936F93E8
S11310007F938F939F93AF93BF93EF93FF93E0915D
S11310108430F0918530309709F00995FF91EF9174
S1131020BF91AF919F918F917F916F915F914F91FC
S11310303F912F910F900FBE0F901F9018958091A4
S1131040363681E00895909138369F5F2091363688
S1131050E92FF0E0E75CF94C8083909338360FB6C3
S1131060F8940F92809136368F5F809336360F90C6
S11310700FBEE0E0F8E08581806285830895E0E0BA
S1131080F8E084E790E08087918780E8858380ECAE
S1131090868310923A3710923B3710923937109268
S11310A03736109238361092363680E008958091A3
S11310B000080895613019F0623031F0089580938A
S11310C07430909375300895809372309093733098
S11310D008951F920F920FB60F9211242F933F93EE
S11310E04F935F936F937F938F939F93AF93BF932C
S11310F0EF93FF93E0917430F0917530309709F0DD
S11311000995FF91EF91BF91AF919F918F917F913D
S11311106F915F914F913F912F910F900FBE0F9060
S11311201F9018951F920F920FB60F9211242F93B0
S11311303F934F935F936F937F938F939F93AF935B
S1131140BF93EF93FF93E0917230F0917330309737
S113115009F00995FF91EF91BF91AF919F918F9104
S11311607F916F915F914F913F912F910F900FBE9F
S11311700F901F901895909132349F5F20913034D6
S1131180E92FF0E0ED5CFB4C8083909332340FB692
S1131190F8940F92809130348F5F809330340F90A5
S11311A00FBEE0E4F8E085818062858308950E94A3
S11311B0BB0880E090E00895E0E4F8E084E790E084
S11311C08087918780E8858380EC868381E08387AC
S11311D010923435109235351092333510923134E3
S11311E0109232341092303486E790E380933E3884
S11311F090933F3880E008958091400808950E94BC
S11312000A09A59F900DB49F900DA49F800D911D78
S113121011240895A29FB001B39FC001A39F700D34
S1131220811D1124911DB29F700D811D1124911DEA
S11312300895A0E0B0E0EFE1F9E00C94BF105C0188
S11312406B017A016115710519F0FB0180839183AB
S1131250E114F10429F0C7010297839708F0E5C06F
S1131260E5012196F5011081812F90E00E942F0A5B
S1131270892B11F05E01F4CF1D3229F42196F5017A
S1131280118101E007C01B3221F4E5012296F5012A
S1131290118100E0E114F10409F1F0E1EF16F10429
S11312A029F43FC010E3E114F10421F128E0E2162F
S11312B0F10401F154F4E2E0EE16F10421F5812C7D
S11312C0912CA12CB0E4BB2E3EC0FAE0EF16F10441
S11312D039F020E1E216F104B1F430C0103319F111
S11312E0FAE0EF2EF12CACEC8A2E982CA82CACE072
S11312F0BA2E29C078E0E72EF12C812C912CA12C58
S1131300E0E1BE2E20C060E070E080E090E897014C
S11313100F2C000C440B550B0E949C1049015A01E0
S113132012C0103359F488818F7D883509F0BACF03
S113133019812296026080E1E82EF12C812C912CF7
S1131340A12C68E0B62E40E060E070E0CB012701FC
S11313500F2C000C66087708FE0150ED352E310E77
S113136029E0231570F42FEB210F2A3118F439ECFE
S1131370332E06C02FE9210F2A3118F529EA322E1F
S1131380310E232D30E02E153F05DCF447FD16C049
S113139086169706A806B90670F0A30192010E946A
S11313A08C10630D711D811D911D613071058105C6
S11313B020E8920710F04FEF01C041E02196108120
S11313C0CBCF202F2170C114D10471F0442329F014
S11313D02197F601C083D18307C001FF19C022976A
S11313E0F601C083D18314C047FF12C0222329F021
S11313F060E070E080E090E804C06FEF7FEF8FEF73
S11314009FE722E230E0209342383093433809C00A
S1131410222381F090958095709561957F4F8F4F31
S11314209F4F462F372F282F12C040E030E020E096
S113143090E00DC097FFF5CF82E290E080934238B0
S1131440909343386FEF7FEF8FEF9FE7EACF642FDE
S1131450732F822FCDB7DEB7E1E10C94D810911130
S11314600C94770F803219F089508550C8F708958D
S1131470FB01DC014150504048F001900D920020E6
S1131480C9F701C01D9241505040E0F70895FB0197
S113149051915523A9F0BF01DC014D91451741112C
S11314A0E1F759F4CD010190002049F04D91401528
S11314B04111C9F3FB014111EFCF81E090E00197A5
S11314C00895A0E0B0E0E7E6FAE00C94CE10AE0197
S11314D04B5F5F4FFA0161917191AF0180913E388A
S11314E090913F380E94E90AE2E00C94E710609181
S11314F03E3870913F380E94D90F08950F931F937F
S1131500CF93DF93E0913E38F0913F38238121FF60
S11315101BC08C01D0E0C0E0F80181918F01609183
S11315203E3870913F38DB011896ED91FC91199784
S1131530882331F00995892B79F3DFEFCFEFECCFD6
S11315408AE00995892B19F08FEF9FEF02C08D2F48
S11315509C2FDF91CF911F910F910895AEE0B0E0E1
S1131560E4EBFAE00C94CC100D891E8986E08C83A0
S113157009831A838FEF9FE78D839E83AE01475EB5
S11315805F4F6F89788DCE0101960E94E90AEF8141
S1131590F885E00FF11F10822E96E4E00C94E5101C
S11315A0AEE0B0E0E6EDFAE00C94CE1085E08C837A
S11315B08B899C8989839A83AE01495E5F4F6D89CB
S11315C07E89CE0101960E94660E2E96E2E00C946E
S11315D0E710ABE0B0E0EFEEFAE00C94BE106C0163
S11315E07B018A01FC0116821782838181FFCCC1B1
S11315F0CE0101963C01F6019381F70193FD85919B
S113160093FF81917F01882309F4BAC1853239F4AB
S113161093FD859193FF81917F01853229F4B60171
S113162090E00E94D90FE7CF912C212C312CFFE1BF
S1131630F315D8F08B3279F038F4803279F08332B4
S1131640A1F4232D20611DC08D3261F0803369F433
S1131650232D216016C0832D8260382EE32DE46093
S11316603E2E2AC0F32DF8601DC037FC2DC020ED9E
S1131670280F2A3040F08E32B9F436FC81C1232D74
S11316802064322E19C036FE06C08AE0989E200DD2
S11316901124922E11C0EAE02E9E200D1124222E38
S11316A0F32DF0623F2E08C08C3621F4832D806820
S11316B0382E02C0883641F4F70193FD859193FFDB
S11316C081917F018111B3CF982F9F7D95549330E1
S11316D028F40C5F1F4F9FE399830DC0833631F0CC
S11316E0833771F0833509F059C021C0F801808136
S11316F089830E5F1F4F88248394912C530113C058
S11317002801F2E04F0E511CF801A080B18036FE92
S113171003C0692D70E002C06FEF7FEFC5010E9426
S1131720900F4C018201F32DFF773F2E16C0280144
S113173022E0420E511CF801A080B18036FE03C0A5
S1131740692D70E002C06FEF7FEFC5010E94850F25
S11317504C01F32DF0683F2E820133FC1BC0822D17
S113176090E088169906B0F4B60180E290E00E94F9
S1131770D90F2A94F4CFF50137FC859137FE819176
S11317805F01B60190E00E94D90F21102A9421E054
S1131790821A91088114910471F7E8C0843611F01B
S11317A0893641F5F80137FE07C060817181828175
S11317B093810C5F1F4F08C060817181072E000C5C
S11317C0880B990B0E5F1F4FF32DFF763F2E97FF6B
S11317D009C090958095709561957F4F8F4F9F4F6D
S11317E0F0683F2E2AE030E0A3010E942E10882EDC
S11317F0861845C0853731F4232D2F7EB22E2AE07A
S113180030E025C0932D997FB92E8F36C1F018F49E
S1131810883579F0B5C0803719F0883721F0B0C029
S1131820E92FE061BE2EB4FE0DC0FB2DF460BF2E87
S113183009C034FE0AC0292F2660B22E06C028E053
S113184030E005C020E130E002C020E132E0F801E0
S1131850B7FE07C060817181828193810C5F1F4F45
S113186006C06081718180E090E00E5F1F4FA3018C
S11318700E942E10882E8618FB2DFF773F2E36FEF1
S11318800DC0232D2E7FA22E891458F434FE0BC0D4
S113189032FC09C0832D8E7EA82E05C0B82CA32C43
S11318A003C0B82C01C0B92CA4FE0FC0FE01E80D82
S11318B0F11D8081803321F49A2D997EA92E09C0CF
S11318C0A2FE06C0B394B39404C08A2D867809F0AE
S11318D0B394A3FC11C0A0FE06C0B21488F4280C73
S11318E0922C9B180EC0B21460F4B60180E290E012
S11318F00E94D90FB394F7CFB21418F42B1802C076
S1131900982C212CA4FE10C0B60180E390E00E9424
S1131910D90FA2FE17C0A1FC03C088E790E002C063
S113192088E590E0B6010CC08A2D867859F0A1FEB6
S113193002C08BE201C080E2A7FC8DE2B60190E018
S11319400E94D90F891438F4B60180E390E00E9414
S1131950D90F9A94F7CF8A94F301E80DF11D808191
S1131960B60190E00E94D90F8110F5CF222009F42E
S113197042CEB60180E290E00E94D90F2A94F6CFBD
S1131980F6018681978102C08FEF9FEF2B96E2E1EB
S11319900C94D71020FD09C0FC0123FD05C022FFD3
S11319A002C07383628351834083089544FD17C04A
S11319B046FD17C0AB01BC01DA01FB01AA0FBB1F36
S11319C0EE1FFF1F1094D1F74A0F5B1F6E1F7F1F7E
S11319D0CB01BA01660F771F881F991F09C033E036
S11319E001C034E0660F771F881F991F3150D1F76B
S11319F0620F711D811D911D08950F931F93CF9345
S1131A00DF938C01C8010E949B0FEC0197FD08C075
S1131A100E942F0A892BB1F7B801CE010E9415103C
S1131A20CE01DF91CF911F910F9108958F929F92D4
S1131A30AF92BF92EF92FF920F931F93CF93DF93D6
S1131A408C01D62F7A01B22E0E949B0F9C01332762
S1131A502B32310531F02D32310561F48B2D806844
S1131A60B82ED15011F480E068C0C8010E949B0FC9
S1131A7097FDF9CFCB2DCD7F2B2D207309F5803326
S1131A80F9F4AA24AA94AD0E09F443C0C8010E9433
S1131A909B0F97FD3EC09C012F7D332728353105D0
S1131AA049F4C264D250A9F1C8010E949B0F97FF68
S1131AB007C02FC0B6FE02C0C26001C0C261DA2DE9
S1131AC0812C912C540120ED280F283080F0C4FF84
S1131AD004C0B8010E94151019C02A3040F0C6FF96
S1131AE0F8CF2F7D3FEE320F363098F727504C2F2A
S1131AF0C501B4010E94D60C4B015C01C260D150F7
S1131B0059F0C8010E949B0F97FFDDCFC1FD04C0AF
S1131B10AACF812C912C5401C7FF08C0B094A09483
S1131B2090948094811C911CA11CB11C2C2FB50194
S1131B30A401C7010E94CA0C81E0DF91CF911F91DB
S1131B400F91FF90EF90BF90AF909F908F9008956A
S1131B50A0E2B0E0EEEAFDE00C94C1105C01962E28
S1131B607A01F9018E010F5F1F4F680180E2D801ED
S1131B701D928A95E9F7D50113968C9080E090E048
S1131B80612C712C30E061E070E083FC259183FED0
S1131B9021918F01522E211103C080E090E092C068
S1131BA02E3511F4009751F1432F50E0481759078F
S1131BB03CF42D3559F12D3219F4772009F103C085
S1131BC0772009F46AC0452D469546954695D60179
S1131BD0A40FB11D452D47708B0102C0000F111FCA
S1131BE04A95E2F7A8015C91452B4C93651459F092
S1131BF0561410F45394E7CF5A94E5CF31E004C05F
S1131C007724739401C0712C0196BFCF772019F00B
S1131C108E8180628E83311103C08824839417C01F
S1131C20F6019E012F5D3F4F8081809581932E1791
S1131C303F07D1F7F2CFE114F10429F0D7018C93D7
S1131C40F70131967F019A94812C9920F9F0C5010E
S1131C500E949B0F97FD18C0FC01FF2723E0F59518
S1131C60E7952A95E1F7EC0DFD1D208130E0AC01EC
S1131C704770552702C0359527954A95E2F720FD10
S1131C80DACFB5010E941510811087CFE114F10459
S1131C9011F0D7011C92C80115C0422F46954695F4
S1131CA04695D601A40FB11D422F47708B0102C087
S1131CB0000F111F4A95E2F7A8015C91452B4C9344
S1131CC0622EA2CFA096EFE00C94DA10A0E0B0E070
S1131CD0ECE6FEE00C94C1106C01EB015A01FC012E
S1131CE016821782512CF601E380FE01E3FC8591F4
S1131CF0E3FE8191182FEF01882309F4EEC090E0F0
S1131D000E942F0A892B21F0C6010E94FD0CEBCF03
S1131D10153241F4FE01E3FC1591E3FE1191EF014C
S1131D20153281F4C6010E949B0F97FDD4C0412F48
S1131D3050E09C01332724173507A9F2B6010E940D
S1131D401510CBC01A3239F4E3FC1591E3FE11915E
S1131D50EF0101E001C000E0F12C20ED210F2A3059
S1131D6080F402606F2D70E080E090E040E20E9419
S1131D70D60CF62EFE01E3FC1591E3FE1191EF0162
S1131D80ECCF01FF03C0F11003C0A7C0FF24FA94F5
S1131D90183619F01C3651F010C0FE01E3FC159101
S1131DA0E3FE1191EF01183641F408600460FE016E
S1131DB0E3FC1591E3FE1191EF01112309F48DC0A9
S1131DC0612F70E080E990E00E947A0F892B09F47A
S1131DD084C000FD07C0F50180809180C501029692
S1131DE05C0102C0812C912C1E3651F4F60146810F
S1131DF0578160E070E0202FC4010E94CA0C73CFA9
S1131E001336A9F401FD02C0FF24F394C6010E9415
S1131E109B0F97FD60C08114910429F0F401808325
S1131E20C40101964C01FA94F110F0CF50C01B3557
S1131E3059F49E01A4016F2DC6010E94A80DEC0166
S1131E40892B09F044C03EC0C6010E94FD0C97FDD9
S1131E5042C01F3661F128F4143639F1193651F1B4
S1131E6028C0133771F0153701F123C08114910490
S1131E7029F0F4016082C40101964C01FA94FF2018
S1131E8071F0C6010E949B0F3C0197FD08C00E949F
S1131E902F0A892B59F3B601C3010E94151081142E
S1131EA09104A9F0F401108212C0006203C0006121
S1131EB001C00064202FA4016F2DC6010E94160DDD
S1131EC0811105C0F6018381807329F406C000FDE9
S1131ED00ACF539408CF552019F0852D90E002C005
S1131EE08FEF9FEFCDB7DEB7EFE00C94DA109927B0
S1131EF088270895FC010590061621F00020D9F7E3
S1131F00C00108953197CF010895FC0105906150F7
S1131F1070400110D8F7809590958E0F9F1F0895FB
S1131F20FC016150704001900110D8F780959095A4
S1131F308E0F9F1F0895CF93DF93EC012B8120FF19
S1131F4033C026FF0AC02F7B2B838E819F8101968D
S1131F508E839F838A8190E029C022FF0FC0E8818D
S1131F60F9818081082E000C990B009719F42062E6
S1131F702B831AC03196E883F9830EC0EA85FB856A
S1131F80099597FF09C02B81019611F080E201C0E9
S1131F9080E1822B8B8308C02E813F812F5F3F4FCE
S1131FA02E833F83992702C08FEF9FEFDF91CF915C
S1131FB008950F931F93CF93DF93FB01238121FD9A
S1131FC003C08FEF9FEF2CC022FF16C046815781BC
S1131FD0248135814217530744F4A081B1819D01C6
S1131FE02F5F3F4F208331838C93268137812F5F6E
S1131FF03F4F2683378314C08B01EC01FB0100841F
S1132000F185E02D0995892BE1F6D80116968D917D
S11320109C911797019616968D939C931797CE01D2
S1132020DF91CF911F910F910895FB01238120FF30
S113203012C026FD10C08F3F3FEF930761F08283EB
S11320402F7D206423832681378121503109268303
S11320503783992708958FEF9FEF0895FA01AA27F0
S1132060283051F1203181F1E8946F936E7F6E5FD7
S11320707F4F8F4F9F4FAF4FB1E03ED0B4E03CD085
S1132080670F781F891F9A1FA11D680F791F8A1F68
S1132090911DA11D6A0F711D811D911DA11D20D0CF
S11320A009F468943F912AE0269F11243019305D89
S11320B03193DEF6CF010895462F4770405D41937A
S11320C0B3E00FD0C9F7F6CF462F4F70405D4A33C7
S11320D018F0495D31FD4052419302D0A9F7EACF8F
S11320E0B4E0A6959795879577956795BA95C9F7BE
S11320F000976105710508959B01AC010A2E0694B1
S11321005795479537952795BA95C9F7620F731F69
S1132110841F951FA01D0895DB018F939F930E9438
S1132120FF08BF91AF91A29F800D911DA39F900DB9
S1132130B29F900D11240895A1E21A2EAA1BBB1B75
S1132140FD010DC0AA1FBB1FEE1FFF1FA217B3077F
S1132150E407F50720F0A21BB30BE40BF50B661F95
S1132160771F881F991F1A9469F760957095809559
S113217090959B01AC01BD01CF0108952F923F9230
S11321804F925F926F927F928F929F92AF92BF9283
S1132190CF92DF92EF92FF920F931F93CF93DF932F
S11321A0CDB7DEB7CA1BDB0BCDBFDEBF09942A88CF
S11321B0398848885F846E847D848C849B84AA8457
S11321C0B984C884DF80EE80FD800C811B81AA81E4
S11321D0B981CE0FD11DCDBFDEBFED010895F894B6
S10521E0FFCF2B
S11321E223334455AAFFDDAA33AA4572720025732C
S11321F20053462C320D0A005348522C25303458D1
S11322020D0A0025326868580025303258005348B8
S1132212572C253034582C25730D0A00410D0A0021
S1132222590D0A004B2C310D0A0050532C25730D05
S11322320A0050432C25732C253032582C25303279
S1132242580D0A004C532C25730D0A005265676918
S11322527374657265642063686172616374657224
S113226269737469632025732C2077697468206804
S1132272616E646C6520253034580D0A004C530D90
S11322820A00262C25730D0A00532D2C25730D0AE2
S1132292005344412C253034580D0A0053542C2544
S11322A23034582C253034582C253034582C2530D1
S11322B234580D0A0053412C25640D0A0053502C46
S11322C225730D0A000D0A496E697469616C697A95
S11322D2696E6720726E343837780D0032413938AE
S11322E23146344337343438343146383833453858
S11322F23842463937464534363338310044304162
S1132302353132443630443831343543324245442F
S11323124436323145463143424245464200373320
S1132322363537424438324430343443333141331E
S113233231453534444531444142363646460072CD
S11023426E34383730003132333435360014
S113234F24301E301630340239023E028501E40176
S113235F7000D3007E01DE62000002000030FF62D5
S113236F000002012063000002013A3010300C30EB
S113237F0630000038040000500100004163044897
S113238F6300000600000000020000010430840511
S113239F9405A805F6052C068906A505B305A2051F
S11323AF8C05D605DD05E405EF057405B605C606EF
S11323BFE806A0078B070000000200000000D70802
S10B23CF000000006D0758072F
S9030000FC
