S0120000626C655F73656E736F722E73726563E6
S11300000C9448000C9465000C9465000C946500F5
S11300100C9465000C9465000C9465000C946500C8
S11300200C9465000C9465000C9465000C946500B8
S11300300C9465000C9465000C9465000C94700895
S11300400C9465000C94EC090C94150A0C9465004E
S11300500C9465000C9465000C9465000C94650088
S11300600C9465000C9465000C9465000C94650078
S11300700C9465000C9465000C9465000C948E0A35
S11300800C94B70A0C9465000C9465000C946500FC
S113009011241FBECFEFCDBFDFE3DEBF10E3A0E02E
S11300A0B0E3E5EDF4E202C005900D92AA33B10786
S11300B0D9F724E3AAE3B0E301C01D92A132B20749
S11300C0E1F70E947C040C94BE110C9400000E9481
S11300D0C205089586E892E3089510923A3010928A
S11300E03B308DB1877F8DB98DE890E20197F1F7B0
S11300F000008DB188608DB99FE32DE083E09150BD
S113010020408040E1F700C000000895EF92FF9284
S11301101F93CF93DF937C0110923A3010923B30BF
S113012080E091E0E6E8F2E3DF019C011D922150BA
S11301303040E1F710E008C00E943E0A882321F015
S113014088810E94450A1F5FE701C10FD11D888184
S11301508111F2CF3FE38DE093E031508040904035
S1130160E1F700C000000E946A00C82FD92F60E8A0
S113017073E60E94750E892B81F0DF93CF93FF9273
S1130180EF9284E893E69F938F930E948F0E0F90D3
S11301900F900F900F900F900F90DF91CF911F91C0
S11301A0FF90EF9008959F938F9380E993E69F9338
S11301B08F9386E893E39F938F930E94A50E86E81E
S11301C093E30E94860040E150E060E070E086E83E
S11301D092E30E94560D0F900F900F900F900F9086
S11301E00F90CB010895CF93DF937F936F939F93E9
S11301F08F9389E993E69F938F93C6E8D3E3DF93C4
S1130200CF930E94A50EDF93CF938BE893E69F9341
S11302108F930E948F0ECE010E9486008DB79EB7E9
S11302200C968DBF9EBFDF91CF910895CF93DF933E
S1130230C0913A30D0913B300E947C0ACA57DD4CC1
S1130240888380913A3090913B300196992780932E
S11302503A3090933B30DF91CF91089561E086E18D
S113026091E00E94DD090E946D0085EA93E60E94F8
S1130270860089EA93E60E94860085EA93E60E9456
S1130280860080EB93E60E9486008CEB93E60E9446
S1130290860088EC93E60E9486008EEE93E60E9428
S11302A086008AE194E60E9486000E946D0085EA39
S11302B093E60E94860086E494E60E9486008BE41E
S11302C094E69F938F930E948F0E0E946A009F93DF
S11302D08F938CE694E69F938F930E948F0E0F90DA
S11302E00F900F900F900F900F90089562E089E1A6
S11302F00E94FC088170089564E089E10E94FC0872
S11303008170089566E089E10E94FC088170089577
S1130310FF920F931F93CF93DF930E94760188235C
S1130320E1F362E089E10E94FC08182F63E089E1AF
S11303300E94FC08C82FD0E0DC2FCC27C12BD59518
S1130340C795D595C795D595C795D595C7950E9459
S11303507C018823E1F364E089E10E94FC08F82E23
S113036065E089E10E94FC08082F10E0102F0027A7
S11303700F291595079515950795159507951595C5
S113038007950E9482018823E1F366E089E10E94D7
S1130390FC08F82E67E089E10E94FC0890E0982FA1
S11303A088278F2995958795959587959595879510
S11303B0959587959F938F931F930F93DF93CF9377
S11303C081E994E69F938F930E948F0E8DB79EB719
S11303D008968DBF9EBFDF91CF911F910F91FF9023
S11303E0089565E088E10E943C09292F332727FD01
S11303F03A95A9014F715527992724FF14C02F70EE
S1130400332722953295307F3227207F32279595E6
S11304108795959587959595879595958795820F59
S1130420931F9A95089542955295507F5427407F83
S11304305427959587959595879595958795959541
S11304408795840F951F089560E38FE50E94FC084B
S113045090E0809308349093093461E38FE50E941F
S1130460FC0890E0809306349093073462E38FE5B0
S11304700E94FC0890E0809315349093163465E351
S11304808FE50E94FC08837090E0982F88272091C4
S1130490153430911634822B932B8093153490931A
S11304A0163463E38FE50E94FC0890E080930C34DB
S11304B090930D3465E38FE50E94FC088C7020E472
S11304C0829FC001112420910C3430910D34822B71
S11304D0932B80930C3490930D3466E38FE50E9444
S11304E0FC0890E080930F349093103467E38FE519
S11304F00E94FC0890E0982F882720910F343091B7
S11305001034822B932B80930F34909310346AE32E
S11305108FE50E94FC0890E0809317349093183480
S11305206BE38FE50E94FC0890E0982F88272091C8
S1130530173430911834822B932B80931734909373
S113054018346CE38FE50E94FC0890E080930A3431
S113055090930B346DE38FE50E94FC0890E0982F94
S1130560882720910A3430910B34822B932B80936B
S11305700A3490930B346EE38FE50E94FC0890E0FC
S113058080931134909312346FE38FE50E94FC083A
S113059090E0982F88272091113430911234822BC7
S11305A0932B809311349093123408952FE38DE0AC
S11305B093E0215080409040E1F700C000004BE1FF
S11305C060E18FE50E94B80880930E3447EE60E244
S11305D08FE50E94B80880930E3440E061E28FE515
S11305E00E94B80880930E3440E062E28FE50E94D6
S11305F0B80880930E340E94240208958F929F922B
S1130600AF92BF92CF92DF92EF92FF920F931F931C
S1130610CF93DF9367E28FE50E94FC0881FF84C0DB
S113062068E28FE50E94FC08C82ED12CE12CF12C45
S113063069E28FE50E94FC0890E0A0E0B0E0BA2FE8
S1130640A92F982F8827C82AD92AEA2AFB2A81E0C9
S1130650C81680E8D806E104F1041CF081E0E81A29
S1130660F1080091083410910934B801012E000CEE
S1130670880B990B0E943B0C20E030E040E05FE3E4
S11306800E94C70C4B015C01C0910F34D09110340F
S1130690CE010D2E000CAA0BBB0BA7019601281B43
S11306A0390B4A0B5B0BA0910634B0910734A01BA5
S11306B0B10B0E94340D0E943B0C20E030E040E07E
S11306C05FE30E94C70C6B017C0160911734709149
S11306D018346C1B7D0B072E000C880B990B0E94A1
S11306E03B0C9B01AC01C701B6010E94910B9B011D
S11306F0AC01C501B4010E94250BC62ED72EE82EED
S1130700F92E0E94030C7F936F9387EA94E69F93DC
S11307108F930E948F0E0F900F900F900F905C2D6F
S11307204D2D3E2D2F2D04C050E040E030E020E060
S1130730652F742F832F922FDF91CF911F910F91EB
S1130740FF90EF90DF90CF90BF90AF909F908F90ED
S113075008958F929F92AF92BF92CF92DF92EF92C1
S1130760FF920F931F93CF93DF9367E28FE50E946D
S1130770FC0880FF84C06AE28FE50E94FC08C82E52
S1130780D12CE12CF12C6BE28FE50E94FC0890E067
S1130790A0E0B0E0BA2FA92F982F8827C82AD92A19
S11307A0EA2AFB2A81E0C81680E8D806E104F104AD
S11307B01CF081E0E81AF108009115341091163408
S11307C0B801012E000C880B990B0E943B0C20E011
S11307D030E040E05EE30E94C70C4B015C01C09135
S11307E00A34D0910B34CE010D2E000CAA0BBB0B96
S11307F0A7019601281B390B4A0B5B0BA0910C3403
S1130800B0910D34A01BB10B0E94340D0E943B0C1F
S113081020E030E040E05EE30E94C70C6B017C0105
S113082060911134709112346C1B7D0B072E000CF7
S1130830880B990B0E943B0C9B01AC01C701B601CC
S11308400E94910B9B01AC01C501B4010E94250BD0
S1130850C62ED72EE82EF92E0E94030C7F936F9399
S113086089EB94E69F938F930E948F0E0F900F90C5
S11308700F900F905C2D4D2D3E2D2F2D04C050E078
S113088040E030E020E0652F742F832F922FDF911A
S1130890CF911F910F91FF90EF90DF90CF90BF9079
S11308A0AF909F908F90089586B386958695869590
S11308B091E08927817008950E94210B85B38F7E72
S11308C085BB609142307091433080914430909167
S11308D045300E943B0C20E030E048EC52E40E949A
S11308E0250B0E94030C60933E3070933F3080933D
S11308F040309093413008950E9467002AE684E0D6
S113090091E0215080409040E1F700C078940E942B
S1130910D602EAE6F4E021E0E150F0402040E1F7BD
S113092000C061E08CE594E00E947F0AE09183645A
S1130930F091846409958FE794E8EEE1815090404A
S1130940E040E1F700C08091423090914330A091A3
S11309504430B09145300196A11DB11D80934230C1
S113096090934330A0934430B0934530C091896450
S1130970D0918A640E94A9030E94030C86EC94E639
S1130980FE0109950E94FE020E94030C8BEC94E682
S1130990FE010995409142305091433060914430BA
S11309A07091453080913E3090913F30A09140301D
S11309B0B091413084179507A607B7071CF485B397
S11309C0806185BB0E9454048823E9F090913D30F6
S11309D0911119C085B38F7D85BB81E080933D3033
S11309E0C0918964D0918A640E94F101BC0186ECB3
S11309F094E6FE0109950E94F101BC018BEC94E69A
S1130A00FE0109951EC081111CC080913D308823D0
S1130A10C1F085B3806285BB10923D30E0918B6458
S1130A20F0918C6486EC94E609959F938F9380ED06
S1130A3094E69F938F930E948F0E0F900F900F90C8
S1130A400F9080913C30882309F475CF0E9488016F
S1130A5072CF80E0089580E0089580E0089580E0FA
S1130A6008C0E82FF0E0E05FFB4F9081986090832E
S1130A708F5F8830B0F380E008C0E82FF0E0E05DDD
S1130A80FB4F9081986090838F5F8830B0F380E053
S1130A9008C0E82FF0E0E05BFB4F90819860908302
S1130AA08F5F8830B0F380E008C0E82FF0E0E059B1
S1130AB0FB4F9081986090838F5F8830B0F380E023
S1130AC008C0E82FF0E0E057FB4F908198609083D6
S1130AD08F5F8830B0F380E008C0E82FF0E0E05585
S1130AE0FB4F9081986090838F5F8830B0F30895B6
S1130AF080B18D7F80B9E1E1F4E08081877F8083DC
S1130B0081B18E7F81B980B1816080B90E94640A0D
S1130B10089584B38D7F84BBE1EBF4E08081877F0B
S1130B20808385B38E7F85BB84B3816084BB0E9440
S1130B30010B08950E947309089581B1877F81B9DB
S1130B4080B1886080B9E3E1F4E08081877F8083AD
S1130B5080818F7780838081887F808381B18B7F40
S1130B6081B980B1846080B9E2E1F4E08081877F5B
S1130B70808380818F7780838081887F80830E94B7
S1130B80DA0708950E942F058DB188608DB98CB164
S1130B9088608CB985B38F7E85BB84B3806184BB48
S1130BA0E4EBF4E08081877F808380818F7780838A
S1130BB08081887F80830E942B050E9478050E9493
S1130BC089050E949A050E942D050E9471090E94C0
S1130BD09D050E9429050895E0EAF8E08481886073
S1130BE08483858181608583E6E4F0E380818E7F60
S1130BF0808313868EE00895E6E4F0E380818E7F9F
S1130C008083138680E00895E0EAF8E084818360BD
S1130C1084830E94FC050895E6E4F0E38081886003
S1130C208083818190E0880F991F81608093A70859
S1130C3084E008950E940C0608950E940C0608950D
S1130C40E6E4F0E38081886080838181880F80936B
S1130C50A70883E008950E9420060895A6E4B0E35F
S1130C608C91877F8C9382E01B968C931B97509674
S1130C70ED91FC9151975C968D919C915D970995AE
S1130C80823019F0833021F006C00E941D060895B9
S1130C900E942B0608950E9404060895E0EAF8E0F5
S1130CA084818B7F848384E00895E0EAF8E0848182
S1130CB08B7F848383E00895E0EAF8E08481846094
S1130CC084838481836084830E94FC050895E0EA20
S1130CD0F8E084818460848388E008958091A50885
S1130CE084FF19C0A6E4B0E35296ED91FC915397AA
S1130CF05E968D919C915F970995823019F08330AF
S1130D0021F006C00E941D0608950E942B06089536
S1130D100E9404060895E6E4F0E38081877F8083DF
S1130D20A281B381CD010196828393838C918093B8
S1130D30A80884819581019784839583892B11F078
S1130D4083E0089585E00895CF93DF93E6E4F0E32C
S1130D508081877F808384819581019731F4E0EAE3
S1130D60F8E084818460848305C0E0EAF8E084814B
S1130D708B7F8483E6E4F0E3848195810197848307
S1130D809583892BA9F0DF01C281D381E0EAF8E0E1
S1130D908085888312968D919C9113970196129663
S1130DA08D939C93139784818260848384E026C00E
S1130DB0A6E4B0E31296ED91FC9113978091A808F4
S1130DC0808312968D919C911397019612968D9320
S1130DD09C9313978C9184608C931C96ED91FC9159
S1130DE01D9758968D919C91599709958250823000
S1130DF018F40E94670602C00E945C06DF91CF913E
S1130E0008958091A50884FF19C0A6E4B0E3529622
S1130E10ED91FC9153975E968D919C915F97099506
S1130E20823019F0833021F006C00E941D06089517
S1130E300E942B0608950E9404060895A6E4B0E3D8
S1130E408C9184608C931C96ED91FC911D9758961F
S1130E508D919C9159970995833039F0843041F0F4
S1130E60823049F40E941D0608950E942B060895BD
S1130E700E946E0608950E9404060895E0EAF8E0D0
S1130E80858188608583A6E4B0E382E01B968C9319
S1130E901B971E96ED91FC911F975A968D919C91EC
S1130EA05B970995823019F0833021F006C00E94C7
S1130EB01D0608950E942B0608950E94EC050895CE
S1130EC0E0EAF8E084818860848385818160858399
S1130ED0E6E4F0E380818E7F808382E083878EE086
S1130EE00895CF93DF93E0EAF8E08581806C8583F1
S1130EF08091463083FF07C08091A50884FF03C01A
S1130F008FE0809350308091A50883FF03C080E177
S1130F10809350308091A50882FF03C081E18093C3
S1130F205030C6E4D0E3EA85F0E0EE0FFF1FE05056
S1130F30F04D0190F081E02D09958A87DF91CF91E2
S1130F40089581E0089585E008956115710591F093
S1130F5090E0FC013696EE0FFF1FEA5BFF4C6083C6
S1130F607183FC013C96EE0FFF1FEA5BFF4C40834C
S1130F705183089590E0FC013696EE0FFF1FEA5B63
S1130F80FF4C21EA37E020833183FC013C96EE0FCD
S1130F90FF1FEA5BFF4C108211820895AB01BC0174
S1130FA080E00E94A5070895AB01BC0182E00E9485
S1130FB0A5070895E0EAF8E08BE0868381EC83835B
S1130FC008959091463091FD37C0E6E4F0E38183C3
S1130FD0892F8E7F82609EE0928724EF31E0208704
S1130FE03187877F8460808381EA97E0848795874F
S1130FF0108E118E86879787128E138E808B918B1D
S1131000148E158E828B938B168E178E83EA97E03F
S1131010848B958B10A211A2E0EAF8E084818860A9
S113102084838581816085838581806C85838381C8
S1131030806C838380E0089581E008958091A50801
S113104082FF07C0E6E4F0E380818E7F808382E044
S113105083878091463080FD17C0E6E4F0E38D7FFE
S113106080838FEF8183A0EAB8E015968C91159761
S1131070806C15968C93159713968C9113978F7398
S113108013968C938385089581E008959C01909133
S1131090463092FF09C0E6E4F0E32283338364839D
S11310A07583892F8B7F808308959091463090FDBE
S11310B011C0E6E4F0E391609083882321F081E09D
S11310C08093503003C082E0809350300E947107B7
S11310D080E0089581E0089580E00E945508089515
S11310E01F920F920FB60F9211242F933F934F9399
S11310F05F936F937F938F939F93AF93BF93EF937C
S1131100FF930E947107FF91EF91BF91AF919F915F
S11311108F917F916F915F914F913F912F910F909C
S11311200FBE0F901F90189561E070E00E94460872
S113113060E070E080E090E00E94CE0784E00895D3
S113114061E070E00E94460860E070E080E090E0BA
S11311500E94CE0782E0089562E070E00E94460893
S113116060E070E080E090E00E94CE0782E00895A5
S1131170FF920F931F93CF93DF9300D0CDB7DEB7C9
S1131180F82E69834A8300E117E28F2D0E94E1075C
S1131190813019F401501109C1F7012B11F1BE017D
S11311A06E5F7F4F84E998E00E94CE0761E070E0B3
S11311B0CE0101960E94460860E070E08FE699E057
S11311C00E94D4070E946C0800E117E20E941E08E6
S11311D0813019F401501109C9F7012B21F482E07F
S11311E003C081E001C080E00F900F90DF91CF91A8
S11311F01F910F91FF900895EF92FF921F93CF9349
S1131200DF9300D0CDB7DEB7182F6A838AE28983D3
S11312106894EE24E1F8F12C23C0812F0E94E107A9
S11312208823D9F3BE016F5F7F4F80EA98E00E9464
S1131230CE0761E070E0CE0102960E94460860E0AD
S113124070E08FE699E00E94D4070E946C080E9427
S11312501E088130E1F3882331F081E0E81AF108B7
S1131260E114F104D1F689810F900F90DF91CF91B1
S11312701F91FF90EF9008951F93CF93DF9300D0B9
S11312801F92CDB7DEB7182F6B83812F0E94E10721
S11312908823D9F3BE016F5F7F4F8CEA98E00E94E8
S11312A0CE0761E070E0CE0103960E94460860E03C
S11312B070E08FE699E00E94D4070E946C080E94B7
S11312C01E088130E1F389819A819827892798271C
S11312D02396CDBFDEBFDF91CF911F91089583E0A8
S11312E0089580E0089580E0089590910008E091C9
S11312F07D32EF5FE77080917C32E81759F0E0931C
S11313007D32F0E0E258FD4C908380917B328F5F18
S113131080937B32089580917032882389F0E09124
S11313207132EF5FE770E0937132F0E0ED58FD4CFD
S11313308081809302088091703281508093703252
S113134080917032811105C0E0E0F8E085818F7DE5
S11313508583089590914008E0916F31EF5F80910B
S11313606E31E81759F0E0936F31F0E0E059FE4C2C
S1131370908380916D318F5F80936D31089580915A
S11313806A30882381F0E0916B30EF5FE0936B303B
S1131390F0E0E359FF4C80818093420880916A30E9
S11313A0815080936A3080916A30811105C0E0E4F5
S11313B0F8E085818F7D85830895613019F062306E
S11313C031F00895809338309093393008958093A4
S11313D036309093373008951F920F920FB60F92C4
S11313E011242F933F934F935F936F937F938F9326
S11313F09F93AF93BF93EF93FF93E0913830F091B5
S11314003930309709F00995FF91EF91BF91AF9171
S11314109F918F917F916F915F914F913F912F9108
S11314200F900FBE0F901F9018951F920F920FB63A
S11314300F9211242F933F934F935F936F937F9356
S11314408F939F93AF93BF93EF93FF93E0913630C5
S1131450F0913730309709F00995FF91EF91BF91E2
S1131460AF919F918F917F916F915F914F913F9138
S11314702F910F900FBE0F901F901895909170327E
S113148081E0983009F480E00895209172322F5F52
S11314902770909170329830E1F3E22FF0E0ED582C
S11314A0FD4C8083209372320FB6F8940F92809192
S11314B070328F5F809370320F900FBEE0E0F8E0DF
S11314C08581806285830895E0E0F8E084E790E018
S11314D08087918780E8858380EC868310927C32B4
S11314E010927D3210927B321092713210927232CD
S11314F01092703280E00895809100080895613060
S113150019F0623031F0089580932630909327309B
S11315100895809324309093253008951F920F925C
S11315200FB60F9211242F933F934F935F936F93B2
S11315307F938F939F93AF93BF93EF93FF93E09128
S11315402630F0912730309709F00995FF91EF91FB
S1131550BF91AF919F918F917F916F915F914F91C7
S11315603F912F910F900FBE0F901F9018951F92CF
S11315700F920FB60F9211242F933F934F935F93C3
S11315806F937F938F939F93AF93BF93EF93FF9347
S1131590E0912430F0912530309709F00995FF91BE
S11315A0EF91BF91AF919F918F917F916F915F91D7
S11315B04F913F912F910F900FBE0F901F90189550
S11315C090916C309F5F20916A30E92FF0E0E359ED
S11315D0FF4C808390936C300FB6F8940F928091F7
S11315E06A308F5F80936A300F900FBEE0E4F8E0BA
S11315F085818062858308950E94E00A80E090E0FE
S11316000895E0E4F8E084E790E08087918780E83B
S1131610858380EC868381E0838710926E311092FB
S11316206F3110926D3110926B3010926C301092B9
S11316306A3088E290E380931B3490931C3480E0FA
S113164008958091400808955058BB27AA270E9406
S11316503C0B0C948D0C0E947F0C38F00E94860C7D
S113166020F039F49F3F19F426F40C947C0C0EF40A
S1131670E095E7FB0C94760CE92F0E949E0C58F33E
S1131680BA17620773078407950720F079F4A6F563
S11316900C94C00C0EF4E0950B2EBA2FA02D0B0168
S11316A0B90190010C01CA01A0011124FF27591BA3
S11316B099F0593F50F4503E68F11A16F040A22FA9
S11316C0232F342F4427585FF3CF4695379527951A
S11316D0A795F0405395C9F77EF41F16BA0B620B19
S11316E0730B840BBAF09150A1F0FF0FBB1F661F60
S11316F0771F881FC2F70EC0BA0F621F731F841FA3
S113170048F4879577956795B795F7959E3F08F0C8
S1131710B0CF9395880F08F09927EE0F979587958A
S113172008950E94A50B0C948D0C0E94860C58F011
S11317300E947F0C40F029F45F3F29F00C94760C52
S113174051110C94C10C0C947C0C0E949E0C68F3F7
S11317509923B1F3552391F3951B550BBB27AA2766
S113176062177307840738F09F5F5F4F220F331FA0
S1131770441FAA1FA9F335D00E2E3AF0E0E832D068
S113178091505040E695001CCAF72BD0FE2F29D06B
S1131790660F771F881FBB1F261737074807AB073D
S11317A0B0E809F0BB0B802DBF01FF2793585F4FB2
S11317B03AF09E3F510578F00C94760C0C94C10CD1
S11317C05F3FE4F3983ED4F3869577956795B79594
S11317D0F7959F5FC9F7880F911D9695879597F99F
S11317E00895E1E0660F771F881FBB1F6217730718
S11317F08407BA0720F0621B730B840BBA0BEE1F2D
S113180088F7E09508950E940A0C6894B1110C942D
S1131810C10C08950E94A60C88F09F5798F0B92F28
S11318209927B751B0F0E1F0660F771F881F991F11
S11318301AF0BA95C9F714C0B13091F00E94C00CE7
S1131840B1E008950C94C00C672F782F8827B85FF7
S113185039F0B93FCCF3869577956795B395D9F769
S11318603EF490958095709561957F4F8F4F9F4F73
S11318700895E89409C097FB3EF49095809570957F
S113188061957F4F8F4F9F4F9923A9F0F92F96E9C8
S1131890BB279395F695879577956795B795F1113D
S11318A0F8CFFAF4BB0F11F460FF1BC06F5F7F4FDA
S11318B08F4F9F4F16C0882311F096E911C07723EC
S11318C021F09EE8872F762F05C0662371F096E8F5
S11318D0862F70E060E02AF09A95660F771F881FC4
S11318E0DAF7880F9695879597F9089597F99F6782
S11318F080E870E060E008959FEF80EC0895002494
S11319000A941616170618060906089500240A9460
S113191012161306140605060895092E0394000CE6
S113192011F4882352F0BB0F40F4BF2B11F460FF75
S113193004C06F5F7F4F8F4F9F4F089557FD90589E
S1131940440F551F59F05F3F71F04795880F97FB7F
S1131950991F61F09F3F79F0879508951216130639
S11319601406551FF2CF4695F1DF08C01616170668
S11319701806991FF1CF869571056105089408959D
S1131980E894BB2766277727CB0197F908950E942F
S1131990DA0C0C948D0C0E947F0C38F00E94860C9B
S11319A020F0952311F00C94760C0C947C0C1124EB
S11319B00C94C10C0E949E0C70F3959FC1F3950F7B
S11319C050E0551F629FF001729FBB27F00DB11DBF
S11319D0639FAA27F00DB11DAA1F649F6627B00D4F
S11319E0A11D661F829F2227B00DA11D621F739F38
S11319F0B00DA11D621F839FA00D611D221F749F46
S1131A003327A00D611D231F849F600D211D822F8C
S1131A10762F6A2F11249F5750409AF0F1F08823B3
S1131A204AF0EE0FFF1FBB1F661F771F881F9150E0
S1131A305040A9F79E3F510580F00C94760C0C940D
S1131A40C10C5F3FE4F3983ED4F386957795679590
S1131A50B795F795E7959F5FC1F7FE2B880F911D0A
S1131A609695879597F90895B7FF0C943C0D0E94BD
S1131A703C0D821B930B08950E94470DA59F900D6A
S1131A80B49F900DA49F800D911D11240895A29FD1
S1131A90B001B39FC001A39F700D811D1124911D3E
S1131AA0B29F700D811D1124911D0895A0E0B0E036
S1131AB0ECE5FDE00C948E115C016B017A0161157B
S1131AC0710519F0FB0180839183E114F10429F07D
S1131AD0C7010297839708F0E5C0E5012196F50157
S1131AE01081812F90E00E946C0E892B11F05E0111
S1131AF0F4CF1D3229F42196F501118101E007C0CC
S1131B001B3221F4E5012296F501118100E0E11474
S1131B10F10409F1F0E1EF16F10429F43FC010E3F8
S1131B20E114F10421F128E0E216F10401F154F486
S1131B30E2E0EE16F10421F5812C912CA12CB0E405
S1131B40BB2E3EC0FAE0EF16F10439F020E1E216B4
S1131B50F104B1F430C0103319F1FAE0EF2EF12C96
S1131B60ACEC8A2E982CA82CACE0BA2E29C078E0D4
S1131B70E72EF12C812C912CA12CE0E1BE2E20C06B
S1131B8060E070E080E090E897010F2C000C440BBB
S1131B90550B0E946B1149015A0112C0103359F4BC
S1131BA088818F7D883509F0BACF19812296026029
S1131BB080E1E82EF12C812C912CA12C68E0B62E2A
S1131BC040E060E070E0CB0127010F2C000C6608B8
S1131BD07708FE0150ED352E310E29E0231570F4FF
S1131BE02FEB210F2A3118F439EC332E06C02FE9DC
S1131BF0210F2A3118F529EA322E310E232D30E037
S1131C002E153F05DCF447FD16C086169706A80678
S1131C10B90670F0A30192010E945B11630D711D5E
S1131C20811D911D61307105810520E8920710F036
S1131C304FEF01C041E021961081CBCF202F2170BE
S1131C40C114D10471F0442329F02197F601C08313
S1131C50D18307C001FF19C02297F601C083D18345
S1131C6014C047FF12C0222329F060E070E080E036
S1131C7090E804C06FEF7FEF8FEF9FE722E230E040
S1131C8020931F343093203409C0222381F090958F
S1131C908095709561957F4F8F4F9F4F462F372FBB
S1131CA0282F12C040E030E020E090E00DC097FF04
S1131CB0F5CF82E290E080931F34909320346FEF4D
S1131CC07FEF8FEF9FE7EACF642F732F822FCDB77B
S1131CD0DEB7E1E10C94A71191110C94A8108032A5
S1131CE019F089508550C8F70895FB015191552387
S1131CF0A9F0BF01DC014D9145174111E1F759F4F9
S1131D00CD010190002049F04D9140154111C9F3D6
S1131D10FB014111EFCF81E090E001970895A0E02D
S1131D20B0E0E5E9FEE00C949D11AE014B5F5F4F1E
S1131D30FA0161917191AF0180911B3490911C342F
S1131D400E94C70EE2E00C94B611AEE0B0E0EBEAFC
S1131D50FEE00C949B110D891E8986E08C83098317
S1131D601A838FEF9FE78D839E83AE01475E5F4F9B
S1131D706F89788DCE0101960E94C70EEF81F88598
S1131D80E00FF11F10822E96E4E00C94B411ABE046
S1131D90B0E0EDECFEE00C948D116C017B018A0146
S1131DA0FC0116821782838181FFCCC1CE0101968A
S1131DB03C01F6019381F70193FD859193FF819195
S1131DC07F01882309F4BAC1853239F493FD8591E2
S1131DD093FF81917F01853229F4B60190E00E943E
S1131DE0C110E7CF912C212C312CFFE1F315D8F051
S1131DF08B3279F038F4803279F08332A1F4232DD8
S1131E0020611DC08D3261F0803369F4232D21607F
S1131E1016C0832D8260382EE32DE4603E2E2AC046
S1131E20F32DF8601DC037FC2DC020ED280F2A309B
S1131E3040F08E32B9F436FC81C1232D2064322E59
S1131E4019C036FE06C08AE0989E200D1124922EF9
S1131E5011C0EAE02E9E200D1124222EF32DF062F3
S1131E603F2E08C08C3621F4832D8068382E02C0A2
S1131E70883641F4F70193FD859193FF81917F01A9
S1131E808111B3CF982F9F7D9554933028F40C5F24
S1131E901F4F9FE399830DC0833631F0833771F070
S1131EA0833509F059C021C0F801808189830E5F10
S1131EB01F4F88248394912C530113C02801F2E00E
S1131EC04F0E511CF801A080B18036FE03C0692D6D
S1131ED070E002C06FEF7FEFC5010E94B6104C01A5
S1131EE08201F32DFF773F2E16C0280122E0420E17
S1131EF0511CF801A080B18036FE03C0692D70E04A
S1131F0002C06FEF7FEFC5010E94AB104C01F32DAF
S1131F10F0683F2E820133FC1BC0822D90E08816AE
S1131F209906B0F4B60180E290E00E94C1102A94B0
S1131F30F4CFF50137FC859137FE81915F01B6013D
S1131F4090E00E94C11021102A9421E0821A910885
S1131F508114910471F7E8C0843611F0893641F593
S1131F60F80137FE07C060817181828193810C5F23
S1131F701F4F08C060817181072E000C880B990BDC
S1131F800E5F1F4FF32DFF763F2E97FF09C09095EC
S1131F908095709561957F4F8F4F9F4FF0683F2ECE
S1131FA02AE030E0A3010E94FD10882E861845C067
S1131FB0853731F4232D2F7EB22E2AE030E025C060
S1131FC0932D997FB92E8F36C1F018F4883579F0A6
S1131FD0B5C0803719F0883721F0B0C0E92FE0612F
S1131FE0BE2EB4FE0DC0FB2DF460BF2E09C034FE1E
S1131FF00AC0292F2660B22E06C028E030E005C0B2
S113200020E130E002C020E132E0F801B7FE07C071
S113201060817181828193810C5F1F4F06C0608152
S1132020718180E090E00E5F1F4FA3010E94FD10BC
S1132030882E8618FB2DFF773F2E36FE0DC0232DEC
S11320402E7FA22E891458F434FE0BC032FC09C032
S1132050832D8E7EA82E05C0B82CA32C03C0B82CCB
S113206001C0B92CA4FE0FC0FE01E80DF11D808152
S1132070803321F49A2D997EA92E09C0A2FE06C0B0
S1132080B394B39404C08A2D867809F0B394A3FC66
S113209011C0A0FE06C0B21488F4280C922C9B1820
S11320A00EC0B21460F4B60180E290E00E94C11048
S11320B0B394F7CFB21418F42B1802C0982C212C27
S11320C0A4FE10C0B60180E390E00E94C110A2FEFD
S11320D017C0A1FC03C088E790E002C088E590E047
S11320E0B6010CC08A2D867859F0A1FE02C08BE29D
S11320F001C080E2A7FC8DE2B60190E00E94C1100D
S1132100891438F4B60180E390E00E94C1109A94D7
S1132110F7CF8A94F301E80DF11D8081B60190E0B8
S11321200E94C1108110F5CF222009F442CEB601DD
S113213080E290E00E94C1102A94F6CFF6018681D5
S1132140978102C08FEF9FEF2B96E2E10C94A611CA
S1132150992788270895FC0105906150704001106B
S1132160D8F7809590958E0F9F1F0895FC016150BC
S1132170704001900110D8F7809590958E0F9F1FA5
S113218008950F931F93CF93DF93FB01238121FDC8
S113219003C08FEF9FEF2CC022FF16C046815781EA
S11321A0248135814217530744F4A081B1819D01F4
S11321B02F5F3F4F208331838C93268137812F5F9C
S11321C03F4F2683378314C08B01EC01FB0100844D
S11321D0F185E02D0995892BE1F6D80116968D91AC
S11321E09C911797019616968D939C931797CE0101
S11321F0DF91CF911F910F910895FA01AA272830FA
S113220051F1203181F1E8946F936E7F6E5F7F4FBF
S11322108F4F9F4FAF4FB1E03ED0B4E03CD0670F3B
S1132220781F891F9A1FA11D680F791F8A1F911D8E
S1132230A11D6A0F711D811D911DA11D20D009F4DE
S113224068943F912AE0269F11243019305D319320
S1132250DEF6CF010895462F4770405D4193B3E009
S11322600FD0C9F7F6CF462F4F70405D4A3318F0B0
S1132270495D31FD4052419302D0A9F7EACFB4E061
S1132280A6959795879577956795BA95C9F7009719
S11322906105710508959B01AC010A2E06945795BA
S11322A0479537952795BA95C9F7620F731F841F11
S11322B0951FA01D0895DB018F939F930E943C0DF1
S11322C0BF91AF91A29F800D911DA39F900DB29FCE
S11322D0900D11240895A1E21A2EAA1BBB1BFD0127
S11322E00DC0AA1FBB1FEE1FFF1FA217B307E407F1
S11322F0F50720F0A21BB30BE40BF50B661F771F49
S1132300881F991F1A9469F7609570958095909528
S11323109B01AC01BD01CF0108952F923F924F92D2
S11323205F926F927F928F929F92AF92BF92CF9261
S1132330DF92EF92FF920F931F93CF93DF93CDB76A
S1132340DEB7CA1BDB0BCDBFDEBF09942A883988F0
S113235048885F846E847D848C849B84AA84B98439
S1132360C884DF80EE80FD800C811B81AA81B98145
S1132370CE0FD11DCDBFDEBFED010895F894FFCF80
S1132380457272000A0D2573203A2025730D0A0048
S11323905348522C25730D0A005348572C25732C8F
S11323A025580D0A002424240053462C320D0A001B
S11323B0532D2C415652424C450D0A00534E2C418C
S11323C05652424C450D0A0050532C324139383193
S11323D04634433734343834314638383345383862
S11323E042463937464534363338310D0A005043B6
S11323F02C3733363537424438324430343443335F
S11324003141333145353444453144414236364611
S1132410462C30322C31300D0A0050432C443041CC
S11324203531324436304438313435433242454410
S1132430443632314546314342424546422C3032DD
S11324402C31300D0A004C530D0A00524E343837EB
S11324503020496E697469616C697A656420696EBB
S113246020434D44206D6F64650A0D000A0D4163DD
S1132470746976652073657276696365733A0D0ACB
S11324802573002E0116018600F300D3006A006D47
S113249000416363656C203A202825642C20256460
S11324A02C202564290D0068756D69646974792090
S11324B02564207248200D0A0074656D702025641F
S11324C02043200D0A0030303732003030373400DA
S10824D025780D0A004F
S11324D5FC050C0620066E06A40601071D062B0640
S11324E51A0604064E0655065C066706EC052E0616
S11324F53E076007BF09AA090000000200000000AA
S10D2505FC0A000000008B097509B0
S9030000FC
